{"abi":[{"inputs":[],"stateMutability":"nonpayable","type":"constructor","name":"constructor"},{"inputs":[],"name":"cc_address","outputs":[{"internalType":"contract CarCollectible","name":"","type":"address"}],"stateMutability":"view","type":"function"},{"inputs":[{"internalType":"uint256","name":"tokenId","type":"uint256"}],"name":"check_ownership","outputs":[{"internalType":"bool","name":"","type":"bool"}],"stateMutability":"view","type":"function"},{"inputs":[],"name":"set_sender","outputs":[],"stateMutability":"nonpayable","type":"function"}],"bytecode":"608060405234801561001057600080fd5b50600080546001600160a01b03191673465ddd0960fdd1a01a9924a26b1ac382c94c96d11790556101a4806100466000396000f3fe608060405234801561001057600080fd5b50600436106100415760003560e01c806325756588146100465780634490979514610077578063bb02b3631461009b575b600080fd5b6100636004803603602081101561005c57600080fd5b50356100a5565b604080519115158252519081900360200190f35b61007f61014b565b604080516001600160a01b039092168252519081900360200190f35b6100a361015a565b005b60008054604080516304aeacb160e31b815260048101859052905183926001600160a01b0316916325756588916024808301926020929190829003018186803b1580156100f157600080fd5b505afa158015610105573d6000803e3d6000fd5b505050506040513d602081101561011b57600080fd5b50516001549091506001600160a01b0380831691161415610140576001915050610146565b60009150505b919050565b6000546001600160a01b031681565b600180546001600160a01b0319163317905556fea2646970667358221220571a66abdf0798db290abd0d5fc5ead85cafc5b8a1ce1448df75383c2b470f8d64736f6c63430006060033","bytecodeSha1":"38b12dc978449ec11836c511db4b87d7fc986498","compiler":{"evm_version":"istanbul","optimizer":{"enabled":true,"runs":200},"version":"0.6.6+commit.6c089d02"},"contractName":"Insurance","language":"Solidity","natspec":{"methods":{}},"opcodes":"PUSH1 0x80 PUSH1 0x40 MSTORE CALLVALUE DUP1 ISZERO PUSH2 0x10 JUMPI PUSH1 0x0 DUP1 REVERT JUMPDEST POP PUSH1 0x4 CALLDATASIZE LT PUSH2 0x41 JUMPI PUSH1 0x0 CALLDATALOAD PUSH1 0xE0 SHR DUP1 PUSH4 0x25756588 EQ PUSH2 0x46 JUMPI DUP1 PUSH4 0x44909795 EQ PUSH2 0x77 JUMPI DUP1 PUSH4 0xBB02B363 EQ PUSH2 0x9B JUMPI JUMPDEST PUSH1 0x0 DUP1 REVERT JUMPDEST PUSH2 0x63 PUSH1 0x4 DUP1 CALLDATASIZE SUB PUSH1 0x20 DUP2 LT ISZERO PUSH2 0x5C JUMPI PUSH1 0x0 DUP1 REVERT JUMPDEST POP CALLDATALOAD PUSH2 0xA5 JUMP JUMPDEST PUSH1 0x40 DUP1 MLOAD SWAP2 ISZERO ISZERO DUP3 MSTORE MLOAD SWAP1 DUP2 SWAP1 SUB PUSH1 0x20 ADD SWAP1 RETURN JUMPDEST PUSH2 0x7F PUSH2 0x14B JUMP JUMPDEST PUSH1 0x40 DUP1 MLOAD PUSH1 0x1 PUSH1 0x1 PUSH1 0xA0 SHL SUB SWAP1 SWAP3 AND DUP3 MSTORE MLOAD SWAP1 DUP2 SWAP1 SUB PUSH1 0x20 ADD SWAP1 RETURN JUMPDEST PUSH2 0xA3 PUSH2 0x15A JUMP JUMPDEST STOP JUMPDEST PUSH1 0x0 DUP1 SLOAD PUSH1 0x40 DUP1 MLOAD PUSH4 0x4AEACB1 PUSH1 0xE3 SHL DUP2 MSTORE PUSH1 0x4 DUP2 ADD DUP6 SWAP1 MSTORE SWAP1 MLOAD DUP4 SWAP3 PUSH1 0x1 PUSH1 0x1 PUSH1 0xA0 SHL SUB AND SWAP2 PUSH4 0x25756588 SWAP2 PUSH1 0x24 DUP1 DUP4 ADD SWAP3 PUSH1 0x20 SWAP3 SWAP2 SWAP1 DUP3 SWAP1 SUB ADD DUP2 DUP7 DUP1 EXTCODESIZE ISZERO DUP1 ISZERO PUSH2 0xF1 JUMPI PUSH1 0x0 DUP1 REVERT JUMPDEST POP GAS STATICCALL ISZERO DUP1 ISZERO PUSH2 0x105 JUMPI RETURNDATASIZE PUSH1 0x0 DUP1 RETURNDATACOPY RETURNDATASIZE PUSH1 0x0 REVERT JUMPDEST POP POP POP POP PUSH1 0x40 MLOAD RETURNDATASIZE PUSH1 0x20 DUP2 LT ISZERO PUSH2 0x11B JUMPI PUSH1 0x0 DUP1 REVERT JUMPDEST POP MLOAD PUSH1 0x1 SLOAD SWAP1 SWAP2 POP PUSH1 0x1 PUSH1 0x1 PUSH1 0xA0 SHL SUB DUP1 DUP4 AND SWAP2 AND EQ ISZERO PUSH2 0x140 JUMPI PUSH1 0x1 SWAP2 POP POP PUSH2 0x146 JUMP JUMPDEST PUSH1 0x0 SWAP2 POP POP JUMPDEST SWAP2 SWAP1 POP JUMP JUMPDEST PUSH1 0x0 SLOAD PUSH1 0x1 PUSH1 0x1 PUSH1 0xA0 SHL SUB AND DUP2 JUMP JUMPDEST PUSH1 0x1 DUP1 SLOAD PUSH1 0x1 PUSH1 0x1 PUSH1 0xA0 SHL SUB NOT AND CALLER OR SWAP1 SSTORE JUMP INVALID LOG2 PUSH5 0x6970667358 0x22 SLT KECCAK256 JUMPI BYTE PUSH7 0xABDF0798DB290A 0xBD 0xD 0x5F 0xC5 0xEA 0xD8 0x5C 0xAF 0xC5 0xB8 LOG1 0xCE EQ 0x48 0xDF PUSH22 0x383C2B470F8D64736F6C634300060600330000000000 ","sha1":"9e480a5e92cdab03f5e27f21fbcedb2acdee6bb8","source":"pragma solidity 0.6.6;\n\ninterface CarCollectible{\n    function check_ownership(uint256 tokenId) external view returns (address);\n}\n\ncontract Insurance{\n\n    CarCollectible public cc_address;\n    address sender;\n\n    constructor () public\n    {\n        cc_address = CarCollectible(0x465ddd0960fdD1a01A9924A26b1aC382c94C96d1);\n    }\n\n    // function set_address(address _address) external {\n    //     cc_address = CarCollectible(_address);\n    // }\n\n    function set_sender() external {\n        sender = msg.sender;\n    }\n\n     function check_ownership(uint256 tokenId) external view returns (bool)\n     {\n        address owner = cc_address.check_ownership(tokenId);\n        if(owner==sender) {\n            return true;\n        } else {\n            return false;\n        }\n        //return sender;\n     }\n}","sourcePath":"contracts/Insurance.sol","type":"contract","deployment":{"address":"0x92aB3Cc3ca51C2f6A19A9A4Be01f11B827aAEF7B","chainid":"4","blockHeight":10508550}}