{"abi":[{"inputs":[],"stateMutability":"nonpayable","type":"constructor","name":"constructor"},{"inputs":[],"name":"cc_address","outputs":[{"internalType":"contract CarCollectible","name":"","type":"address"}],"stateMutability":"view","type":"function"},{"inputs":[{"internalType":"uint256","name":"tokenId","type":"uint256"}],"name":"check_ownership","outputs":[{"internalType":"bool","name":"","type":"bool"}],"stateMutability":"view","type":"function"},{"inputs":[{"internalType":"uint256","name":"tokenId","type":"uint256"}],"name":"get_metadata","outputs":[{"components":[{"internalType":"string","name":"brand","type":"string"},{"internalType":"string","name":"model","type":"string"},{"internalType":"uint16","name":"year","type":"uint16"},{"internalType":"uint32","name":"price","type":"uint32"},{"internalType":"uint16","name":"iot_account","type":"uint16"}],"internalType":"struct CarCollectible.Attr","name":"attr","type":"tuple"}],"stateMutability":"view","type":"function"},{"inputs":[],"name":"set_sender","outputs":[],"stateMutability":"nonpayable","type":"function"}],"bytecode":"608060405234801561001057600080fd5b50600080546001600160a01b03191673558f1f19cc21e1fee2b6269e381a6ba3765478a0179055610559806100466000396000f3fe608060405234801561001057600080fd5b506004361061004c5760003560e01c806319267df014610051578063257565881461007a578063449097951461009a578063bb02b363146100af575b600080fd5b61006461005f3660046103d8565b6100b9565b604051610071919061043b565b60405180910390f35b61008d6100883660046103d8565b61014d565b604051610071919061041c565b6100a26101fb565b6040516100719190610427565b6100b761020a565b005b6100c161021e565b600054604051633762777760e01b81526001600160a01b03909116906337627777906100f19085906004016104b0565b60006040518083038186803b15801561010957600080fd5b505afa15801561011d573d6000803e3d6000fd5b505050506040513d6000823e601f3d908101601f19168201604052610145919081019061030e565b90505b919050565b600080546040516304aeacb160e31b815282916001600160a01b03169063257565889061017e9086906004016104b0565b60206040518083038186803b15801561019657600080fd5b505afa1580156101aa573d6000803e3d6000fd5b505050506040513d601f19601f820116820180604052508101906101ce91906102e0565b6004549091506001600160a01b03808316911614156101f1576001915050610148565b6000915050610148565b6000546001600160a01b031681565b600480546001600160a01b03191633179055565b6040805160a08101825260608082526020820181905260009282018390528101829052608081019190915290565b600082601f83011261025c578081fd5b815167ffffffffffffffff811115610272578182fd5b610285601f8201601f19166020016104b9565b915080825283602082850101111561029c57600080fd5b6102ad8160208401602086016104e0565b5092915050565b805161ffff811681146102c657600080fd5b92915050565b805163ffffffff811681146102c657600080fd5b6000602082840312156102f1578081fd5b81516001600160a01b0381168114610307578182fd5b9392505050565b60006020828403121561031f578081fd5b815167ffffffffffffffff80821115610336578283fd5b81840160a08187031215610348578384fd5b61035260a06104b9565b9250805182811115610362578485fd5b61036e8782840161024c565b845250602081015182811115610382578485fd5b61038e8782840161024c565b602085015250604081015191506103a482610510565b8160408401526103b786606083016102cc565b60608401526103c986608083016102b4565b60808401525090949350505050565b6000602082840312156103e9578081fd5b5035919050565b600081518084526104088160208601602086016104e0565b601f01601f19169290920160200192915050565b901515815260200190565b6001600160a01b0391909116815260200190565b600060208252825160a0602084015261045760c08401826103f0565b6020850151848203601f19016040860152915061047481836103f0565b6040860151925061ffff9150818316606086015263ffffffff60608701511660808601528160808701511660a086015280935050505092915050565b90815260200190565b60405181810167ffffffffffffffff811182821017156104d857600080fd5b604052919050565b60005b838110156104fb5781810151838201526020016104e3565b8381111561050a576000848401525b50505050565b61ffff8116811461052057600080fd5b5056fea26469706673582212204e3090c4bce7105c73ea0a0adbbeb541c83751a893aed005b073721a25c1244964736f6c63430006060033","bytecodeSha1":"2b46013d744e6e6fce62d4ad3d579fbde9db396c","compiler":{"evm_version":"istanbul","optimizer":{"enabled":true,"runs":200},"version":"0.6.6+commit.6c089d02"},"contractName":"Insurance","language":"Solidity","natspec":{"methods":{}},"opcodes":"PUSH1 0x80 PUSH1 0x40 MSTORE CALLVALUE DUP1 ISZERO PUSH2 0x10 JUMPI PUSH1 0x0 DUP1 REVERT JUMPDEST POP PUSH1 0x4 CALLDATASIZE LT PUSH2 0x4C JUMPI PUSH1 0x0 CALLDATALOAD PUSH1 0xE0 SHR DUP1 PUSH4 0x19267DF0 EQ PUSH2 0x51 JUMPI DUP1 PUSH4 0x25756588 EQ PUSH2 0x7A JUMPI DUP1 PUSH4 0x44909795 EQ PUSH2 0x9A JUMPI DUP1 PUSH4 0xBB02B363 EQ PUSH2 0xAF JUMPI JUMPDEST PUSH1 0x0 DUP1 REVERT JUMPDEST PUSH2 0x64 PUSH2 0x5F CALLDATASIZE PUSH1 0x4 PUSH2 0x3D8 JUMP JUMPDEST PUSH2 0xB9 JUMP JUMPDEST PUSH1 0x40 MLOAD PUSH2 0x71 SWAP2 SWAP1 PUSH2 0x43B JUMP JUMPDEST PUSH1 0x40 MLOAD DUP1 SWAP2 SUB SWAP1 RETURN JUMPDEST PUSH2 0x8D PUSH2 0x88 CALLDATASIZE PUSH1 0x4 PUSH2 0x3D8 JUMP JUMPDEST PUSH2 0x14D JUMP JUMPDEST PUSH1 0x40 MLOAD PUSH2 0x71 SWAP2 SWAP1 PUSH2 0x41C JUMP JUMPDEST PUSH2 0xA2 PUSH2 0x1FB JUMP JUMPDEST PUSH1 0x40 MLOAD PUSH2 0x71 SWAP2 SWAP1 PUSH2 0x427 JUMP JUMPDEST PUSH2 0xB7 PUSH2 0x20A JUMP JUMPDEST STOP JUMPDEST PUSH2 0xC1 PUSH2 0x21E JUMP JUMPDEST PUSH1 0x0 SLOAD PUSH1 0x40 MLOAD PUSH4 0x37627777 PUSH1 0xE0 SHL DUP2 MSTORE PUSH1 0x1 PUSH1 0x1 PUSH1 0xA0 SHL SUB SWAP1 SWAP2 AND SWAP1 PUSH4 0x37627777 SWAP1 PUSH2 0xF1 SWAP1 DUP6 SWAP1 PUSH1 0x4 ADD PUSH2 0x4B0 JUMP JUMPDEST PUSH1 0x0 PUSH1 0x40 MLOAD DUP1 DUP4 SUB DUP2 DUP7 DUP1 EXTCODESIZE ISZERO DUP1 ISZERO PUSH2 0x109 JUMPI PUSH1 0x0 DUP1 REVERT JUMPDEST POP GAS STATICCALL ISZERO DUP1 ISZERO PUSH2 0x11D JUMPI RETURNDATASIZE PUSH1 0x0 DUP1 RETURNDATACOPY RETURNDATASIZE PUSH1 0x0 REVERT JUMPDEST POP POP POP POP PUSH1 0x40 MLOAD RETURNDATASIZE PUSH1 0x0 DUP3 RETURNDATACOPY PUSH1 0x1F RETURNDATASIZE SWAP1 DUP2 ADD PUSH1 0x1F NOT AND DUP3 ADD PUSH1 0x40 MSTORE PUSH2 0x145 SWAP2 SWAP1 DUP2 ADD SWAP1 PUSH2 0x30E JUMP JUMPDEST SWAP1 POP JUMPDEST SWAP2 SWAP1 POP JUMP JUMPDEST PUSH1 0x0 DUP1 SLOAD PUSH1 0x40 MLOAD PUSH4 0x4AEACB1 PUSH1 0xE3 SHL DUP2 MSTORE DUP3 SWAP2 PUSH1 0x1 PUSH1 0x1 PUSH1 0xA0 SHL SUB AND SWAP1 PUSH4 0x25756588 SWAP1 PUSH2 0x17E SWAP1 DUP7 SWAP1 PUSH1 0x4 ADD PUSH2 0x4B0 JUMP JUMPDEST PUSH1 0x20 PUSH1 0x40 MLOAD DUP1 DUP4 SUB DUP2 DUP7 DUP1 EXTCODESIZE ISZERO DUP1 ISZERO PUSH2 0x196 JUMPI PUSH1 0x0 DUP1 REVERT JUMPDEST POP GAS STATICCALL ISZERO DUP1 ISZERO PUSH2 0x1AA JUMPI RETURNDATASIZE PUSH1 0x0 DUP1 RETURNDATACOPY RETURNDATASIZE PUSH1 0x0 REVERT JUMPDEST POP POP POP POP PUSH1 0x40 MLOAD RETURNDATASIZE PUSH1 0x1F NOT PUSH1 0x1F DUP3 ADD AND DUP3 ADD DUP1 PUSH1 0x40 MSTORE POP DUP2 ADD SWAP1 PUSH2 0x1CE SWAP2 SWAP1 PUSH2 0x2E0 JUMP JUMPDEST PUSH1 0x4 SLOAD SWAP1 SWAP2 POP PUSH1 0x1 PUSH1 0x1 PUSH1 0xA0 SHL SUB DUP1 DUP4 AND SWAP2 AND EQ ISZERO PUSH2 0x1F1 JUMPI PUSH1 0x1 SWAP2 POP POP PUSH2 0x148 JUMP JUMPDEST PUSH1 0x0 SWAP2 POP POP PUSH2 0x148 JUMP JUMPDEST PUSH1 0x0 SLOAD PUSH1 0x1 PUSH1 0x1 PUSH1 0xA0 SHL SUB AND DUP2 JUMP JUMPDEST PUSH1 0x4 DUP1 SLOAD PUSH1 0x1 PUSH1 0x1 PUSH1 0xA0 SHL SUB NOT AND CALLER OR SWAP1 SSTORE JUMP JUMPDEST PUSH1 0x40 DUP1 MLOAD PUSH1 0xA0 DUP2 ADD DUP3 MSTORE PUSH1 0x60 DUP1 DUP3 MSTORE PUSH1 0x20 DUP3 ADD DUP2 SWAP1 MSTORE PUSH1 0x0 SWAP3 DUP3 ADD DUP4 SWAP1 MSTORE DUP2 ADD DUP3 SWAP1 MSTORE PUSH1 0x80 DUP2 ADD SWAP2 SWAP1 SWAP2 MSTORE SWAP1 JUMP JUMPDEST PUSH1 0x0 DUP3 PUSH1 0x1F DUP4 ADD SLT PUSH2 0x25C JUMPI DUP1 DUP2 REVERT JUMPDEST DUP2 MLOAD PUSH8 0xFFFFFFFFFFFFFFFF DUP2 GT ISZERO PUSH2 0x272 JUMPI DUP2 DUP3 REVERT JUMPDEST PUSH2 0x285 PUSH1 0x1F DUP3 ADD PUSH1 0x1F NOT AND PUSH1 0x20 ADD PUSH2 0x4B9 JUMP JUMPDEST SWAP2 POP DUP1 DUP3 MSTORE DUP4 PUSH1 0x20 DUP3 DUP6 ADD ADD GT ISZERO PUSH2 0x29C JUMPI PUSH1 0x0 DUP1 REVERT JUMPDEST PUSH2 0x2AD DUP2 PUSH1 0x20 DUP5 ADD PUSH1 0x20 DUP7 ADD PUSH2 0x4E0 JUMP JUMPDEST POP SWAP3 SWAP2 POP POP JUMP JUMPDEST DUP1 MLOAD PUSH2 0xFFFF DUP2 AND DUP2 EQ PUSH2 0x2C6 JUMPI PUSH1 0x0 DUP1 REVERT JUMPDEST SWAP3 SWAP2 POP POP JUMP JUMPDEST DUP1 MLOAD PUSH4 0xFFFFFFFF DUP2 AND DUP2 EQ PUSH2 0x2C6 JUMPI PUSH1 0x0 DUP1 REVERT JUMPDEST PUSH1 0x0 PUSH1 0x20 DUP3 DUP5 SUB SLT ISZERO PUSH2 0x2F1 JUMPI DUP1 DUP2 REVERT JUMPDEST DUP2 MLOAD PUSH1 0x1 PUSH1 0x1 PUSH1 0xA0 SHL SUB DUP2 AND DUP2 EQ PUSH2 0x307 JUMPI DUP2 DUP3 REVERT JUMPDEST SWAP4 SWAP3 POP POP POP JUMP JUMPDEST PUSH1 0x0 PUSH1 0x20 DUP3 DUP5 SUB SLT ISZERO PUSH2 0x31F JUMPI DUP1 DUP2 REVERT JUMPDEST DUP2 MLOAD PUSH8 0xFFFFFFFFFFFFFFFF DUP1 DUP3 GT ISZERO PUSH2 0x336 JUMPI DUP3 DUP4 REVERT JUMPDEST DUP2 DUP5 ADD PUSH1 0xA0 DUP2 DUP8 SUB SLT ISZERO PUSH2 0x348 JUMPI DUP4 DUP5 REVERT JUMPDEST PUSH2 0x352 PUSH1 0xA0 PUSH2 0x4B9 JUMP JUMPDEST SWAP3 POP DUP1 MLOAD DUP3 DUP2 GT ISZERO PUSH2 0x362 JUMPI DUP5 DUP6 REVERT JUMPDEST PUSH2 0x36E DUP8 DUP3 DUP5 ADD PUSH2 0x24C JUMP JUMPDEST DUP5 MSTORE POP PUSH1 0x20 DUP2 ADD MLOAD DUP3 DUP2 GT ISZERO PUSH2 0x382 JUMPI DUP5 DUP6 REVERT JUMPDEST PUSH2 0x38E DUP8 DUP3 DUP5 ADD PUSH2 0x24C JUMP JUMPDEST PUSH1 0x20 DUP6 ADD MSTORE POP PUSH1 0x40 DUP2 ADD MLOAD SWAP2 POP PUSH2 0x3A4 DUP3 PUSH2 0x510 JUMP JUMPDEST DUP2 PUSH1 0x40 DUP5 ADD MSTORE PUSH2 0x3B7 DUP7 PUSH1 0x60 DUP4 ADD PUSH2 0x2CC JUMP JUMPDEST PUSH1 0x60 DUP5 ADD MSTORE PUSH2 0x3C9 DUP7 PUSH1 0x80 DUP4 ADD PUSH2 0x2B4 JUMP JUMPDEST PUSH1 0x80 DUP5 ADD MSTORE POP SWAP1 SWAP5 SWAP4 POP POP POP POP JUMP JUMPDEST PUSH1 0x0 PUSH1 0x20 DUP3 DUP5 SUB SLT ISZERO PUSH2 0x3E9 JUMPI DUP1 DUP2 REVERT JUMPDEST POP CALLDATALOAD SWAP2 SWAP1 POP JUMP JUMPDEST PUSH1 0x0 DUP2 MLOAD DUP1 DUP5 MSTORE PUSH2 0x408 DUP2 PUSH1 0x20 DUP7 ADD PUSH1 0x20 DUP7 ADD PUSH2 0x4E0 JUMP JUMPDEST PUSH1 0x1F ADD PUSH1 0x1F NOT AND SWAP3 SWAP1 SWAP3 ADD PUSH1 0x20 ADD SWAP3 SWAP2 POP POP JUMP JUMPDEST SWAP1 ISZERO ISZERO DUP2 MSTORE PUSH1 0x20 ADD SWAP1 JUMP JUMPDEST PUSH1 0x1 PUSH1 0x1 PUSH1 0xA0 SHL SUB SWAP2 SWAP1 SWAP2 AND DUP2 MSTORE PUSH1 0x20 ADD SWAP1 JUMP JUMPDEST PUSH1 0x0 PUSH1 0x20 DUP3 MSTORE DUP3 MLOAD PUSH1 0xA0 PUSH1 0x20 DUP5 ADD MSTORE PUSH2 0x457 PUSH1 0xC0 DUP5 ADD DUP3 PUSH2 0x3F0 JUMP JUMPDEST PUSH1 0x20 DUP6 ADD MLOAD DUP5 DUP3 SUB PUSH1 0x1F NOT ADD PUSH1 0x40 DUP7 ADD MSTORE SWAP2 POP PUSH2 0x474 DUP2 DUP4 PUSH2 0x3F0 JUMP JUMPDEST PUSH1 0x40 DUP7 ADD MLOAD SWAP3 POP PUSH2 0xFFFF SWAP2 POP DUP2 DUP4 AND PUSH1 0x60 DUP7 ADD MSTORE PUSH4 0xFFFFFFFF PUSH1 0x60 DUP8 ADD MLOAD AND PUSH1 0x80 DUP7 ADD MSTORE DUP2 PUSH1 0x80 DUP8 ADD MLOAD AND PUSH1 0xA0 DUP7 ADD MSTORE DUP1 SWAP4 POP POP POP POP SWAP3 SWAP2 POP POP JUMP JUMPDEST SWAP1 DUP2 MSTORE PUSH1 0x20 ADD SWAP1 JUMP JUMPDEST PUSH1 0x40 MLOAD DUP2 DUP2 ADD PUSH8 0xFFFFFFFFFFFFFFFF DUP2 GT DUP3 DUP3 LT OR ISZERO PUSH2 0x4D8 JUMPI PUSH1 0x0 DUP1 REVERT JUMPDEST PUSH1 0x40 MSTORE SWAP2 SWAP1 POP JUMP JUMPDEST PUSH1 0x0 JUMPDEST DUP4 DUP2 LT ISZERO PUSH2 0x4FB JUMPI DUP2 DUP2 ADD MLOAD DUP4 DUP3 ADD MSTORE PUSH1 0x20 ADD PUSH2 0x4E3 JUMP JUMPDEST DUP4 DUP2 GT ISZERO PUSH2 0x50A JUMPI PUSH1 0x0 DUP5 DUP5 ADD MSTORE JUMPDEST POP POP POP POP JUMP JUMPDEST PUSH2 0xFFFF DUP2 AND DUP2 EQ PUSH2 0x520 JUMPI PUSH1 0x0 DUP1 REVERT JUMPDEST POP JUMP INVALID LOG2 PUSH5 0x6970667358 0x22 SLT KECCAK256 0x4E ADDRESS SWAP1 0xC4 0xBC 0xE7 LT 0x5C PUSH20 0xEA0A0ADBBEB541C83751A893AED005B073721A25 0xC1 0x24 0x49 PUSH5 0x736F6C6343 STOP MOD MOD STOP CALLER ","sha1":"6b0e7a61d1d61cc9888aa97b056628d038154206","source":"pragma solidity 0.6.6;\npragma experimental ABIEncoderV2;\n\ninterface CarCollectible{\n    struct Attr {\n        string brand;\n        string model;\n        uint16 year;\n        uint32 price;\n        uint16 iot_account;\n    }\n    function check_ownership(uint256 tokenId) external view returns (address);\n    function get_attributes(uint256 tokenId) external view returns(Attr memory attr);\n}\n\ncontract Insurance{\n\n    CarCollectible public cc_address;\n    CarCollectible.Attr attr;\n    address sender;\n\n    constructor () public\n    {\n        cc_address = CarCollectible(0x558f1f19CC21E1Fee2b6269E381A6Ba3765478A0);\n    }\n\n    function set_sender() external\n    {\n        sender = msg.sender;\n    }\n\n     function check_ownership(uint256 tokenId) external view returns (bool)\n     {\n        address owner = cc_address.check_ownership(tokenId);\n        if(owner==sender) {\n            return true;\n        } else {\n            return false;\n        }\n        //return sender;\n     }\n    \n    function get_metadata(uint256 tokenId) external view returns (CarCollectible.Attr memory attr)\n    {\n        return cc_address.get_attributes(tokenId);\n    }\n}","sourcePath":"contracts/Insurance.sol","type":"contract","deployment":{"address":"0xEa2dB2a7CF3c54b24dc9344078C6Ae718D419302","chainid":"4","blockHeight":10514238}}