{"abi":[{"inputs":[],"stateMutability":"nonpayable","type":"constructor","name":"constructor"},{"inputs":[],"name":"cc_address","outputs":[{"internalType":"contract CarCollectible","name":"","type":"address"}],"stateMutability":"view","type":"function"},{"inputs":[{"internalType":"uint256","name":"tokenId","type":"uint256"}],"name":"check_ownership","outputs":[{"internalType":"address","name":"","type":"address"}],"stateMutability":"view","type":"function"},{"inputs":[{"internalType":"address","name":"_address","type":"address"}],"name":"set_address","outputs":[],"stateMutability":"nonpayable","type":"function"}],"bytecode":"608060405234801561001057600080fd5b50600180546001600160a01b031916331790556101a1806100326000396000f3fe608060405234801561001057600080fd5b50600436106100415760003560e01c806309270ef414610046578063257565881461006e57806344909795146100a7575b600080fd5b61006c6004803603602081101561005c57600080fd5b50356001600160a01b03166100af565b005b61008b6004803603602081101561008457600080fd5b50356100d1565b604080516001600160a01b039092168252519081900360200190f35b61008b61015c565b600080546001600160a01b0319166001600160a01b0392909216919091179055565b60008054604080516304aeacb160e31b815260048101859052905183926001600160a01b0316916325756588916024808301926020929190829003018186803b15801561011d57600080fd5b505afa158015610131573d6000803e3d6000fd5b505050506040513d602081101561014757600080fd5b50506001546001600160a01b03169392505050565b6000546001600160a01b03168156fea2646970667358221220d1d4af4a27a9127a2fe8a6ab2adb1e32078526a1e0d58b210f66eedd072433f964736f6c63430006060033","bytecodeSha1":"5023b6b5a32daad52b5ed5095744826160e3fd7f","compiler":{"evm_version":"istanbul","optimizer":{"enabled":true,"runs":200},"version":"0.6.6+commit.6c089d02"},"contractName":"Insurance","language":"Solidity","natspec":{"methods":{}},"opcodes":"PUSH1 0x80 PUSH1 0x40 MSTORE CALLVALUE DUP1 ISZERO PUSH2 0x10 JUMPI PUSH1 0x0 DUP1 REVERT JUMPDEST POP PUSH1 0x4 CALLDATASIZE LT PUSH2 0x41 JUMPI PUSH1 0x0 CALLDATALOAD PUSH1 0xE0 SHR DUP1 PUSH4 0x9270EF4 EQ PUSH2 0x46 JUMPI DUP1 PUSH4 0x25756588 EQ PUSH2 0x6E JUMPI DUP1 PUSH4 0x44909795 EQ PUSH2 0xA7 JUMPI JUMPDEST PUSH1 0x0 DUP1 REVERT JUMPDEST PUSH2 0x6C PUSH1 0x4 DUP1 CALLDATASIZE SUB PUSH1 0x20 DUP2 LT ISZERO PUSH2 0x5C JUMPI PUSH1 0x0 DUP1 REVERT JUMPDEST POP CALLDATALOAD PUSH1 0x1 PUSH1 0x1 PUSH1 0xA0 SHL SUB AND PUSH2 0xAF JUMP JUMPDEST STOP JUMPDEST PUSH2 0x8B PUSH1 0x4 DUP1 CALLDATASIZE SUB PUSH1 0x20 DUP2 LT ISZERO PUSH2 0x84 JUMPI PUSH1 0x0 DUP1 REVERT JUMPDEST POP CALLDATALOAD PUSH2 0xD1 JUMP JUMPDEST PUSH1 0x40 DUP1 MLOAD PUSH1 0x1 PUSH1 0x1 PUSH1 0xA0 SHL SUB SWAP1 SWAP3 AND DUP3 MSTORE MLOAD SWAP1 DUP2 SWAP1 SUB PUSH1 0x20 ADD SWAP1 RETURN JUMPDEST PUSH2 0x8B PUSH2 0x15C JUMP JUMPDEST PUSH1 0x0 DUP1 SLOAD PUSH1 0x1 PUSH1 0x1 PUSH1 0xA0 SHL SUB NOT AND PUSH1 0x1 PUSH1 0x1 PUSH1 0xA0 SHL SUB SWAP3 SWAP1 SWAP3 AND SWAP2 SWAP1 SWAP2 OR SWAP1 SSTORE JUMP JUMPDEST PUSH1 0x0 DUP1 SLOAD PUSH1 0x40 DUP1 MLOAD PUSH4 0x4AEACB1 PUSH1 0xE3 SHL DUP2 MSTORE PUSH1 0x4 DUP2 ADD DUP6 SWAP1 MSTORE SWAP1 MLOAD DUP4 SWAP3 PUSH1 0x1 PUSH1 0x1 PUSH1 0xA0 SHL SUB AND SWAP2 PUSH4 0x25756588 SWAP2 PUSH1 0x24 DUP1 DUP4 ADD SWAP3 PUSH1 0x20 SWAP3 SWAP2 SWAP1 DUP3 SWAP1 SUB ADD DUP2 DUP7 DUP1 EXTCODESIZE ISZERO DUP1 ISZERO PUSH2 0x11D JUMPI PUSH1 0x0 DUP1 REVERT JUMPDEST POP GAS STATICCALL ISZERO DUP1 ISZERO PUSH2 0x131 JUMPI RETURNDATASIZE PUSH1 0x0 DUP1 RETURNDATACOPY RETURNDATASIZE PUSH1 0x0 REVERT JUMPDEST POP POP POP POP PUSH1 0x40 MLOAD RETURNDATASIZE PUSH1 0x20 DUP2 LT ISZERO PUSH2 0x147 JUMPI PUSH1 0x0 DUP1 REVERT JUMPDEST POP POP PUSH1 0x1 SLOAD PUSH1 0x1 PUSH1 0x1 PUSH1 0xA0 SHL SUB AND SWAP4 SWAP3 POP POP POP JUMP JUMPDEST PUSH1 0x0 SLOAD PUSH1 0x1 PUSH1 0x1 PUSH1 0xA0 SHL SUB AND DUP2 JUMP INVALID LOG2 PUSH5 0x6970667358 0x22 SLT KECCAK256 0xD1 0xD4 0xAF 0x4A 0x27 0xA9 SLT PUSH27 0x2FE8A6AB2ADB1E32078526A1E0D58B210F66EEDD072433F964736F PUSH13 0x63430006060033000000000000 ","sha1":"42b4c3686966e8cd8b31b00ced51e77b60e0adff","source":"pragma solidity 0.6.6;\n\ninterface CarCollectible{\n    function check_ownership(uint256 tokenId) external view returns (address);\n}\n\ncontract Insurance{\n\n    CarCollectible public cc_address;\n    address testVal;\n\n    constructor() public {\n        testVal= msg.sender;\n    }\n\n    function set_address(address _address) external {\n        cc_address = CarCollectible(_address);\n    }\n\n     function check_ownership(uint256 tokenId) external view returns (address)\n     {\n        address owner = cc_address.check_ownership(tokenId);\n        address sender = msg.sender;\n        // if(owner==sender) {\n        //     return true;\n        // } else {\n        //     return false;\n        // }\n        return testVal;\n     }\n}","sourcePath":"contracts/Insurance.sol","type":"contract","deployment":{"address":"0xfe0E3fA3445E33c1f321adAE35b63a6417554F33","chainid":"4","blockHeight":10508292}}