{"abi":[{"inputs":[],"stateMutability":"nonpayable","type":"constructor","name":"constructor"},{"anonymous":false,"inputs":[{"indexed":true,"internalType":"bytes32","name":"id","type":"bytes32"}],"name":"ChainlinkCancelled","type":"event"},{"anonymous":false,"inputs":[{"indexed":true,"internalType":"bytes32","name":"id","type":"bytes32"}],"name":"ChainlinkFulfilled","type":"event"},{"anonymous":false,"inputs":[{"indexed":true,"internalType":"bytes32","name":"id","type":"bytes32"}],"name":"ChainlinkRequested","type":"event"},{"anonymous":false,"inputs":[{"indexed":false,"internalType":"uint256","name":"code","type":"uint256"}],"name":"DataFullfilled","type":"event"},{"inputs":[],"name":"fee","outputs":[{"internalType":"uint256","name":"","type":"uint256"}],"stateMutability":"view","type":"function"},{"inputs":[{"internalType":"bytes32","name":"_requestId","type":"bytes32"}],"name":"getMapping","outputs":[{"internalType":"uint256","name":"tokenID","type":"uint256"}],"stateMutability":"view","type":"function"},{"inputs":[],"name":"jobId","outputs":[{"internalType":"bytes32","name":"","type":"bytes32"}],"stateMutability":"view","type":"function"},{"inputs":[],"name":"oracle","outputs":[{"internalType":"address","name":"","type":"address"}],"stateMutability":"view","type":"function"},{"inputs":[{"internalType":"bytes32","name":"","type":"bytes32"}],"name":"requestMapping","outputs":[{"internalType":"uint256","name":"","type":"uint256"}],"stateMutability":"view","type":"function"},{"inputs":[{"internalType":"address","name":"callBackContract","type":"address"},{"internalType":"bytes4","name":"selector","type":"bytes4"},{"internalType":"uint256","name":"tokenID","type":"uint256"}],"name":"requestVolumeData","outputs":[],"stateMutability":"nonpayable","type":"function"}],"bytecode":"6080604052600160045534801561001557600080fd5b50600280546001600160a01b03191673a36085f69e2889c224210f603d836748e7dc0088179055600680546001600160a01b03191673c57b33452b4f7bb189bb5afae9cc4aba1f7a4fd81790557f643532373064316333313139343164306230386265616432316665613737343760075567016345785d8a0000600855610c16806100a16000396000f3fe608060405234801561001057600080fd5b50600436106100625760003560e01c80637dc0d1d014610067578063a114f2b114610097578063c2939d97146100c5578063d4a08177146100ce578063ddca3f43146100e3578063e2c14bdd146100ec575b600080fd5b60065461007a906001600160a01b031681565b6040516001600160a01b0390911681526020015b60405180910390f35b6100b76100a5366004610895565b60096020526000908152604090205481565b60405190815260200161008e565b6100b760075481565b6100e16100dc3660046108ae565b61010c565b005b6100b760085481565b6100b76100fa366004610895565b60009081526009602052604090205490565b600061011b60075485856101f1565b905061015d6040518060400160405280600381526020016219d95d60ea1b8152506040518060a0016040528060648152602001610b7d60649139839190610216565b6101b9604051806040016040528060048152602001630e0c2e8d60e31b81525060405180604001604052806013815260200172646174612c302c776561746865722c636f646560681b815250836102169092919063ffffffff16565b6006546008546000916101d9916001600160a01b03909116908490610239565b60009081526009602052604090209290925550505050565b6101f961085a565b61020161085a565b61020d81868686610258565b95945050505050565b60808301516102259083610295565b60808301516102349082610295565b505050565b600061025084848460016320214ca360e11b6102ac565b949350505050565b61026061085a565b61027085608001516101006104ad565b50509183526001600160a01b031660208301526001600160e01b031916604082015290565b6102a28260038351610518565b61023482826105ec565b6004546040516bffffffffffffffffffffffff193060601b166020820152603481019190915260009060540160408051808303601f19018152918152815160209283012060045460608901526000818152600590935281832080546001600160a01b0319166001600160a01b038b16179055905190925082917fb5e6e01e79f91267dc17b4e6314d5d4d03593d2ceee0fbb452b750bd70ea5af991a2600082600080886000015189602001518a604001518b606001518a8d6080015160000151604051602401610383989796959493929190610955565b60408051601f198184030181529181526020820180516001600160e01b03166001600160e01b0319909416939093179092526002549151630200057560e51b81529092506001600160a01b0390911690634000aea0906103eb908a90899086906004016109bd565b6020604051808303816000875af115801561040a573d6000803e3d6000fd5b505050506040513d601f19601f8201168201806040525081019061042e91906109e4565b61048a5760405162461bcd60e51b815260206004820152602360248201527f756e61626c6520746f207472616e73666572416e6443616c6c20746f206f7261604482015262636c6560e81b606482015260840160405180910390fd5b60016004600082825461049d9190610a1c565b9091555091979650505050505050565b6040805180820190915260608152600060208201526104cd602083610a34565b156104f5576104dd602083610a34565b6104e8906020610a56565b6104f29083610a1c565b91505b506020808301829052604080518085526000815283019091019052815b92915050565b60178111610539576105338360e0600585901b16831761061a565b50505050565b60ff811161056357610556836018611fe0600586901b161761061a565b506105338382600161063f565b61ffff811161058e57610581836019611fe0600586901b161761061a565b506105338382600261063f565b63ffffffff81116105bb576105ae83601a611fe0600586901b161761061a565b506105338382600461063f565b67ffffffffffffffff8111610234576105df83601b611fe0600586901b161761061a565b506105338382600861063f565b60408051808201909152606081526000602082015261061383846000015151848551610665565b9392505050565b604080518082019091526060815260006020820152610613838460000151518461074f565b6040805180820190915260608152600060208201526102508485600001515185856107ab565b604080518082019091526060815260006020820152825182111561068857600080fd5b60208501516106978386610a1c565b11156106ca576106ca856106ba876020015187866106b59190610a1c565b61082c565b6106c5906002610a6d565b610843565b6000808651805187602083010193508088870111156106e95787860182525b505050602084015b602084106107295780518252610708602083610a1c565b9150610715602082610a1c565b9050610722602085610a56565b93506106f1565b51815160001960208690036101000a019081169019919091161790525083949350505050565b604080518082019091526060815260006020820152836020015183106107845761078484856020015160026106c59190610a6d565b8351805160208583010184815350808514156107a1576001810182525b5093949350505050565b60408051808201909152606081526000602082015260208501516107cf8584610a1c565b11156107e3576107e3856106ba8685610a1c565b600060016107f384610100610b70565b6107fd9190610a56565b90508551838682010185831982511617815250805184870111156108215783860181525b509495945050505050565b60008183111561083d575081610512565b50919050565b815161084f83836104ad565b5061053383826105ec565b6040805160a0810182526000808252602080830182905282840182905260608084018390528451808601909552845283015290608082015290565b6000602082840312156108a757600080fd5b5035919050565b6000806000606084860312156108c357600080fd5b83356001600160a01b03811681146108da57600080fd5b925060208401356001600160e01b0319811681146108f757600080fd5b929592945050506040919091013590565b6000815180845260005b8181101561092e57602081850181015186830182015201610912565b81811115610940576000602083870101525b50601f01601f19169290920160200192915050565b6001600160a01b0389811682526020820189905260408201889052861660608201526001600160e01b03198516608082015260a0810184905260c0810183905261010060e082018190526000906109ae83820185610908565b9b9a5050505050505050505050565b60018060a01b038416815282602082015260606040820152600061020d6060830184610908565b6000602082840312156109f657600080fd5b8151801515811461061357600080fd5b634e487b7160e01b600052601160045260246000fd5b60008219821115610a2f57610a2f610a06565b500190565b600082610a5157634e487b7160e01b600052601260045260246000fd5b500690565b600082821015610a6857610a68610a06565b500390565b6000816000190483118215151615610a8757610a87610a06565b500290565b600181815b80851115610ac7578160001904821115610aad57610aad610a06565b80851615610aba57918102915b93841c9390800290610a91565b509250929050565b600082610ade57506001610512565b81610aeb57506000610512565b8160018114610b015760028114610b0b57610b27565b6001915050610512565b60ff841115610b1c57610b1c610a06565b50506001821b610512565b5060208310610133831016604e8410600b8410161715610b4a575081810a610512565b610b548383610a8c565b8060001904821115610b6857610b68610a06565b029392505050565b60006106138383610acf56fe68747470733a2f2f6170692e776561746865726269742e696f2f76322e302f63757272656e743f6c61743d33352e37373936266c6f6e3d2d37382e36333832266b65793d3335623363323430636436333434306538336332393530363832346262363562a264697066735822122023c2968759e1d33720af5310d2490cea5cafe14ce8ec91ee15d8627793d98acb64736f6c634300080b0033","bytecodeSha1":"acaa4bcbee1fc3c2457a6947a4565915f476d1e9","compiler":{"evm_version":"istanbul","optimizer":{"enabled":true,"runs":200},"version":"0.8.11+commit.d7f03943"},"contractName":"APIConsumer","language":"Solidity","natspec":{"kind":"dev","methods":{},"version":1},"opcodes":"PUSH1 0x80 PUSH1 0x40 MSTORE CALLVALUE DUP1 ISZERO PUSH2 0x10 JUMPI PUSH1 0x0 DUP1 REVERT JUMPDEST POP PUSH1 0x4 CALLDATASIZE LT PUSH2 0x62 JUMPI PUSH1 0x0 CALLDATALOAD PUSH1 0xE0 SHR DUP1 PUSH4 0x7DC0D1D0 EQ PUSH2 0x67 JUMPI DUP1 PUSH4 0xA114F2B1 EQ PUSH2 0x97 JUMPI DUP1 PUSH4 0xC2939D97 EQ PUSH2 0xC5 JUMPI DUP1 PUSH4 0xD4A08177 EQ PUSH2 0xCE JUMPI DUP1 PUSH4 0xDDCA3F43 EQ PUSH2 0xE3 JUMPI DUP1 PUSH4 0xE2C14BDD EQ PUSH2 0xEC JUMPI JUMPDEST PUSH1 0x0 DUP1 REVERT JUMPDEST PUSH1 0x6 SLOAD PUSH2 0x7A SWAP1 PUSH1 0x1 PUSH1 0x1 PUSH1 0xA0 SHL SUB AND DUP2 JUMP JUMPDEST PUSH1 0x40 MLOAD PUSH1 0x1 PUSH1 0x1 PUSH1 0xA0 SHL SUB SWAP1 SWAP2 AND DUP2 MSTORE PUSH1 0x20 ADD JUMPDEST PUSH1 0x40 MLOAD DUP1 SWAP2 SUB SWAP1 RETURN JUMPDEST PUSH2 0xB7 PUSH2 0xA5 CALLDATASIZE PUSH1 0x4 PUSH2 0x895 JUMP JUMPDEST PUSH1 0x9 PUSH1 0x20 MSTORE PUSH1 0x0 SWAP1 DUP2 MSTORE PUSH1 0x40 SWAP1 KECCAK256 SLOAD DUP2 JUMP JUMPDEST PUSH1 0x40 MLOAD SWAP1 DUP2 MSTORE PUSH1 0x20 ADD PUSH2 0x8E JUMP JUMPDEST PUSH2 0xB7 PUSH1 0x7 SLOAD DUP2 JUMP JUMPDEST PUSH2 0xE1 PUSH2 0xDC CALLDATASIZE PUSH1 0x4 PUSH2 0x8AE JUMP JUMPDEST PUSH2 0x10C JUMP JUMPDEST STOP JUMPDEST PUSH2 0xB7 PUSH1 0x8 SLOAD DUP2 JUMP JUMPDEST PUSH2 0xB7 PUSH2 0xFA CALLDATASIZE PUSH1 0x4 PUSH2 0x895 JUMP JUMPDEST PUSH1 0x0 SWAP1 DUP2 MSTORE PUSH1 0x9 PUSH1 0x20 MSTORE PUSH1 0x40 SWAP1 KECCAK256 SLOAD SWAP1 JUMP JUMPDEST PUSH1 0x0 PUSH2 0x11B PUSH1 0x7 SLOAD DUP6 DUP6 PUSH2 0x1F1 JUMP JUMPDEST SWAP1 POP PUSH2 0x15D PUSH1 0x40 MLOAD DUP1 PUSH1 0x40 ADD PUSH1 0x40 MSTORE DUP1 PUSH1 0x3 DUP2 MSTORE PUSH1 0x20 ADD PUSH3 0x19D95D PUSH1 0xEA SHL DUP2 MSTORE POP PUSH1 0x40 MLOAD DUP1 PUSH1 0xA0 ADD PUSH1 0x40 MSTORE DUP1 PUSH1 0x64 DUP2 MSTORE PUSH1 0x20 ADD PUSH2 0xB7D PUSH1 0x64 SWAP2 CODECOPY DUP4 SWAP2 SWAP1 PUSH2 0x216 JUMP JUMPDEST PUSH2 0x1B9 PUSH1 0x40 MLOAD DUP1 PUSH1 0x40 ADD PUSH1 0x40 MSTORE DUP1 PUSH1 0x4 DUP2 MSTORE PUSH1 0x20 ADD PUSH4 0xE0C2E8D PUSH1 0xE3 SHL DUP2 MSTORE POP PUSH1 0x40 MLOAD DUP1 PUSH1 0x40 ADD PUSH1 0x40 MSTORE DUP1 PUSH1 0x13 DUP2 MSTORE PUSH1 0x20 ADD PUSH19 0x646174612C302C776561746865722C636F6465 PUSH1 0x68 SHL DUP2 MSTORE POP DUP4 PUSH2 0x216 SWAP1 SWAP3 SWAP2 SWAP1 PUSH4 0xFFFFFFFF AND JUMP JUMPDEST PUSH1 0x6 SLOAD PUSH1 0x8 SLOAD PUSH1 0x0 SWAP2 PUSH2 0x1D9 SWAP2 PUSH1 0x1 PUSH1 0x1 PUSH1 0xA0 SHL SUB SWAP1 SWAP2 AND SWAP1 DUP5 SWAP1 PUSH2 0x239 JUMP JUMPDEST PUSH1 0x0 SWAP1 DUP2 MSTORE PUSH1 0x9 PUSH1 0x20 MSTORE PUSH1 0x40 SWAP1 KECCAK256 SWAP3 SWAP1 SWAP3 SSTORE POP POP POP POP JUMP JUMPDEST PUSH2 0x1F9 PUSH2 0x85A JUMP JUMPDEST PUSH2 0x201 PUSH2 0x85A JUMP JUMPDEST PUSH2 0x20D DUP2 DUP7 DUP7 DUP7 PUSH2 0x258 JUMP JUMPDEST SWAP6 SWAP5 POP POP POP POP POP JUMP JUMPDEST PUSH1 0x80 DUP4 ADD MLOAD PUSH2 0x225 SWAP1 DUP4 PUSH2 0x295 JUMP JUMPDEST PUSH1 0x80 DUP4 ADD MLOAD PUSH2 0x234 SWAP1 DUP3 PUSH2 0x295 JUMP JUMPDEST POP POP POP JUMP JUMPDEST PUSH1 0x0 PUSH2 0x250 DUP5 DUP5 DUP5 PUSH1 0x1 PUSH4 0x20214CA3 PUSH1 0xE1 SHL PUSH2 0x2AC JUMP JUMPDEST SWAP5 SWAP4 POP POP POP POP JUMP JUMPDEST PUSH2 0x260 PUSH2 0x85A JUMP JUMPDEST PUSH2 0x270 DUP6 PUSH1 0x80 ADD MLOAD PUSH2 0x100 PUSH2 0x4AD JUMP JUMPDEST POP POP SWAP2 DUP4 MSTORE PUSH1 0x1 PUSH1 0x1 PUSH1 0xA0 SHL SUB AND PUSH1 0x20 DUP4 ADD MSTORE PUSH1 0x1 PUSH1 0x1 PUSH1 0xE0 SHL SUB NOT AND PUSH1 0x40 DUP3 ADD MSTORE SWAP1 JUMP JUMPDEST PUSH2 0x2A2 DUP3 PUSH1 0x3 DUP4 MLOAD PUSH2 0x518 JUMP JUMPDEST PUSH2 0x234 DUP3 DUP3 PUSH2 0x5EC JUMP JUMPDEST PUSH1 0x4 SLOAD PUSH1 0x40 MLOAD PUSH12 0xFFFFFFFFFFFFFFFFFFFFFFFF NOT ADDRESS PUSH1 0x60 SHL AND PUSH1 0x20 DUP3 ADD MSTORE PUSH1 0x34 DUP2 ADD SWAP2 SWAP1 SWAP2 MSTORE PUSH1 0x0 SWAP1 PUSH1 0x54 ADD PUSH1 0x40 DUP1 MLOAD DUP1 DUP4 SUB PUSH1 0x1F NOT ADD DUP2 MSTORE SWAP2 DUP2 MSTORE DUP2 MLOAD PUSH1 0x20 SWAP3 DUP4 ADD KECCAK256 PUSH1 0x4 SLOAD PUSH1 0x60 DUP10 ADD MSTORE PUSH1 0x0 DUP2 DUP2 MSTORE PUSH1 0x5 SWAP1 SWAP4 MSTORE DUP2 DUP4 KECCAK256 DUP1 SLOAD PUSH1 0x1 PUSH1 0x1 PUSH1 0xA0 SHL SUB NOT AND PUSH1 0x1 PUSH1 0x1 PUSH1 0xA0 SHL SUB DUP12 AND OR SWAP1 SSTORE SWAP1 MLOAD SWAP1 SWAP3 POP DUP3 SWAP2 PUSH32 0xB5E6E01E79F91267DC17B4E6314D5D4D03593D2CEEE0FBB452B750BD70EA5AF9 SWAP2 LOG2 PUSH1 0x0 DUP3 PUSH1 0x0 DUP1 DUP9 PUSH1 0x0 ADD MLOAD DUP10 PUSH1 0x20 ADD MLOAD DUP11 PUSH1 0x40 ADD MLOAD DUP12 PUSH1 0x60 ADD MLOAD DUP11 DUP14 PUSH1 0x80 ADD MLOAD PUSH1 0x0 ADD MLOAD PUSH1 0x40 MLOAD PUSH1 0x24 ADD PUSH2 0x383 SWAP9 SWAP8 SWAP7 SWAP6 SWAP5 SWAP4 SWAP3 SWAP2 SWAP1 PUSH2 0x955 JUMP JUMPDEST PUSH1 0x40 DUP1 MLOAD PUSH1 0x1F NOT DUP2 DUP5 SUB ADD DUP2 MSTORE SWAP2 DUP2 MSTORE PUSH1 0x20 DUP3 ADD DUP1 MLOAD PUSH1 0x1 PUSH1 0x1 PUSH1 0xE0 SHL SUB AND PUSH1 0x1 PUSH1 0x1 PUSH1 0xE0 SHL SUB NOT SWAP1 SWAP5 AND SWAP4 SWAP1 SWAP4 OR SWAP1 SWAP3 MSTORE PUSH1 0x2 SLOAD SWAP2 MLOAD PUSH4 0x2000575 PUSH1 0xE5 SHL DUP2 MSTORE SWAP1 SWAP3 POP PUSH1 0x1 PUSH1 0x1 PUSH1 0xA0 SHL SUB SWAP1 SWAP2 AND SWAP1 PUSH4 0x4000AEA0 SWAP1 PUSH2 0x3EB SWAP1 DUP11 SWAP1 DUP10 SWAP1 DUP7 SWAP1 PUSH1 0x4 ADD PUSH2 0x9BD JUMP JUMPDEST PUSH1 0x20 PUSH1 0x40 MLOAD DUP1 DUP4 SUB DUP2 PUSH1 0x0 DUP8 GAS CALL ISZERO DUP1 ISZERO PUSH2 0x40A JUMPI RETURNDATASIZE PUSH1 0x0 DUP1 RETURNDATACOPY RETURNDATASIZE PUSH1 0x0 REVERT JUMPDEST POP POP POP POP PUSH1 0x40 MLOAD RETURNDATASIZE PUSH1 0x1F NOT PUSH1 0x1F DUP3 ADD AND DUP3 ADD DUP1 PUSH1 0x40 MSTORE POP DUP2 ADD SWAP1 PUSH2 0x42E SWAP2 SWAP1 PUSH2 0x9E4 JUMP JUMPDEST PUSH2 0x48A JUMPI PUSH1 0x40 MLOAD PUSH3 0x461BCD PUSH1 0xE5 SHL DUP2 MSTORE PUSH1 0x20 PUSH1 0x4 DUP3 ADD MSTORE PUSH1 0x23 PUSH1 0x24 DUP3 ADD MSTORE PUSH32 0x756E61626C6520746F207472616E73666572416E6443616C6C20746F206F7261 PUSH1 0x44 DUP3 ADD MSTORE PUSH3 0x636C65 PUSH1 0xE8 SHL PUSH1 0x64 DUP3 ADD MSTORE PUSH1 0x84 ADD PUSH1 0x40 MLOAD DUP1 SWAP2 SUB SWAP1 REVERT JUMPDEST PUSH1 0x1 PUSH1 0x4 PUSH1 0x0 DUP3 DUP3 SLOAD PUSH2 0x49D SWAP2 SWAP1 PUSH2 0xA1C JUMP JUMPDEST SWAP1 SWAP2 SSTORE POP SWAP2 SWAP8 SWAP7 POP POP POP POP POP POP POP JUMP JUMPDEST PUSH1 0x40 DUP1 MLOAD DUP1 DUP3 ADD SWAP1 SWAP2 MSTORE PUSH1 0x60 DUP2 MSTORE PUSH1 0x0 PUSH1 0x20 DUP3 ADD MSTORE PUSH2 0x4CD PUSH1 0x20 DUP4 PUSH2 0xA34 JUMP JUMPDEST ISZERO PUSH2 0x4F5 JUMPI PUSH2 0x4DD PUSH1 0x20 DUP4 PUSH2 0xA34 JUMP JUMPDEST PUSH2 0x4E8 SWAP1 PUSH1 0x20 PUSH2 0xA56 JUMP JUMPDEST PUSH2 0x4F2 SWAP1 DUP4 PUSH2 0xA1C JUMP JUMPDEST SWAP2 POP JUMPDEST POP PUSH1 0x20 DUP1 DUP4 ADD DUP3 SWAP1 MSTORE PUSH1 0x40 DUP1 MLOAD DUP1 DUP6 MSTORE PUSH1 0x0 DUP2 MSTORE DUP4 ADD SWAP1 SWAP2 ADD SWAP1 MSTORE DUP2 JUMPDEST SWAP3 SWAP2 POP POP JUMP JUMPDEST PUSH1 0x17 DUP2 GT PUSH2 0x539 JUMPI PUSH2 0x533 DUP4 PUSH1 0xE0 PUSH1 0x5 DUP6 SWAP1 SHL AND DUP4 OR PUSH2 0x61A JUMP JUMPDEST POP POP POP POP JUMP JUMPDEST PUSH1 0xFF DUP2 GT PUSH2 0x563 JUMPI PUSH2 0x556 DUP4 PUSH1 0x18 PUSH2 0x1FE0 PUSH1 0x5 DUP7 SWAP1 SHL AND OR PUSH2 0x61A JUMP JUMPDEST POP PUSH2 0x533 DUP4 DUP3 PUSH1 0x1 PUSH2 0x63F JUMP JUMPDEST PUSH2 0xFFFF DUP2 GT PUSH2 0x58E JUMPI PUSH2 0x581 DUP4 PUSH1 0x19 PUSH2 0x1FE0 PUSH1 0x5 DUP7 SWAP1 SHL AND OR PUSH2 0x61A JUMP JUMPDEST POP PUSH2 0x533 DUP4 DUP3 PUSH1 0x2 PUSH2 0x63F JUMP JUMPDEST PUSH4 0xFFFFFFFF DUP2 GT PUSH2 0x5BB JUMPI PUSH2 0x5AE DUP4 PUSH1 0x1A PUSH2 0x1FE0 PUSH1 0x5 DUP7 SWAP1 SHL AND OR PUSH2 0x61A JUMP JUMPDEST POP PUSH2 0x533 DUP4 DUP3 PUSH1 0x4 PUSH2 0x63F JUMP JUMPDEST PUSH8 0xFFFFFFFFFFFFFFFF DUP2 GT PUSH2 0x234 JUMPI PUSH2 0x5DF DUP4 PUSH1 0x1B PUSH2 0x1FE0 PUSH1 0x5 DUP7 SWAP1 SHL AND OR PUSH2 0x61A JUMP JUMPDEST POP PUSH2 0x533 DUP4 DUP3 PUSH1 0x8 PUSH2 0x63F JUMP JUMPDEST PUSH1 0x40 DUP1 MLOAD DUP1 DUP3 ADD SWAP1 SWAP2 MSTORE PUSH1 0x60 DUP2 MSTORE PUSH1 0x0 PUSH1 0x20 DUP3 ADD MSTORE PUSH2 0x613 DUP4 DUP5 PUSH1 0x0 ADD MLOAD MLOAD DUP5 DUP6 MLOAD PUSH2 0x665 JUMP JUMPDEST SWAP4 SWAP3 POP POP POP JUMP JUMPDEST PUSH1 0x40 DUP1 MLOAD DUP1 DUP3 ADD SWAP1 SWAP2 MSTORE PUSH1 0x60 DUP2 MSTORE PUSH1 0x0 PUSH1 0x20 DUP3 ADD MSTORE PUSH2 0x613 DUP4 DUP5 PUSH1 0x0 ADD MLOAD MLOAD DUP5 PUSH2 0x74F JUMP JUMPDEST PUSH1 0x40 DUP1 MLOAD DUP1 DUP3 ADD SWAP1 SWAP2 MSTORE PUSH1 0x60 DUP2 MSTORE PUSH1 0x0 PUSH1 0x20 DUP3 ADD MSTORE PUSH2 0x250 DUP5 DUP6 PUSH1 0x0 ADD MLOAD MLOAD DUP6 DUP6 PUSH2 0x7AB JUMP JUMPDEST PUSH1 0x40 DUP1 MLOAD DUP1 DUP3 ADD SWAP1 SWAP2 MSTORE PUSH1 0x60 DUP2 MSTORE PUSH1 0x0 PUSH1 0x20 DUP3 ADD MSTORE DUP3 MLOAD DUP3 GT ISZERO PUSH2 0x688 JUMPI PUSH1 0x0 DUP1 REVERT JUMPDEST PUSH1 0x20 DUP6 ADD MLOAD PUSH2 0x697 DUP4 DUP7 PUSH2 0xA1C JUMP JUMPDEST GT ISZERO PUSH2 0x6CA JUMPI PUSH2 0x6CA DUP6 PUSH2 0x6BA DUP8 PUSH1 0x20 ADD MLOAD DUP8 DUP7 PUSH2 0x6B5 SWAP2 SWAP1 PUSH2 0xA1C JUMP JUMPDEST PUSH2 0x82C JUMP JUMPDEST PUSH2 0x6C5 SWAP1 PUSH1 0x2 PUSH2 0xA6D JUMP JUMPDEST PUSH2 0x843 JUMP JUMPDEST PUSH1 0x0 DUP1 DUP7 MLOAD DUP1 MLOAD DUP8 PUSH1 0x20 DUP4 ADD ADD SWAP4 POP DUP1 DUP9 DUP8 ADD GT ISZERO PUSH2 0x6E9 JUMPI DUP8 DUP7 ADD DUP3 MSTORE JUMPDEST POP POP POP PUSH1 0x20 DUP5 ADD JUMPDEST PUSH1 0x20 DUP5 LT PUSH2 0x729 JUMPI DUP1 MLOAD DUP3 MSTORE PUSH2 0x708 PUSH1 0x20 DUP4 PUSH2 0xA1C JUMP JUMPDEST SWAP2 POP PUSH2 0x715 PUSH1 0x20 DUP3 PUSH2 0xA1C JUMP JUMPDEST SWAP1 POP PUSH2 0x722 PUSH1 0x20 DUP6 PUSH2 0xA56 JUMP JUMPDEST SWAP4 POP PUSH2 0x6F1 JUMP JUMPDEST MLOAD DUP2 MLOAD PUSH1 0x0 NOT PUSH1 0x20 DUP7 SWAP1 SUB PUSH2 0x100 EXP ADD SWAP1 DUP2 AND SWAP1 NOT SWAP2 SWAP1 SWAP2 AND OR SWAP1 MSTORE POP DUP4 SWAP5 SWAP4 POP POP POP POP JUMP JUMPDEST PUSH1 0x40 DUP1 MLOAD DUP1 DUP3 ADD SWAP1 SWAP2 MSTORE PUSH1 0x60 DUP2 MSTORE PUSH1 0x0 PUSH1 0x20 DUP3 ADD MSTORE DUP4 PUSH1 0x20 ADD MLOAD DUP4 LT PUSH2 0x784 JUMPI PUSH2 0x784 DUP5 DUP6 PUSH1 0x20 ADD MLOAD PUSH1 0x2 PUSH2 0x6C5 SWAP2 SWAP1 PUSH2 0xA6D JUMP JUMPDEST DUP4 MLOAD DUP1 MLOAD PUSH1 0x20 DUP6 DUP4 ADD ADD DUP5 DUP2 MSTORE8 POP DUP1 DUP6 EQ ISZERO PUSH2 0x7A1 JUMPI PUSH1 0x1 DUP2 ADD DUP3 MSTORE JUMPDEST POP SWAP4 SWAP5 SWAP4 POP POP POP POP JUMP JUMPDEST PUSH1 0x40 DUP1 MLOAD DUP1 DUP3 ADD SWAP1 SWAP2 MSTORE PUSH1 0x60 DUP2 MSTORE PUSH1 0x0 PUSH1 0x20 DUP3 ADD MSTORE PUSH1 0x20 DUP6 ADD MLOAD PUSH2 0x7CF DUP6 DUP5 PUSH2 0xA1C JUMP JUMPDEST GT ISZERO PUSH2 0x7E3 JUMPI PUSH2 0x7E3 DUP6 PUSH2 0x6BA DUP7 DUP6 PUSH2 0xA1C JUMP JUMPDEST PUSH1 0x0 PUSH1 0x1 PUSH2 0x7F3 DUP5 PUSH2 0x100 PUSH2 0xB70 JUMP JUMPDEST PUSH2 0x7FD SWAP2 SWAP1 PUSH2 0xA56 JUMP JUMPDEST SWAP1 POP DUP6 MLOAD DUP4 DUP7 DUP3 ADD ADD DUP6 DUP4 NOT DUP3 MLOAD AND OR DUP2 MSTORE POP DUP1 MLOAD DUP5 DUP8 ADD GT ISZERO PUSH2 0x821 JUMPI DUP4 DUP7 ADD DUP2 MSTORE JUMPDEST POP SWAP5 SWAP6 SWAP5 POP POP POP POP POP JUMP JUMPDEST PUSH1 0x0 DUP2 DUP4 GT ISZERO PUSH2 0x83D JUMPI POP DUP2 PUSH2 0x512 JUMP JUMPDEST POP SWAP2 SWAP1 POP JUMP JUMPDEST DUP2 MLOAD PUSH2 0x84F DUP4 DUP4 PUSH2 0x4AD JUMP JUMPDEST POP PUSH2 0x533 DUP4 DUP3 PUSH2 0x5EC JUMP JUMPDEST PUSH1 0x40 DUP1 MLOAD PUSH1 0xA0 DUP2 ADD DUP3 MSTORE PUSH1 0x0 DUP1 DUP3 MSTORE PUSH1 0x20 DUP1 DUP4 ADD DUP3 SWAP1 MSTORE DUP3 DUP5 ADD DUP3 SWAP1 MSTORE PUSH1 0x60 DUP1 DUP5 ADD DUP4 SWAP1 MSTORE DUP5 MLOAD DUP1 DUP7 ADD SWAP1 SWAP6 MSTORE DUP5 MSTORE DUP4 ADD MSTORE SWAP1 PUSH1 0x80 DUP3 ADD MSTORE SWAP1 JUMP JUMPDEST PUSH1 0x0 PUSH1 0x20 DUP3 DUP5 SUB SLT ISZERO PUSH2 0x8A7 JUMPI PUSH1 0x0 DUP1 REVERT JUMPDEST POP CALLDATALOAD SWAP2 SWAP1 POP JUMP JUMPDEST PUSH1 0x0 DUP1 PUSH1 0x0 PUSH1 0x60 DUP5 DUP7 SUB SLT ISZERO PUSH2 0x8C3 JUMPI PUSH1 0x0 DUP1 REVERT JUMPDEST DUP4 CALLDATALOAD PUSH1 0x1 PUSH1 0x1 PUSH1 0xA0 SHL SUB DUP2 AND DUP2 EQ PUSH2 0x8DA JUMPI PUSH1 0x0 DUP1 REVERT JUMPDEST SWAP3 POP PUSH1 0x20 DUP5 ADD CALLDATALOAD PUSH1 0x1 PUSH1 0x1 PUSH1 0xE0 SHL SUB NOT DUP2 AND DUP2 EQ PUSH2 0x8F7 JUMPI PUSH1 0x0 DUP1 REVERT JUMPDEST SWAP3 SWAP6 SWAP3 SWAP5 POP POP POP PUSH1 0x40 SWAP2 SWAP1 SWAP2 ADD CALLDATALOAD SWAP1 JUMP JUMPDEST PUSH1 0x0 DUP2 MLOAD DUP1 DUP5 MSTORE PUSH1 0x0 JUMPDEST DUP2 DUP2 LT ISZERO PUSH2 0x92E JUMPI PUSH1 0x20 DUP2 DUP6 ADD DUP2 ADD MLOAD DUP7 DUP4 ADD DUP3 ADD MSTORE ADD PUSH2 0x912 JUMP JUMPDEST DUP2 DUP2 GT ISZERO PUSH2 0x940 JUMPI PUSH1 0x0 PUSH1 0x20 DUP4 DUP8 ADD ADD MSTORE JUMPDEST POP PUSH1 0x1F ADD PUSH1 0x1F NOT AND SWAP3 SWAP1 SWAP3 ADD PUSH1 0x20 ADD SWAP3 SWAP2 POP POP JUMP JUMPDEST PUSH1 0x1 PUSH1 0x1 PUSH1 0xA0 SHL SUB DUP10 DUP2 AND DUP3 MSTORE PUSH1 0x20 DUP3 ADD DUP10 SWAP1 MSTORE PUSH1 0x40 DUP3 ADD DUP9 SWAP1 MSTORE DUP7 AND PUSH1 0x60 DUP3 ADD MSTORE PUSH1 0x1 PUSH1 0x1 PUSH1 0xE0 SHL SUB NOT DUP6 AND PUSH1 0x80 DUP3 ADD MSTORE PUSH1 0xA0 DUP2 ADD DUP5 SWAP1 MSTORE PUSH1 0xC0 DUP2 ADD DUP4 SWAP1 MSTORE PUSH2 0x100 PUSH1 0xE0 DUP3 ADD DUP2 SWAP1 MSTORE PUSH1 0x0 SWAP1 PUSH2 0x9AE DUP4 DUP3 ADD DUP6 PUSH2 0x908 JUMP JUMPDEST SWAP12 SWAP11 POP POP POP POP POP POP POP POP POP POP POP JUMP JUMPDEST PUSH1 0x1 DUP1 PUSH1 0xA0 SHL SUB DUP5 AND DUP2 MSTORE DUP3 PUSH1 0x20 DUP3 ADD MSTORE PUSH1 0x60 PUSH1 0x40 DUP3 ADD MSTORE PUSH1 0x0 PUSH2 0x20D PUSH1 0x60 DUP4 ADD DUP5 PUSH2 0x908 JUMP JUMPDEST PUSH1 0x0 PUSH1 0x20 DUP3 DUP5 SUB SLT ISZERO PUSH2 0x9F6 JUMPI PUSH1 0x0 DUP1 REVERT JUMPDEST DUP2 MLOAD DUP1 ISZERO ISZERO DUP2 EQ PUSH2 0x613 JUMPI PUSH1 0x0 DUP1 REVERT JUMPDEST PUSH4 0x4E487B71 PUSH1 0xE0 SHL PUSH1 0x0 MSTORE PUSH1 0x11 PUSH1 0x4 MSTORE PUSH1 0x24 PUSH1 0x0 REVERT JUMPDEST PUSH1 0x0 DUP3 NOT DUP3 GT ISZERO PUSH2 0xA2F JUMPI PUSH2 0xA2F PUSH2 0xA06 JUMP JUMPDEST POP ADD SWAP1 JUMP JUMPDEST PUSH1 0x0 DUP3 PUSH2 0xA51 JUMPI PUSH4 0x4E487B71 PUSH1 0xE0 SHL PUSH1 0x0 MSTORE PUSH1 0x12 PUSH1 0x4 MSTORE PUSH1 0x24 PUSH1 0x0 REVERT JUMPDEST POP MOD SWAP1 JUMP JUMPDEST PUSH1 0x0 DUP3 DUP3 LT ISZERO PUSH2 0xA68 JUMPI PUSH2 0xA68 PUSH2 0xA06 JUMP JUMPDEST POP SUB SWAP1 JUMP JUMPDEST PUSH1 0x0 DUP2 PUSH1 0x0 NOT DIV DUP4 GT DUP3 ISZERO ISZERO AND ISZERO PUSH2 0xA87 JUMPI PUSH2 0xA87 PUSH2 0xA06 JUMP JUMPDEST POP MUL SWAP1 JUMP JUMPDEST PUSH1 0x1 DUP2 DUP2 JUMPDEST DUP1 DUP6 GT ISZERO PUSH2 0xAC7 JUMPI DUP2 PUSH1 0x0 NOT DIV DUP3 GT ISZERO PUSH2 0xAAD JUMPI PUSH2 0xAAD PUSH2 0xA06 JUMP JUMPDEST DUP1 DUP6 AND ISZERO PUSH2 0xABA JUMPI SWAP2 DUP2 MUL SWAP2 JUMPDEST SWAP4 DUP5 SHR SWAP4 SWAP1 DUP1 MUL SWAP1 PUSH2 0xA91 JUMP JUMPDEST POP SWAP3 POP SWAP3 SWAP1 POP JUMP JUMPDEST PUSH1 0x0 DUP3 PUSH2 0xADE JUMPI POP PUSH1 0x1 PUSH2 0x512 JUMP JUMPDEST DUP2 PUSH2 0xAEB JUMPI POP PUSH1 0x0 PUSH2 0x512 JUMP JUMPDEST DUP2 PUSH1 0x1 DUP2 EQ PUSH2 0xB01 JUMPI PUSH1 0x2 DUP2 EQ PUSH2 0xB0B JUMPI PUSH2 0xB27 JUMP JUMPDEST PUSH1 0x1 SWAP2 POP POP PUSH2 0x512 JUMP JUMPDEST PUSH1 0xFF DUP5 GT ISZERO PUSH2 0xB1C JUMPI PUSH2 0xB1C PUSH2 0xA06 JUMP JUMPDEST POP POP PUSH1 0x1 DUP3 SHL PUSH2 0x512 JUMP JUMPDEST POP PUSH1 0x20 DUP4 LT PUSH2 0x133 DUP4 LT AND PUSH1 0x4E DUP5 LT PUSH1 0xB DUP5 LT AND OR ISZERO PUSH2 0xB4A JUMPI POP DUP2 DUP2 EXP PUSH2 0x512 JUMP JUMPDEST PUSH2 0xB54 DUP4 DUP4 PUSH2 0xA8C JUMP JUMPDEST DUP1 PUSH1 0x0 NOT DIV DUP3 GT ISZERO PUSH2 0xB68 JUMPI PUSH2 0xB68 PUSH2 0xA06 JUMP JUMPDEST MUL SWAP4 SWAP3 POP POP POP JUMP JUMPDEST PUSH1 0x0 PUSH2 0x613 DUP4 DUP4 PUSH2 0xACF JUMP INVALID PUSH9 0x747470733A2F2F6170 PUSH10 0x2E776561746865726269 PUSH21 0x2E696F2F76322E302F63757272656E743F6C61743D CALLER CALLDATALOAD 0x2E CALLDATACOPY CALLDATACOPY CODECOPY CALLDATASIZE 0x26 PUSH13 0x6F6E3D2D37382E36333832266B PUSH6 0x793D33356233 PUSH4 0x32343063 PUSH5 0x3633343430 PUSH6 0x383363323935 ADDRESS CALLDATASIZE CODESIZE ORIGIN CALLVALUE PUSH3 0x623635 PUSH3 0xA26469 PUSH17 0x66735822122023C2968759E1D33720AF53 LT 0xD2 0x49 0xC 0xEA 0x5C 0xAF 0xE1 0x4C 0xE8 0xEC SWAP2 0xEE ISZERO 0xD8 PUSH3 0x7793D9 DUP11 0xCB PUSH5 0x736F6C6343 STOP ADDMOD SIGNEXTEND STOP CALLER ","sha1":"07e95bee69838904000f44a5834f5df3af894ea0","source":"// SPDX-License-Identifier: MIT\npragma solidity ^0.8.0;\n\nimport \"@chainlink/contracts/src/v0.8/ChainlinkClient.sol\";\n\ncontract APIConsumer is ChainlinkClient {\n    using Chainlink for Chainlink.Request;\n\n    address public oracle;\n    bytes32 public jobId;\n    uint256 public fee;\n\n    event DataFullfilled(uint256 code);\n\n    mapping (bytes32 => uint) public requestMapping;\n    \n    constructor() {\n        \n        setChainlinkToken(0xa36085F69e2889c224210F603D836748e7dC0088);      // Kovan Test Netzwerk Adresse\n        \n        oracle = 0xc57B33452b4F7BB189bB5AfaE9cc4aBa1f7a4FD8;                // API Oracle\n        jobId = \"d5270d1c311941d0b08bead21fea7747\";                         // Job für uint256 Datentyp\n        fee = 100000000000000000;                                           // 1 Link Gebühr\n    }\n    \n    function requestVolumeData(address callBackContract, bytes4 selector, uint256 tokenID) external\n    {\n        Chainlink.Request memory request = buildChainlinkRequest(jobId, callBackContract, selector);\n        \n        // Set the URL to perform the GET request on\n        request.add(\"get\", \"https://api.weatherbit.io/v2.0/current?lat=35.7796&lon=-78.6382&key=35b3c240cd63440e83c29506824bb65b\");\n        \n        request.add(\"path\", \"data,0,weather,code\");\n        \n        // Sends the request\n        bytes32 requestId = sendChainlinkRequestTo(oracle, request, fee);\n        requestMapping[requestId] = tokenID;\n    }\n\n    function getMapping(bytes32 _requestId) external view returns(uint256 tokenID)\n    {\n        return requestMapping[_requestId];\n    } \n}\n","sourcePath":"contracts/APIConsumer.sol","type":"contract","deployment":{"address":"0x4fB7556D0D3651415f7143D3ea26195CFBd1ecb6","chainid":"42","blockHeight":31864454}}