{"abi":[{"inputs":[],"stateMutability":"nonpayable","type":"constructor","name":"constructor"},{"anonymous":false,"inputs":[{"indexed":true,"internalType":"bytes32","name":"id","type":"bytes32"}],"name":"ChainlinkCancelled","type":"event"},{"anonymous":false,"inputs":[{"indexed":true,"internalType":"bytes32","name":"id","type":"bytes32"}],"name":"ChainlinkFulfilled","type":"event"},{"anonymous":false,"inputs":[{"indexed":true,"internalType":"bytes32","name":"id","type":"bytes32"}],"name":"ChainlinkRequested","type":"event"},{"anonymous":false,"inputs":[{"indexed":false,"internalType":"uint256","name":"code","type":"uint256"}],"name":"DataFullfilled","type":"event"},{"inputs":[],"name":"code","outputs":[{"internalType":"uint256","name":"","type":"uint256"}],"stateMutability":"view","type":"function"},{"inputs":[],"name":"fee","outputs":[{"internalType":"uint256","name":"","type":"uint256"}],"stateMutability":"view","type":"function"},{"inputs":[{"internalType":"bytes32","name":"_requestId","type":"bytes32"},{"internalType":"uint256","name":"_code","type":"uint256"}],"name":"fulfill","outputs":[],"stateMutability":"nonpayable","type":"function"},{"inputs":[],"name":"jobId","outputs":[{"internalType":"bytes32","name":"","type":"bytes32"}],"stateMutability":"view","type":"function"},{"inputs":[],"name":"oracle","outputs":[{"internalType":"address","name":"","type":"address"}],"stateMutability":"view","type":"function"},{"inputs":[],"name":"requestVolumeData","outputs":[{"internalType":"bytes32","name":"requestId","type":"bytes32"}],"stateMutability":"nonpayable","type":"function"}],"bytecode":"6080604052600160045534801561001557600080fd5b50600280546001600160a01b03191673a36085f69e2889c224210f603d836748e7dc0088179055600780546001600160a01b03191673c57b33452b4f7bb189bb5afae9cc4aba1f7a4fd81790557f643532373064316333313139343164306230386265616432316665613737343760085567016345785d8a0000600955610c4b806100a16000396000f3fe608060405234801561001057600080fd5b50600436106100625760003560e01c806324c12bf6146100675780634357855e146100835780636021abac146100985780637dc0d1d0146100a0578063c2939d97146100cb578063ddca3f43146100d4575b600080fd5b61007060065481565b6040519081526020015b60405180910390f35b61009661009136600461091b565b6100dd565b005b6100706101a5565b6007546100b3906001600160a01b031681565b6040516001600160a01b03909116815260200161007a565b61007060085481565b61007060095481565b60008281526005602052604090205482906001600160a01b0316331461015b5760405162461bcd60e51b815260206004820152602860248201527f536f75726365206d75737420626520746865206f7261636c65206f6620746865604482015267081c995c5d595cdd60c21b60648201526084015b60405180910390fd5b60008181526005602052604080822080546001600160a01b03191690555182917f7cc135e0cebb02c3480ae5d74d377283180a2601f8f644edf7987b009316c63a91a25060065550565b6000806101bc60085430634357855e60e01b61027b565b90506101fe6040518060400160405280600381526020016219d95d60ea1b8152506040518060a0016040528060648152602001610bb2606491398391906102a0565b61025a604051806040016040528060048152602001630e0c2e8d60e31b81525060405180604001604052806013815260200172646174612c302c776561746865722c636f646560681b815250836102a09092919063ffffffff16565b600754600954610275916001600160a01b03169083906102c3565b91505090565b6102836108e0565b61028b6108e0565b610297818686866102e2565b95945050505050565b60808301516102af908361031f565b60808301516102be908261031f565b505050565b60006102da84848460016320214ca360e11b610336565b949350505050565b6102ea6108e0565b6102fa8560800151610100610533565b50509183526001600160a01b031660208301526001600160e01b031916604082015290565b61032c826003835161059e565b6102be8282610672565b6004546040516bffffffffffffffffffffffff193060601b166020820152603481019190915260009060540160408051808303601f19018152918152815160209283012060045460608901526000818152600590935281832080546001600160a01b0319166001600160a01b038b16179055905190925082917fb5e6e01e79f91267dc17b4e6314d5d4d03593d2ceee0fbb452b750bd70ea5af991a2600082600080886000015189602001518a604001518b606001518a8d608001516000015160405160240161040d98979695949392919061098a565b60408051601f198184030181529181526020820180516001600160e01b03166001600160e01b0319909416939093179092526002549151630200057560e51b81529092506001600160a01b0390911690634000aea090610475908a90899086906004016109f2565b6020604051808303816000875af1158015610494573d6000803e3d6000fd5b505050506040513d601f19601f820116820180604052508101906104b89190610a19565b6105105760405162461bcd60e51b815260206004820152602360248201527f756e61626c6520746f207472616e73666572416e6443616c6c20746f206f7261604482015262636c6560e81b6064820152608401610152565b6001600460008282546105239190610a51565b9091555091979650505050505050565b604080518082019091526060815260006020820152610553602083610a69565b1561057b57610563602083610a69565b61056e906020610a8b565b6105789083610a51565b91505b506020808301829052604080518085526000815283019091019052815b92915050565b601781116105bf576105b98360e0600585901b1683176106a0565b50505050565b60ff81116105e9576105dc836018611fe0600586901b16176106a0565b506105b9838260016106c5565b61ffff811161061457610607836019611fe0600586901b16176106a0565b506105b9838260026106c5565b63ffffffff81116106415761063483601a611fe0600586901b16176106a0565b506105b9838260046106c5565b67ffffffffffffffff81116102be5761066583601b611fe0600586901b16176106a0565b506105b9838260086106c5565b604080518082019091526060815260006020820152610699838460000151518485516106eb565b9392505050565b60408051808201909152606081526000602082015261069983846000015151846107d5565b6040805180820190915260608152600060208201526102da848560000151518585610831565b604080518082019091526060815260006020820152825182111561070e57600080fd5b602085015161071d8386610a51565b111561075057610750856107408760200151878661073b9190610a51565b6108b2565b61074b906002610aa2565b6108c9565b60008086518051876020830101935080888701111561076f5787860182525b505050602084015b602084106107af578051825261078e602083610a51565b915061079b602082610a51565b90506107a8602085610a8b565b9350610777565b51815160001960208690036101000a019081169019919091161790525083949350505050565b6040805180820190915260608152600060208201528360200151831061080a5761080a848560200151600261074b9190610aa2565b835180516020858301018481535080851415610827576001810182525b5093949350505050565b60408051808201909152606081526000602082015260208501516108558584610a51565b111561086957610869856107408685610a51565b6000600161087984610100610ba5565b6108839190610a8b565b90508551838682010185831982511617815250805184870111156108a75783860181525b509495945050505050565b6000818311156108c3575081610598565b50919050565b81516108d58383610533565b506105b98382610672565b6040805160a0810182526000808252602080830182905282840182905260608084018390528451808601909552845283015290608082015290565b6000806040838503121561092e57600080fd5b50508035926020909101359150565b6000815180845260005b8181101561096357602081850181015186830182015201610947565b81811115610975576000602083870101525b50601f01601f19169290920160200192915050565b6001600160a01b0389811682526020820189905260408201889052861660608201526001600160e01b03198516608082015260a0810184905260c0810183905261010060e082018190526000906109e38382018561093d565b9b9a5050505050505050505050565b60018060a01b0384168152826020820152606060408201526000610297606083018461093d565b600060208284031215610a2b57600080fd5b8151801515811461069957600080fd5b634e487b7160e01b600052601160045260246000fd5b60008219821115610a6457610a64610a3b565b500190565b600082610a8657634e487b7160e01b600052601260045260246000fd5b500690565b600082821015610a9d57610a9d610a3b565b500390565b6000816000190483118215151615610abc57610abc610a3b565b500290565b600181815b80851115610afc578160001904821115610ae257610ae2610a3b565b80851615610aef57918102915b93841c9390800290610ac6565b509250929050565b600082610b1357506001610598565b81610b2057506000610598565b8160018114610b365760028114610b4057610b5c565b6001915050610598565b60ff841115610b5157610b51610a3b565b50506001821b610598565b5060208310610133831016604e8410600b8410161715610b7f575081810a610598565b610b898383610ac1565b8060001904821115610b9d57610b9d610a3b565b029392505050565b60006106998383610b0456fe68747470733a2f2f6170692e776561746865726269742e696f2f76322e302f63757272656e743f6c61743d33352e37373936266c6f6e3d2d37382e36333832266b65793d3335623363323430636436333434306538336332393530363832346262363562a2646970667358221220945fe2f1dc0756dee550b4fd935dc5a012b3031808f255c1762497f69141fd3464736f6c634300080b0033","bytecodeSha1":"c72e4d60a310ec16b9d9527da2082380acf186ff","compiler":{"evm_version":"istanbul","optimizer":{"enabled":true,"runs":200},"version":"0.8.11+commit.d7f03943"},"contractName":"APIConsumer","language":"Solidity","natspec":{"kind":"dev","methods":{},"version":1},"opcodes":"PUSH1 0x80 PUSH1 0x40 MSTORE CALLVALUE DUP1 ISZERO PUSH2 0x10 JUMPI PUSH1 0x0 DUP1 REVERT JUMPDEST POP PUSH1 0x4 CALLDATASIZE LT PUSH2 0x62 JUMPI PUSH1 0x0 CALLDATALOAD PUSH1 0xE0 SHR DUP1 PUSH4 0x24C12BF6 EQ PUSH2 0x67 JUMPI DUP1 PUSH4 0x4357855E EQ PUSH2 0x83 JUMPI DUP1 PUSH4 0x6021ABAC EQ PUSH2 0x98 JUMPI DUP1 PUSH4 0x7DC0D1D0 EQ PUSH2 0xA0 JUMPI DUP1 PUSH4 0xC2939D97 EQ PUSH2 0xCB JUMPI DUP1 PUSH4 0xDDCA3F43 EQ PUSH2 0xD4 JUMPI JUMPDEST PUSH1 0x0 DUP1 REVERT JUMPDEST PUSH2 0x70 PUSH1 0x6 SLOAD DUP2 JUMP JUMPDEST PUSH1 0x40 MLOAD SWAP1 DUP2 MSTORE PUSH1 0x20 ADD JUMPDEST PUSH1 0x40 MLOAD DUP1 SWAP2 SUB SWAP1 RETURN JUMPDEST PUSH2 0x96 PUSH2 0x91 CALLDATASIZE PUSH1 0x4 PUSH2 0x91B JUMP JUMPDEST PUSH2 0xDD JUMP JUMPDEST STOP JUMPDEST PUSH2 0x70 PUSH2 0x1A5 JUMP JUMPDEST PUSH1 0x7 SLOAD PUSH2 0xB3 SWAP1 PUSH1 0x1 PUSH1 0x1 PUSH1 0xA0 SHL SUB AND DUP2 JUMP JUMPDEST PUSH1 0x40 MLOAD PUSH1 0x1 PUSH1 0x1 PUSH1 0xA0 SHL SUB SWAP1 SWAP2 AND DUP2 MSTORE PUSH1 0x20 ADD PUSH2 0x7A JUMP JUMPDEST PUSH2 0x70 PUSH1 0x8 SLOAD DUP2 JUMP JUMPDEST PUSH2 0x70 PUSH1 0x9 SLOAD DUP2 JUMP JUMPDEST PUSH1 0x0 DUP3 DUP2 MSTORE PUSH1 0x5 PUSH1 0x20 MSTORE PUSH1 0x40 SWAP1 KECCAK256 SLOAD DUP3 SWAP1 PUSH1 0x1 PUSH1 0x1 PUSH1 0xA0 SHL SUB AND CALLER EQ PUSH2 0x15B JUMPI PUSH1 0x40 MLOAD PUSH3 0x461BCD PUSH1 0xE5 SHL DUP2 MSTORE PUSH1 0x20 PUSH1 0x4 DUP3 ADD MSTORE PUSH1 0x28 PUSH1 0x24 DUP3 ADD MSTORE PUSH32 0x536F75726365206D75737420626520746865206F7261636C65206F6620746865 PUSH1 0x44 DUP3 ADD MSTORE PUSH8 0x81C995C5D595CDD PUSH1 0xC2 SHL PUSH1 0x64 DUP3 ADD MSTORE PUSH1 0x84 ADD JUMPDEST PUSH1 0x40 MLOAD DUP1 SWAP2 SUB SWAP1 REVERT JUMPDEST PUSH1 0x0 DUP2 DUP2 MSTORE PUSH1 0x5 PUSH1 0x20 MSTORE PUSH1 0x40 DUP1 DUP3 KECCAK256 DUP1 SLOAD PUSH1 0x1 PUSH1 0x1 PUSH1 0xA0 SHL SUB NOT AND SWAP1 SSTORE MLOAD DUP3 SWAP2 PUSH32 0x7CC135E0CEBB02C3480AE5D74D377283180A2601F8F644EDF7987B009316C63A SWAP2 LOG2 POP PUSH1 0x6 SSTORE POP JUMP JUMPDEST PUSH1 0x0 DUP1 PUSH2 0x1BC PUSH1 0x8 SLOAD ADDRESS PUSH4 0x4357855E PUSH1 0xE0 SHL PUSH2 0x27B JUMP JUMPDEST SWAP1 POP PUSH2 0x1FE PUSH1 0x40 MLOAD DUP1 PUSH1 0x40 ADD PUSH1 0x40 MSTORE DUP1 PUSH1 0x3 DUP2 MSTORE PUSH1 0x20 ADD PUSH3 0x19D95D PUSH1 0xEA SHL DUP2 MSTORE POP PUSH1 0x40 MLOAD DUP1 PUSH1 0xA0 ADD PUSH1 0x40 MSTORE DUP1 PUSH1 0x64 DUP2 MSTORE PUSH1 0x20 ADD PUSH2 0xBB2 PUSH1 0x64 SWAP2 CODECOPY DUP4 SWAP2 SWAP1 PUSH2 0x2A0 JUMP JUMPDEST PUSH2 0x25A PUSH1 0x40 MLOAD DUP1 PUSH1 0x40 ADD PUSH1 0x40 MSTORE DUP1 PUSH1 0x4 DUP2 MSTORE PUSH1 0x20 ADD PUSH4 0xE0C2E8D PUSH1 0xE3 SHL DUP2 MSTORE POP PUSH1 0x40 MLOAD DUP1 PUSH1 0x40 ADD PUSH1 0x40 MSTORE DUP1 PUSH1 0x13 DUP2 MSTORE PUSH1 0x20 ADD PUSH19 0x646174612C302C776561746865722C636F6465 PUSH1 0x68 SHL DUP2 MSTORE POP DUP4 PUSH2 0x2A0 SWAP1 SWAP3 SWAP2 SWAP1 PUSH4 0xFFFFFFFF AND JUMP JUMPDEST PUSH1 0x7 SLOAD PUSH1 0x9 SLOAD PUSH2 0x275 SWAP2 PUSH1 0x1 PUSH1 0x1 PUSH1 0xA0 SHL SUB AND SWAP1 DUP4 SWAP1 PUSH2 0x2C3 JUMP JUMPDEST SWAP2 POP POP SWAP1 JUMP JUMPDEST PUSH2 0x283 PUSH2 0x8E0 JUMP JUMPDEST PUSH2 0x28B PUSH2 0x8E0 JUMP JUMPDEST PUSH2 0x297 DUP2 DUP7 DUP7 DUP7 PUSH2 0x2E2 JUMP JUMPDEST SWAP6 SWAP5 POP POP POP POP POP JUMP JUMPDEST PUSH1 0x80 DUP4 ADD MLOAD PUSH2 0x2AF SWAP1 DUP4 PUSH2 0x31F JUMP JUMPDEST PUSH1 0x80 DUP4 ADD MLOAD PUSH2 0x2BE SWAP1 DUP3 PUSH2 0x31F JUMP JUMPDEST POP POP POP JUMP JUMPDEST PUSH1 0x0 PUSH2 0x2DA DUP5 DUP5 DUP5 PUSH1 0x1 PUSH4 0x20214CA3 PUSH1 0xE1 SHL PUSH2 0x336 JUMP JUMPDEST SWAP5 SWAP4 POP POP POP POP JUMP JUMPDEST PUSH2 0x2EA PUSH2 0x8E0 JUMP JUMPDEST PUSH2 0x2FA DUP6 PUSH1 0x80 ADD MLOAD PUSH2 0x100 PUSH2 0x533 JUMP JUMPDEST POP POP SWAP2 DUP4 MSTORE PUSH1 0x1 PUSH1 0x1 PUSH1 0xA0 SHL SUB AND PUSH1 0x20 DUP4 ADD MSTORE PUSH1 0x1 PUSH1 0x1 PUSH1 0xE0 SHL SUB NOT AND PUSH1 0x40 DUP3 ADD MSTORE SWAP1 JUMP JUMPDEST PUSH2 0x32C DUP3 PUSH1 0x3 DUP4 MLOAD PUSH2 0x59E JUMP JUMPDEST PUSH2 0x2BE DUP3 DUP3 PUSH2 0x672 JUMP JUMPDEST PUSH1 0x4 SLOAD PUSH1 0x40 MLOAD PUSH12 0xFFFFFFFFFFFFFFFFFFFFFFFF NOT ADDRESS PUSH1 0x60 SHL AND PUSH1 0x20 DUP3 ADD MSTORE PUSH1 0x34 DUP2 ADD SWAP2 SWAP1 SWAP2 MSTORE PUSH1 0x0 SWAP1 PUSH1 0x54 ADD PUSH1 0x40 DUP1 MLOAD DUP1 DUP4 SUB PUSH1 0x1F NOT ADD DUP2 MSTORE SWAP2 DUP2 MSTORE DUP2 MLOAD PUSH1 0x20 SWAP3 DUP4 ADD KECCAK256 PUSH1 0x4 SLOAD PUSH1 0x60 DUP10 ADD MSTORE PUSH1 0x0 DUP2 DUP2 MSTORE PUSH1 0x5 SWAP1 SWAP4 MSTORE DUP2 DUP4 KECCAK256 DUP1 SLOAD PUSH1 0x1 PUSH1 0x1 PUSH1 0xA0 SHL SUB NOT AND PUSH1 0x1 PUSH1 0x1 PUSH1 0xA0 SHL SUB DUP12 AND OR SWAP1 SSTORE SWAP1 MLOAD SWAP1 SWAP3 POP DUP3 SWAP2 PUSH32 0xB5E6E01E79F91267DC17B4E6314D5D4D03593D2CEEE0FBB452B750BD70EA5AF9 SWAP2 LOG2 PUSH1 0x0 DUP3 PUSH1 0x0 DUP1 DUP9 PUSH1 0x0 ADD MLOAD DUP10 PUSH1 0x20 ADD MLOAD DUP11 PUSH1 0x40 ADD MLOAD DUP12 PUSH1 0x60 ADD MLOAD DUP11 DUP14 PUSH1 0x80 ADD MLOAD PUSH1 0x0 ADD MLOAD PUSH1 0x40 MLOAD PUSH1 0x24 ADD PUSH2 0x40D SWAP9 SWAP8 SWAP7 SWAP6 SWAP5 SWAP4 SWAP3 SWAP2 SWAP1 PUSH2 0x98A JUMP JUMPDEST PUSH1 0x40 DUP1 MLOAD PUSH1 0x1F NOT DUP2 DUP5 SUB ADD DUP2 MSTORE SWAP2 DUP2 MSTORE PUSH1 0x20 DUP3 ADD DUP1 MLOAD PUSH1 0x1 PUSH1 0x1 PUSH1 0xE0 SHL SUB AND PUSH1 0x1 PUSH1 0x1 PUSH1 0xE0 SHL SUB NOT SWAP1 SWAP5 AND SWAP4 SWAP1 SWAP4 OR SWAP1 SWAP3 MSTORE PUSH1 0x2 SLOAD SWAP2 MLOAD PUSH4 0x2000575 PUSH1 0xE5 SHL DUP2 MSTORE SWAP1 SWAP3 POP PUSH1 0x1 PUSH1 0x1 PUSH1 0xA0 SHL SUB SWAP1 SWAP2 AND SWAP1 PUSH4 0x4000AEA0 SWAP1 PUSH2 0x475 SWAP1 DUP11 SWAP1 DUP10 SWAP1 DUP7 SWAP1 PUSH1 0x4 ADD PUSH2 0x9F2 JUMP JUMPDEST PUSH1 0x20 PUSH1 0x40 MLOAD DUP1 DUP4 SUB DUP2 PUSH1 0x0 DUP8 GAS CALL ISZERO DUP1 ISZERO PUSH2 0x494 JUMPI RETURNDATASIZE PUSH1 0x0 DUP1 RETURNDATACOPY RETURNDATASIZE PUSH1 0x0 REVERT JUMPDEST POP POP POP POP PUSH1 0x40 MLOAD RETURNDATASIZE PUSH1 0x1F NOT PUSH1 0x1F DUP3 ADD AND DUP3 ADD DUP1 PUSH1 0x40 MSTORE POP DUP2 ADD SWAP1 PUSH2 0x4B8 SWAP2 SWAP1 PUSH2 0xA19 JUMP JUMPDEST PUSH2 0x510 JUMPI PUSH1 0x40 MLOAD PUSH3 0x461BCD PUSH1 0xE5 SHL DUP2 MSTORE PUSH1 0x20 PUSH1 0x4 DUP3 ADD MSTORE PUSH1 0x23 PUSH1 0x24 DUP3 ADD MSTORE PUSH32 0x756E61626C6520746F207472616E73666572416E6443616C6C20746F206F7261 PUSH1 0x44 DUP3 ADD MSTORE PUSH3 0x636C65 PUSH1 0xE8 SHL PUSH1 0x64 DUP3 ADD MSTORE PUSH1 0x84 ADD PUSH2 0x152 JUMP JUMPDEST PUSH1 0x1 PUSH1 0x4 PUSH1 0x0 DUP3 DUP3 SLOAD PUSH2 0x523 SWAP2 SWAP1 PUSH2 0xA51 JUMP JUMPDEST SWAP1 SWAP2 SSTORE POP SWAP2 SWAP8 SWAP7 POP POP POP POP POP POP POP JUMP JUMPDEST PUSH1 0x40 DUP1 MLOAD DUP1 DUP3 ADD SWAP1 SWAP2 MSTORE PUSH1 0x60 DUP2 MSTORE PUSH1 0x0 PUSH1 0x20 DUP3 ADD MSTORE PUSH2 0x553 PUSH1 0x20 DUP4 PUSH2 0xA69 JUMP JUMPDEST ISZERO PUSH2 0x57B JUMPI PUSH2 0x563 PUSH1 0x20 DUP4 PUSH2 0xA69 JUMP JUMPDEST PUSH2 0x56E SWAP1 PUSH1 0x20 PUSH2 0xA8B JUMP JUMPDEST PUSH2 0x578 SWAP1 DUP4 PUSH2 0xA51 JUMP JUMPDEST SWAP2 POP JUMPDEST POP PUSH1 0x20 DUP1 DUP4 ADD DUP3 SWAP1 MSTORE PUSH1 0x40 DUP1 MLOAD DUP1 DUP6 MSTORE PUSH1 0x0 DUP2 MSTORE DUP4 ADD SWAP1 SWAP2 ADD SWAP1 MSTORE DUP2 JUMPDEST SWAP3 SWAP2 POP POP JUMP JUMPDEST PUSH1 0x17 DUP2 GT PUSH2 0x5BF JUMPI PUSH2 0x5B9 DUP4 PUSH1 0xE0 PUSH1 0x5 DUP6 SWAP1 SHL AND DUP4 OR PUSH2 0x6A0 JUMP JUMPDEST POP POP POP POP JUMP JUMPDEST PUSH1 0xFF DUP2 GT PUSH2 0x5E9 JUMPI PUSH2 0x5DC DUP4 PUSH1 0x18 PUSH2 0x1FE0 PUSH1 0x5 DUP7 SWAP1 SHL AND OR PUSH2 0x6A0 JUMP JUMPDEST POP PUSH2 0x5B9 DUP4 DUP3 PUSH1 0x1 PUSH2 0x6C5 JUMP JUMPDEST PUSH2 0xFFFF DUP2 GT PUSH2 0x614 JUMPI PUSH2 0x607 DUP4 PUSH1 0x19 PUSH2 0x1FE0 PUSH1 0x5 DUP7 SWAP1 SHL AND OR PUSH2 0x6A0 JUMP JUMPDEST POP PUSH2 0x5B9 DUP4 DUP3 PUSH1 0x2 PUSH2 0x6C5 JUMP JUMPDEST PUSH4 0xFFFFFFFF DUP2 GT PUSH2 0x641 JUMPI PUSH2 0x634 DUP4 PUSH1 0x1A PUSH2 0x1FE0 PUSH1 0x5 DUP7 SWAP1 SHL AND OR PUSH2 0x6A0 JUMP JUMPDEST POP PUSH2 0x5B9 DUP4 DUP3 PUSH1 0x4 PUSH2 0x6C5 JUMP JUMPDEST PUSH8 0xFFFFFFFFFFFFFFFF DUP2 GT PUSH2 0x2BE JUMPI PUSH2 0x665 DUP4 PUSH1 0x1B PUSH2 0x1FE0 PUSH1 0x5 DUP7 SWAP1 SHL AND OR PUSH2 0x6A0 JUMP JUMPDEST POP PUSH2 0x5B9 DUP4 DUP3 PUSH1 0x8 PUSH2 0x6C5 JUMP JUMPDEST PUSH1 0x40 DUP1 MLOAD DUP1 DUP3 ADD SWAP1 SWAP2 MSTORE PUSH1 0x60 DUP2 MSTORE PUSH1 0x0 PUSH1 0x20 DUP3 ADD MSTORE PUSH2 0x699 DUP4 DUP5 PUSH1 0x0 ADD MLOAD MLOAD DUP5 DUP6 MLOAD PUSH2 0x6EB JUMP JUMPDEST SWAP4 SWAP3 POP POP POP JUMP JUMPDEST PUSH1 0x40 DUP1 MLOAD DUP1 DUP3 ADD SWAP1 SWAP2 MSTORE PUSH1 0x60 DUP2 MSTORE PUSH1 0x0 PUSH1 0x20 DUP3 ADD MSTORE PUSH2 0x699 DUP4 DUP5 PUSH1 0x0 ADD MLOAD MLOAD DUP5 PUSH2 0x7D5 JUMP JUMPDEST PUSH1 0x40 DUP1 MLOAD DUP1 DUP3 ADD SWAP1 SWAP2 MSTORE PUSH1 0x60 DUP2 MSTORE PUSH1 0x0 PUSH1 0x20 DUP3 ADD MSTORE PUSH2 0x2DA DUP5 DUP6 PUSH1 0x0 ADD MLOAD MLOAD DUP6 DUP6 PUSH2 0x831 JUMP JUMPDEST PUSH1 0x40 DUP1 MLOAD DUP1 DUP3 ADD SWAP1 SWAP2 MSTORE PUSH1 0x60 DUP2 MSTORE PUSH1 0x0 PUSH1 0x20 DUP3 ADD MSTORE DUP3 MLOAD DUP3 GT ISZERO PUSH2 0x70E JUMPI PUSH1 0x0 DUP1 REVERT JUMPDEST PUSH1 0x20 DUP6 ADD MLOAD PUSH2 0x71D DUP4 DUP7 PUSH2 0xA51 JUMP JUMPDEST GT ISZERO PUSH2 0x750 JUMPI PUSH2 0x750 DUP6 PUSH2 0x740 DUP8 PUSH1 0x20 ADD MLOAD DUP8 DUP7 PUSH2 0x73B SWAP2 SWAP1 PUSH2 0xA51 JUMP JUMPDEST PUSH2 0x8B2 JUMP JUMPDEST PUSH2 0x74B SWAP1 PUSH1 0x2 PUSH2 0xAA2 JUMP JUMPDEST PUSH2 0x8C9 JUMP JUMPDEST PUSH1 0x0 DUP1 DUP7 MLOAD DUP1 MLOAD DUP8 PUSH1 0x20 DUP4 ADD ADD SWAP4 POP DUP1 DUP9 DUP8 ADD GT ISZERO PUSH2 0x76F JUMPI DUP8 DUP7 ADD DUP3 MSTORE JUMPDEST POP POP POP PUSH1 0x20 DUP5 ADD JUMPDEST PUSH1 0x20 DUP5 LT PUSH2 0x7AF JUMPI DUP1 MLOAD DUP3 MSTORE PUSH2 0x78E PUSH1 0x20 DUP4 PUSH2 0xA51 JUMP JUMPDEST SWAP2 POP PUSH2 0x79B PUSH1 0x20 DUP3 PUSH2 0xA51 JUMP JUMPDEST SWAP1 POP PUSH2 0x7A8 PUSH1 0x20 DUP6 PUSH2 0xA8B JUMP JUMPDEST SWAP4 POP PUSH2 0x777 JUMP JUMPDEST MLOAD DUP2 MLOAD PUSH1 0x0 NOT PUSH1 0x20 DUP7 SWAP1 SUB PUSH2 0x100 EXP ADD SWAP1 DUP2 AND SWAP1 NOT SWAP2 SWAP1 SWAP2 AND OR SWAP1 MSTORE POP DUP4 SWAP5 SWAP4 POP POP POP POP JUMP JUMPDEST PUSH1 0x40 DUP1 MLOAD DUP1 DUP3 ADD SWAP1 SWAP2 MSTORE PUSH1 0x60 DUP2 MSTORE PUSH1 0x0 PUSH1 0x20 DUP3 ADD MSTORE DUP4 PUSH1 0x20 ADD MLOAD DUP4 LT PUSH2 0x80A JUMPI PUSH2 0x80A DUP5 DUP6 PUSH1 0x20 ADD MLOAD PUSH1 0x2 PUSH2 0x74B SWAP2 SWAP1 PUSH2 0xAA2 JUMP JUMPDEST DUP4 MLOAD DUP1 MLOAD PUSH1 0x20 DUP6 DUP4 ADD ADD DUP5 DUP2 MSTORE8 POP DUP1 DUP6 EQ ISZERO PUSH2 0x827 JUMPI PUSH1 0x1 DUP2 ADD DUP3 MSTORE JUMPDEST POP SWAP4 SWAP5 SWAP4 POP POP POP POP JUMP JUMPDEST PUSH1 0x40 DUP1 MLOAD DUP1 DUP3 ADD SWAP1 SWAP2 MSTORE PUSH1 0x60 DUP2 MSTORE PUSH1 0x0 PUSH1 0x20 DUP3 ADD MSTORE PUSH1 0x20 DUP6 ADD MLOAD PUSH2 0x855 DUP6 DUP5 PUSH2 0xA51 JUMP JUMPDEST GT ISZERO PUSH2 0x869 JUMPI PUSH2 0x869 DUP6 PUSH2 0x740 DUP7 DUP6 PUSH2 0xA51 JUMP JUMPDEST PUSH1 0x0 PUSH1 0x1 PUSH2 0x879 DUP5 PUSH2 0x100 PUSH2 0xBA5 JUMP JUMPDEST PUSH2 0x883 SWAP2 SWAP1 PUSH2 0xA8B JUMP JUMPDEST SWAP1 POP DUP6 MLOAD DUP4 DUP7 DUP3 ADD ADD DUP6 DUP4 NOT DUP3 MLOAD AND OR DUP2 MSTORE POP DUP1 MLOAD DUP5 DUP8 ADD GT ISZERO PUSH2 0x8A7 JUMPI DUP4 DUP7 ADD DUP2 MSTORE JUMPDEST POP SWAP5 SWAP6 SWAP5 POP POP POP POP POP JUMP JUMPDEST PUSH1 0x0 DUP2 DUP4 GT ISZERO PUSH2 0x8C3 JUMPI POP DUP2 PUSH2 0x598 JUMP JUMPDEST POP SWAP2 SWAP1 POP JUMP JUMPDEST DUP2 MLOAD PUSH2 0x8D5 DUP4 DUP4 PUSH2 0x533 JUMP JUMPDEST POP PUSH2 0x5B9 DUP4 DUP3 PUSH2 0x672 JUMP JUMPDEST PUSH1 0x40 DUP1 MLOAD PUSH1 0xA0 DUP2 ADD DUP3 MSTORE PUSH1 0x0 DUP1 DUP3 MSTORE PUSH1 0x20 DUP1 DUP4 ADD DUP3 SWAP1 MSTORE DUP3 DUP5 ADD DUP3 SWAP1 MSTORE PUSH1 0x60 DUP1 DUP5 ADD DUP4 SWAP1 MSTORE DUP5 MLOAD DUP1 DUP7 ADD SWAP1 SWAP6 MSTORE DUP5 MSTORE DUP4 ADD MSTORE SWAP1 PUSH1 0x80 DUP3 ADD MSTORE SWAP1 JUMP JUMPDEST PUSH1 0x0 DUP1 PUSH1 0x40 DUP4 DUP6 SUB SLT ISZERO PUSH2 0x92E JUMPI PUSH1 0x0 DUP1 REVERT JUMPDEST POP POP DUP1 CALLDATALOAD SWAP3 PUSH1 0x20 SWAP1 SWAP2 ADD CALLDATALOAD SWAP2 POP JUMP JUMPDEST PUSH1 0x0 DUP2 MLOAD DUP1 DUP5 MSTORE PUSH1 0x0 JUMPDEST DUP2 DUP2 LT ISZERO PUSH2 0x963 JUMPI PUSH1 0x20 DUP2 DUP6 ADD DUP2 ADD MLOAD DUP7 DUP4 ADD DUP3 ADD MSTORE ADD PUSH2 0x947 JUMP JUMPDEST DUP2 DUP2 GT ISZERO PUSH2 0x975 JUMPI PUSH1 0x0 PUSH1 0x20 DUP4 DUP8 ADD ADD MSTORE JUMPDEST POP PUSH1 0x1F ADD PUSH1 0x1F NOT AND SWAP3 SWAP1 SWAP3 ADD PUSH1 0x20 ADD SWAP3 SWAP2 POP POP JUMP JUMPDEST PUSH1 0x1 PUSH1 0x1 PUSH1 0xA0 SHL SUB DUP10 DUP2 AND DUP3 MSTORE PUSH1 0x20 DUP3 ADD DUP10 SWAP1 MSTORE PUSH1 0x40 DUP3 ADD DUP9 SWAP1 MSTORE DUP7 AND PUSH1 0x60 DUP3 ADD MSTORE PUSH1 0x1 PUSH1 0x1 PUSH1 0xE0 SHL SUB NOT DUP6 AND PUSH1 0x80 DUP3 ADD MSTORE PUSH1 0xA0 DUP2 ADD DUP5 SWAP1 MSTORE PUSH1 0xC0 DUP2 ADD DUP4 SWAP1 MSTORE PUSH2 0x100 PUSH1 0xE0 DUP3 ADD DUP2 SWAP1 MSTORE PUSH1 0x0 SWAP1 PUSH2 0x9E3 DUP4 DUP3 ADD DUP6 PUSH2 0x93D JUMP JUMPDEST SWAP12 SWAP11 POP POP POP POP POP POP POP POP POP POP POP JUMP JUMPDEST PUSH1 0x1 DUP1 PUSH1 0xA0 SHL SUB DUP5 AND DUP2 MSTORE DUP3 PUSH1 0x20 DUP3 ADD MSTORE PUSH1 0x60 PUSH1 0x40 DUP3 ADD MSTORE PUSH1 0x0 PUSH2 0x297 PUSH1 0x60 DUP4 ADD DUP5 PUSH2 0x93D JUMP JUMPDEST PUSH1 0x0 PUSH1 0x20 DUP3 DUP5 SUB SLT ISZERO PUSH2 0xA2B JUMPI PUSH1 0x0 DUP1 REVERT JUMPDEST DUP2 MLOAD DUP1 ISZERO ISZERO DUP2 EQ PUSH2 0x699 JUMPI PUSH1 0x0 DUP1 REVERT JUMPDEST PUSH4 0x4E487B71 PUSH1 0xE0 SHL PUSH1 0x0 MSTORE PUSH1 0x11 PUSH1 0x4 MSTORE PUSH1 0x24 PUSH1 0x0 REVERT JUMPDEST PUSH1 0x0 DUP3 NOT DUP3 GT ISZERO PUSH2 0xA64 JUMPI PUSH2 0xA64 PUSH2 0xA3B JUMP JUMPDEST POP ADD SWAP1 JUMP JUMPDEST PUSH1 0x0 DUP3 PUSH2 0xA86 JUMPI PUSH4 0x4E487B71 PUSH1 0xE0 SHL PUSH1 0x0 MSTORE PUSH1 0x12 PUSH1 0x4 MSTORE PUSH1 0x24 PUSH1 0x0 REVERT JUMPDEST POP MOD SWAP1 JUMP JUMPDEST PUSH1 0x0 DUP3 DUP3 LT ISZERO PUSH2 0xA9D JUMPI PUSH2 0xA9D PUSH2 0xA3B JUMP JUMPDEST POP SUB SWAP1 JUMP JUMPDEST PUSH1 0x0 DUP2 PUSH1 0x0 NOT DIV DUP4 GT DUP3 ISZERO ISZERO AND ISZERO PUSH2 0xABC JUMPI PUSH2 0xABC PUSH2 0xA3B JUMP JUMPDEST POP MUL SWAP1 JUMP JUMPDEST PUSH1 0x1 DUP2 DUP2 JUMPDEST DUP1 DUP6 GT ISZERO PUSH2 0xAFC JUMPI DUP2 PUSH1 0x0 NOT DIV DUP3 GT ISZERO PUSH2 0xAE2 JUMPI PUSH2 0xAE2 PUSH2 0xA3B JUMP JUMPDEST DUP1 DUP6 AND ISZERO PUSH2 0xAEF JUMPI SWAP2 DUP2 MUL SWAP2 JUMPDEST SWAP4 DUP5 SHR SWAP4 SWAP1 DUP1 MUL SWAP1 PUSH2 0xAC6 JUMP JUMPDEST POP SWAP3 POP SWAP3 SWAP1 POP JUMP JUMPDEST PUSH1 0x0 DUP3 PUSH2 0xB13 JUMPI POP PUSH1 0x1 PUSH2 0x598 JUMP JUMPDEST DUP2 PUSH2 0xB20 JUMPI POP PUSH1 0x0 PUSH2 0x598 JUMP JUMPDEST DUP2 PUSH1 0x1 DUP2 EQ PUSH2 0xB36 JUMPI PUSH1 0x2 DUP2 EQ PUSH2 0xB40 JUMPI PUSH2 0xB5C JUMP JUMPDEST PUSH1 0x1 SWAP2 POP POP PUSH2 0x598 JUMP JUMPDEST PUSH1 0xFF DUP5 GT ISZERO PUSH2 0xB51 JUMPI PUSH2 0xB51 PUSH2 0xA3B JUMP JUMPDEST POP POP PUSH1 0x1 DUP3 SHL PUSH2 0x598 JUMP JUMPDEST POP PUSH1 0x20 DUP4 LT PUSH2 0x133 DUP4 LT AND PUSH1 0x4E DUP5 LT PUSH1 0xB DUP5 LT AND OR ISZERO PUSH2 0xB7F JUMPI POP DUP2 DUP2 EXP PUSH2 0x598 JUMP JUMPDEST PUSH2 0xB89 DUP4 DUP4 PUSH2 0xAC1 JUMP JUMPDEST DUP1 PUSH1 0x0 NOT DIV DUP3 GT ISZERO PUSH2 0xB9D JUMPI PUSH2 0xB9D PUSH2 0xA3B JUMP JUMPDEST MUL SWAP4 SWAP3 POP POP POP JUMP JUMPDEST PUSH1 0x0 PUSH2 0x699 DUP4 DUP4 PUSH2 0xB04 JUMP INVALID PUSH9 0x747470733A2F2F6170 PUSH10 0x2E776561746865726269 PUSH21 0x2E696F2F76322E302F63757272656E743F6C61743D CALLER CALLDATALOAD 0x2E CALLDATACOPY CALLDATACOPY CODECOPY CALLDATASIZE 0x26 PUSH13 0x6F6E3D2D37382E36333832266B PUSH6 0x793D33356233 PUSH4 0x32343063 PUSH5 0x3633343430 PUSH6 0x383363323935 ADDRESS CALLDATASIZE CODESIZE ORIGIN CALLVALUE PUSH3 0x623635 PUSH3 0xA26469 PUSH17 0x667358221220945FE2F1DC0756DEE550B4 REVERT SWAP4 0x5D 0xC5 LOG0 SLT 0xB3 SUB XOR ADDMOD CALLCODE SSTORE 0xC1 PUSH23 0x2497F69141FD3464736F6C634300080B00330000000000 ","sha1":"570fe9c1dca88c09a2184bafc410df395fd4dd3c","source":"// SPDX-License-Identifier: MIT\npragma solidity ^0.8.0;\n\nimport \"@chainlink/contracts/src/v0.8/ChainlinkClient.sol\";\n\ncontract APIConsumer is ChainlinkClient {\n    using Chainlink for Chainlink.Request;\n\n    uint256 public code;\n    address public oracle;\n    bytes32 public jobId;\n    uint256 public fee;\n\n    event DataFullfilled(uint256 code);\n    \n    constructor() {\n        \n        setChainlinkToken(0xa36085F69e2889c224210F603D836748e7dC0088);      // Kovan Test Netzwerk Adresse\n        \n        oracle = 0xc57B33452b4F7BB189bB5AfaE9cc4aBa1f7a4FD8;                // API Oracle\n        jobId = \"d5270d1c311941d0b08bead21fea7747\";                         // Job für uint256 Datentyp\n        fee = 100000000000000000;                                           // 1 Link Gebühr\n    }\n    \n    function requestVolumeData() external returns (bytes32 requestId) \n    {\n        Chainlink.Request memory request = buildChainlinkRequest(jobId, address(this), this.fulfill.selector);\n        \n        // Set the URL to perform the GET request on\n        request.add(\"get\", \"https://api.weatherbit.io/v2.0/current?lat=35.7796&lon=-78.6382&key=35b3c240cd63440e83c29506824bb65b\");\n        \n        request.add(\"path\", \"data,0,weather,code\");\n        \n        // Sends the request\n        return sendChainlinkRequestTo(oracle, request, fee);\n    }\n     \n    function fulfill(bytes32 _requestId, uint256 _code) public recordChainlinkFulfillment(_requestId)\n    {\n        code = _code;\n    }\n}\n","sourcePath":"contracts/APIConsumer.sol","type":"contract","deployment":{"address":"0xA10b695D9a574bB8d3D2AB200070f5Dcf4774dF1","chainid":"42","blockHeight":31726768}}