{"abi":[{"inputs":[],"stateMutability":"nonpayable","type":"constructor","name":"constructor"},{"inputs":[],"name":"cc_address","outputs":[{"internalType":"contract CarCollectible","name":"","type":"address"}],"stateMutability":"view","type":"function"},{"inputs":[],"name":"chainlink","outputs":[{"internalType":"contract APIConsumer","name":"","type":"address"}],"stateMutability":"view","type":"function"},{"inputs":[{"internalType":"uint256","name":"tokenId","type":"uint256"}],"name":"check_ownership","outputs":[{"internalType":"bool","name":"","type":"bool"}],"stateMutability":"view","type":"function"},{"inputs":[{"internalType":"uint256","name":"tokenId","type":"uint256"}],"name":"get_metadata","outputs":[{"components":[{"internalType":"string","name":"brand","type":"string"},{"internalType":"string","name":"model","type":"string"},{"internalType":"uint16","name":"year","type":"uint16"},{"internalType":"uint32","name":"price","type":"uint32"},{"internalType":"uint16","name":"iot_account","type":"uint16"}],"internalType":"struct CarCollectible.Attr","name":"attr","type":"tuple"}],"stateMutability":"view","type":"function"},{"inputs":[{"internalType":"uint256","name":"tokenID","type":"uint256"}],"name":"get_policy","outputs":[{"components":[{"internalType":"string","name":"brand","type":"string"},{"internalType":"string","name":"model","type":"string"},{"internalType":"uint16","name":"year","type":"uint16"},{"internalType":"uint32","name":"price","type":"uint32"},{"internalType":"uint16","name":"iot_account","type":"uint16"},{"internalType":"uint256","name":"purchase","type":"uint256"}],"internalType":"struct Insurance.Policy","name":"pol","type":"tuple"}],"stateMutability":"view","type":"function"},{"inputs":[],"name":"get_premium","outputs":[{"internalType":"uint256","name":"","type":"uint256"}],"stateMutability":"view","type":"function"},{"inputs":[],"name":"get_weather","outputs":[{"internalType":"uint256","name":"","type":"uint256"}],"stateMutability":"view","type":"function"},{"inputs":[{"internalType":"uint256","name":"","type":"uint256"}],"name":"policy","outputs":[{"internalType":"string","name":"brand","type":"string"},{"internalType":"string","name":"model","type":"string"},{"internalType":"uint16","name":"year","type":"uint16"},{"internalType":"uint32","name":"price","type":"uint32"},{"internalType":"uint16","name":"iot_account","type":"uint16"},{"internalType":"uint256","name":"purchase","type":"uint256"}],"stateMutability":"view","type":"function"},{"inputs":[],"name":"set_sender","outputs":[],"stateMutability":"nonpayable","type":"function"},{"inputs":[{"internalType":"uint256","name":"_tokenID","type":"uint256"},{"internalType":"string","name":"_brand","type":"string"},{"internalType":"string","name":"_model","type":"string"},{"internalType":"uint16","name":"_year","type":"uint16"},{"internalType":"uint32","name":"_price","type":"uint32"},{"internalType":"uint16","name":"_iot","type":"uint16"}],"name":"write_policy","outputs":[],"stateMutability":"payable","type":"function"}],"bytecode":"608060405234801561001057600080fd5b50600180546001600160a01b0319908116732f7ed018da8d9643634e2ee65b455d990ad6d3ba1790915560058054909116732997f7dace6f383841798b1a087d4424459ad02b179055610dd2806100686000396000f3fe6080604052600436106100915760003560e01c8063449097951161005957806344909795146101625780639c3feeb714610184578063bb02b36314610199578063e76e4ee8146101ae578063f58ec93f146101db57610091565b806316a30e691461009657806319267df0146100c15780631961e152146100ee57806325756588146101035780633cea512014610130575b600080fd5b3480156100a257600080fd5b506100ab6101f0565b6040516100b89190610cf3565b60405180910390f35b3480156100cd57600080fd5b506100e16100dc366004610a8b565b610273565b6040516100b89190610bff565b6101016100fc366004610abb565b610307565b005b34801561010f57600080fd5b5061012361011e366004610a8b565b6103e9565b6040516100b89190610b8a565b34801561013c57600080fd5b5061015061014b366004610a8b565b61049b565b6040516100b896959493929190610ba9565b34801561016e57600080fd5b50610177610600565b6040516100b89190610b95565b34801561019057600080fd5b5061017761060f565b3480156101a557600080fd5b5061010161061e565b3480156101ba57600080fd5b506101ce6101c9366004610a8b565b610632565b6040516100b89190610c74565b3480156101e757600080fd5b506100ab6107c1565b6005546040805163126095fb60e11b815290516000926001600160a01b0316916324c12bf6916004808301926020929190829003018186803b15801561023557600080fd5b505afa158015610249573d6000803e3d6000fd5b505050506040513d601f19601f8201168201806040525081019061026d9190610aa3565b90505b90565b61027b6107cd565b600154604051633762777760e01b81526001600160a01b03909116906337627777906102ab908590600401610cf3565b60006040518083038186803b1580156102c357600080fd5b505afa1580156102d7573d6000803e3d6000fd5b505050506040513d6000823e601f3d908101601f191682016040526102ff91908101906109c1565b90505b919050565b6040805160c081018252868152602080820187905261ffff8087168385015263ffffffff86166060840152841660808301524260a0830152600089815280825292909220815180519293919261036092849201906107fb565b50602082810151805161037992600185019201906107fb565b5060408201516002820180546060850151608086015161ffff1990921661ffff9485161765ffffffff000019166201000063ffffffff909216919091021767ffff0000000000001916600160301b939091169290920291909117905560a090910151600390910155505050505050565b6001546040516304aeacb160e31b815260009182916001600160a01b039091169063257565889061041e908690600401610cf3565b60206040518083038186803b15801561043657600080fd5b505afa15801561044a573d6000803e3d6000fd5b505050506040513d601f19601f8201168201806040525081019061046e9190610993565b6006549091506001600160a01b0380831691161415610491576001915050610302565b6000915050610302565b6000602081815291815260409081902080548251601f60026000196101006001861615020190931692909204918201859004850281018501909352808352909283919083018282801561052f5780601f106105045761010080835404028352916020019161052f565b820191906000526020600020905b81548152906001019060200180831161051257829003601f168201915b505050505090806001018054600181600116156101000203166002900480601f0160208091040260200160405190810160405280929190818152602001828054600181600116156101000203166002900480156105cd5780601f106105a2576101008083540402835291602001916105cd565b820191906000526020600020905b8154815290600101906020018083116105b057829003601f168201915b5050506002840154600390940154929361ffff8082169463ffffffff620100008404169450600160301b90920416915086565b6001546001600160a01b031681565b6005546001600160a01b031681565b600680546001600160a01b03191633179055565b61063a610879565b600082815260208181526040918290208251815460026001821615610100026000190190911604601f8101849004909302810160e090810190945260c081018381529093919284928491908401828280156106d65780601f106106ab576101008083540402835291602001916106d6565b820191906000526020600020905b8154815290600101906020018083116106b957829003601f168201915b50505050508152602001600182018054600181600116156101000203166002900480601f0160208091040260200160405190810160405280929190818152602001828054600181600116156101000203166002900480156107785780601f1061074d57610100808354040283529160200191610778565b820191906000526020600020905b81548152906001019060200180831161075b57829003601f168201915b5050509183525050600282015461ffff808216602084015262010000820463ffffffff166040840152600160301b90910416606082015260039091015460809091015292915050565b67016345785d8a000090565b6040805160a08101825260608082526020820181905260009282018390528101829052608081019190915290565b828054600181600116156101000203166002900490600052602060002090601f016020900481019282601f1061083c57805160ff1916838001178555610869565b82800160010185558215610869579182015b8281111561086957825182559160200191906001019061084e565b506108759291506108bd565b5090565b6040518060c001604052806060815260200160608152602001600061ffff168152602001600063ffffffff168152602001600061ffff168152602001600081525090565b61027091905b8082111561087557600081556001016108c3565b600082601f8301126108e7578081fd5b81356108fa6108f582610d23565b610cfc565b915080825283602082850101111561091157600080fd5b8060208401602084013760009082016020015292915050565b600082601f83011261093a578081fd5b81516109486108f582610d23565b915080825283602082850101111561095f57600080fd5b610970816020840160208601610d47565b5092915050565b805161098281610d77565b92915050565b805161098281610d8a565b6000602082840312156109a4578081fd5b81516001600160a01b03811681146109ba578182fd5b9392505050565b6000602082840312156109d2578081fd5b815167ffffffffffffffff808211156109e9578283fd5b81840160a081870312156109fb578384fd5b610a0560a0610cfc565b9250805182811115610a15578485fd5b610a218782840161092a565b845250602081015182811115610a35578485fd5b610a418782840161092a565b60208501525060408101519150610a5782610d77565b816040840152610a6a8660608301610988565b6060840152610a7c8660808301610977565b60808401525090949350505050565b600060208284031215610a9c578081fd5b5035919050565b600060208284031215610ab4578081fd5b5051919050565b60008060008060008060c08789031215610ad3578182fd5b86359550602087013567ffffffffffffffff80821115610af1578384fd5b610afd8a838b016108d7565b96506040890135915080821115610b12578384fd5b50610b1f89828a016108d7565b9450506060870135610b3081610d77565b92506080870135610b4081610d8a565b915060a0870135610b5081610d77565b809150509295509295509295565b60008151808452610b76816020860160208601610d47565b601f01601f19169290920160200192915050565b901515815260200190565b6001600160a01b0391909116815260200190565b600060c08252610bbc60c0830189610b5e565b8281036020840152610bce8189610b5e565b61ffff978816604085015263ffffffff969096166060840152505091909316608082015260a0019190915292915050565b600060208252825160a06020840152610c1b60c0840182610b5e565b6020850151848203601f190160408601529150610c388183610b5e565b6040860151925061ffff9150818316606086015263ffffffff60608701511660808601528160808701511660a086015280935050505092915050565b600060208252825160c06020840152610c9060e0840182610b5e565b6020850151848203601f190160408601529150610cad8183610b5e565b6040860151925061ffff9150818316606086015263ffffffff60608701511660808601528160808701511660a086015260a086015160c086015280935050505092915050565b90815260200190565b60405181810167ffffffffffffffff81118282101715610d1b57600080fd5b604052919050565b600067ffffffffffffffff821115610d39578081fd5b50601f01601f191660200190565b60005b83811015610d62578181015183820152602001610d4a565b83811115610d71576000848401525b50505050565b61ffff81168114610d8757600080fd5b50565b63ffffffff81168114610d8757600080fdfea2646970667358221220aa9c5272ad9b712fe4b79e11bbcdeb3505d38214f5cad134e0b818d05eb638c964736f6c63430006060033","bytecodeSha1":"df72f1deb34719474b38a751c6d8ed5bcad2ec95","compiler":{"evm_version":"istanbul","optimizer":{"enabled":true,"runs":200},"version":"0.6.6+commit.6c089d02"},"contractName":"Insurance","language":"Solidity","natspec":{"methods":{}},"opcodes":"PUSH1 0x80 PUSH1 0x40 MSTORE PUSH1 0x4 CALLDATASIZE LT PUSH2 0x91 JUMPI PUSH1 0x0 CALLDATALOAD PUSH1 0xE0 SHR DUP1 PUSH4 0x44909795 GT PUSH2 0x59 JUMPI DUP1 PUSH4 0x44909795 EQ PUSH2 0x162 JUMPI DUP1 PUSH4 0x9C3FEEB7 EQ PUSH2 0x184 JUMPI DUP1 PUSH4 0xBB02B363 EQ PUSH2 0x199 JUMPI DUP1 PUSH4 0xE76E4EE8 EQ PUSH2 0x1AE JUMPI DUP1 PUSH4 0xF58EC93F EQ PUSH2 0x1DB JUMPI PUSH2 0x91 JUMP JUMPDEST DUP1 PUSH4 0x16A30E69 EQ PUSH2 0x96 JUMPI DUP1 PUSH4 0x19267DF0 EQ PUSH2 0xC1 JUMPI DUP1 PUSH4 0x1961E152 EQ PUSH2 0xEE JUMPI DUP1 PUSH4 0x25756588 EQ PUSH2 0x103 JUMPI DUP1 PUSH4 0x3CEA5120 EQ PUSH2 0x130 JUMPI JUMPDEST PUSH1 0x0 DUP1 REVERT JUMPDEST CALLVALUE DUP1 ISZERO PUSH2 0xA2 JUMPI PUSH1 0x0 DUP1 REVERT JUMPDEST POP PUSH2 0xAB PUSH2 0x1F0 JUMP JUMPDEST PUSH1 0x40 MLOAD PUSH2 0xB8 SWAP2 SWAP1 PUSH2 0xCF3 JUMP JUMPDEST PUSH1 0x40 MLOAD DUP1 SWAP2 SUB SWAP1 RETURN JUMPDEST CALLVALUE DUP1 ISZERO PUSH2 0xCD JUMPI PUSH1 0x0 DUP1 REVERT JUMPDEST POP PUSH2 0xE1 PUSH2 0xDC CALLDATASIZE PUSH1 0x4 PUSH2 0xA8B JUMP JUMPDEST PUSH2 0x273 JUMP JUMPDEST PUSH1 0x40 MLOAD PUSH2 0xB8 SWAP2 SWAP1 PUSH2 0xBFF JUMP JUMPDEST PUSH2 0x101 PUSH2 0xFC CALLDATASIZE PUSH1 0x4 PUSH2 0xABB JUMP JUMPDEST PUSH2 0x307 JUMP JUMPDEST STOP JUMPDEST CALLVALUE DUP1 ISZERO PUSH2 0x10F JUMPI PUSH1 0x0 DUP1 REVERT JUMPDEST POP PUSH2 0x123 PUSH2 0x11E CALLDATASIZE PUSH1 0x4 PUSH2 0xA8B JUMP JUMPDEST PUSH2 0x3E9 JUMP JUMPDEST PUSH1 0x40 MLOAD PUSH2 0xB8 SWAP2 SWAP1 PUSH2 0xB8A JUMP JUMPDEST CALLVALUE DUP1 ISZERO PUSH2 0x13C JUMPI PUSH1 0x0 DUP1 REVERT JUMPDEST POP PUSH2 0x150 PUSH2 0x14B CALLDATASIZE PUSH1 0x4 PUSH2 0xA8B JUMP JUMPDEST PUSH2 0x49B JUMP JUMPDEST PUSH1 0x40 MLOAD PUSH2 0xB8 SWAP7 SWAP6 SWAP5 SWAP4 SWAP3 SWAP2 SWAP1 PUSH2 0xBA9 JUMP JUMPDEST CALLVALUE DUP1 ISZERO PUSH2 0x16E JUMPI PUSH1 0x0 DUP1 REVERT JUMPDEST POP PUSH2 0x177 PUSH2 0x600 JUMP JUMPDEST PUSH1 0x40 MLOAD PUSH2 0xB8 SWAP2 SWAP1 PUSH2 0xB95 JUMP JUMPDEST CALLVALUE DUP1 ISZERO PUSH2 0x190 JUMPI PUSH1 0x0 DUP1 REVERT JUMPDEST POP PUSH2 0x177 PUSH2 0x60F JUMP JUMPDEST CALLVALUE DUP1 ISZERO PUSH2 0x1A5 JUMPI PUSH1 0x0 DUP1 REVERT JUMPDEST POP PUSH2 0x101 PUSH2 0x61E JUMP JUMPDEST CALLVALUE DUP1 ISZERO PUSH2 0x1BA JUMPI PUSH1 0x0 DUP1 REVERT JUMPDEST POP PUSH2 0x1CE PUSH2 0x1C9 CALLDATASIZE PUSH1 0x4 PUSH2 0xA8B JUMP JUMPDEST PUSH2 0x632 JUMP JUMPDEST PUSH1 0x40 MLOAD PUSH2 0xB8 SWAP2 SWAP1 PUSH2 0xC74 JUMP JUMPDEST CALLVALUE DUP1 ISZERO PUSH2 0x1E7 JUMPI PUSH1 0x0 DUP1 REVERT JUMPDEST POP PUSH2 0xAB PUSH2 0x7C1 JUMP JUMPDEST PUSH1 0x5 SLOAD PUSH1 0x40 DUP1 MLOAD PUSH4 0x126095FB PUSH1 0xE1 SHL DUP2 MSTORE SWAP1 MLOAD PUSH1 0x0 SWAP3 PUSH1 0x1 PUSH1 0x1 PUSH1 0xA0 SHL SUB AND SWAP2 PUSH4 0x24C12BF6 SWAP2 PUSH1 0x4 DUP1 DUP4 ADD SWAP3 PUSH1 0x20 SWAP3 SWAP2 SWAP1 DUP3 SWAP1 SUB ADD DUP2 DUP7 DUP1 EXTCODESIZE ISZERO DUP1 ISZERO PUSH2 0x235 JUMPI PUSH1 0x0 DUP1 REVERT JUMPDEST POP GAS STATICCALL ISZERO DUP1 ISZERO PUSH2 0x249 JUMPI RETURNDATASIZE PUSH1 0x0 DUP1 RETURNDATACOPY RETURNDATASIZE PUSH1 0x0 REVERT JUMPDEST POP POP POP POP PUSH1 0x40 MLOAD RETURNDATASIZE PUSH1 0x1F NOT PUSH1 0x1F DUP3 ADD AND DUP3 ADD DUP1 PUSH1 0x40 MSTORE POP DUP2 ADD SWAP1 PUSH2 0x26D SWAP2 SWAP1 PUSH2 0xAA3 JUMP JUMPDEST SWAP1 POP JUMPDEST SWAP1 JUMP JUMPDEST PUSH2 0x27B PUSH2 0x7CD JUMP JUMPDEST PUSH1 0x1 SLOAD PUSH1 0x40 MLOAD PUSH4 0x37627777 PUSH1 0xE0 SHL DUP2 MSTORE PUSH1 0x1 PUSH1 0x1 PUSH1 0xA0 SHL SUB SWAP1 SWAP2 AND SWAP1 PUSH4 0x37627777 SWAP1 PUSH2 0x2AB SWAP1 DUP6 SWAP1 PUSH1 0x4 ADD PUSH2 0xCF3 JUMP JUMPDEST PUSH1 0x0 PUSH1 0x40 MLOAD DUP1 DUP4 SUB DUP2 DUP7 DUP1 EXTCODESIZE ISZERO DUP1 ISZERO PUSH2 0x2C3 JUMPI PUSH1 0x0 DUP1 REVERT JUMPDEST POP GAS STATICCALL ISZERO DUP1 ISZERO PUSH2 0x2D7 JUMPI RETURNDATASIZE PUSH1 0x0 DUP1 RETURNDATACOPY RETURNDATASIZE PUSH1 0x0 REVERT JUMPDEST POP POP POP POP PUSH1 0x40 MLOAD RETURNDATASIZE PUSH1 0x0 DUP3 RETURNDATACOPY PUSH1 0x1F RETURNDATASIZE SWAP1 DUP2 ADD PUSH1 0x1F NOT AND DUP3 ADD PUSH1 0x40 MSTORE PUSH2 0x2FF SWAP2 SWAP1 DUP2 ADD SWAP1 PUSH2 0x9C1 JUMP JUMPDEST SWAP1 POP JUMPDEST SWAP2 SWAP1 POP JUMP JUMPDEST PUSH1 0x40 DUP1 MLOAD PUSH1 0xC0 DUP2 ADD DUP3 MSTORE DUP7 DUP2 MSTORE PUSH1 0x20 DUP1 DUP3 ADD DUP8 SWAP1 MSTORE PUSH2 0xFFFF DUP1 DUP8 AND DUP4 DUP6 ADD MSTORE PUSH4 0xFFFFFFFF DUP7 AND PUSH1 0x60 DUP5 ADD MSTORE DUP5 AND PUSH1 0x80 DUP4 ADD MSTORE TIMESTAMP PUSH1 0xA0 DUP4 ADD MSTORE PUSH1 0x0 DUP10 DUP2 MSTORE DUP1 DUP3 MSTORE SWAP3 SWAP1 SWAP3 KECCAK256 DUP2 MLOAD DUP1 MLOAD SWAP3 SWAP4 SWAP2 SWAP3 PUSH2 0x360 SWAP3 DUP5 SWAP3 ADD SWAP1 PUSH2 0x7FB JUMP JUMPDEST POP PUSH1 0x20 DUP3 DUP2 ADD MLOAD DUP1 MLOAD PUSH2 0x379 SWAP3 PUSH1 0x1 DUP6 ADD SWAP3 ADD SWAP1 PUSH2 0x7FB JUMP JUMPDEST POP PUSH1 0x40 DUP3 ADD MLOAD PUSH1 0x2 DUP3 ADD DUP1 SLOAD PUSH1 0x60 DUP6 ADD MLOAD PUSH1 0x80 DUP7 ADD MLOAD PUSH2 0xFFFF NOT SWAP1 SWAP3 AND PUSH2 0xFFFF SWAP5 DUP6 AND OR PUSH6 0xFFFFFFFF0000 NOT AND PUSH3 0x10000 PUSH4 0xFFFFFFFF SWAP1 SWAP3 AND SWAP2 SWAP1 SWAP2 MUL OR PUSH8 0xFFFF000000000000 NOT AND PUSH1 0x1 PUSH1 0x30 SHL SWAP4 SWAP1 SWAP2 AND SWAP3 SWAP1 SWAP3 MUL SWAP2 SWAP1 SWAP2 OR SWAP1 SSTORE PUSH1 0xA0 SWAP1 SWAP2 ADD MLOAD PUSH1 0x3 SWAP1 SWAP2 ADD SSTORE POP POP POP POP POP POP JUMP JUMPDEST PUSH1 0x1 SLOAD PUSH1 0x40 MLOAD PUSH4 0x4AEACB1 PUSH1 0xE3 SHL DUP2 MSTORE PUSH1 0x0 SWAP2 DUP3 SWAP2 PUSH1 0x1 PUSH1 0x1 PUSH1 0xA0 SHL SUB SWAP1 SWAP2 AND SWAP1 PUSH4 0x25756588 SWAP1 PUSH2 0x41E SWAP1 DUP7 SWAP1 PUSH1 0x4 ADD PUSH2 0xCF3 JUMP JUMPDEST PUSH1 0x20 PUSH1 0x40 MLOAD DUP1 DUP4 SUB DUP2 DUP7 DUP1 EXTCODESIZE ISZERO DUP1 ISZERO PUSH2 0x436 JUMPI PUSH1 0x0 DUP1 REVERT JUMPDEST POP GAS STATICCALL ISZERO DUP1 ISZERO PUSH2 0x44A JUMPI RETURNDATASIZE PUSH1 0x0 DUP1 RETURNDATACOPY RETURNDATASIZE PUSH1 0x0 REVERT JUMPDEST POP POP POP POP PUSH1 0x40 MLOAD RETURNDATASIZE PUSH1 0x1F NOT PUSH1 0x1F DUP3 ADD AND DUP3 ADD DUP1 PUSH1 0x40 MSTORE POP DUP2 ADD SWAP1 PUSH2 0x46E SWAP2 SWAP1 PUSH2 0x993 JUMP JUMPDEST PUSH1 0x6 SLOAD SWAP1 SWAP2 POP PUSH1 0x1 PUSH1 0x1 PUSH1 0xA0 SHL SUB DUP1 DUP4 AND SWAP2 AND EQ ISZERO PUSH2 0x491 JUMPI PUSH1 0x1 SWAP2 POP POP PUSH2 0x302 JUMP JUMPDEST PUSH1 0x0 SWAP2 POP POP PUSH2 0x302 JUMP JUMPDEST PUSH1 0x0 PUSH1 0x20 DUP2 DUP2 MSTORE SWAP2 DUP2 MSTORE PUSH1 0x40 SWAP1 DUP2 SWAP1 KECCAK256 DUP1 SLOAD DUP3 MLOAD PUSH1 0x1F PUSH1 0x2 PUSH1 0x0 NOT PUSH2 0x100 PUSH1 0x1 DUP7 AND ISZERO MUL ADD SWAP1 SWAP4 AND SWAP3 SWAP1 SWAP3 DIV SWAP2 DUP3 ADD DUP6 SWAP1 DIV DUP6 MUL DUP2 ADD DUP6 ADD SWAP1 SWAP4 MSTORE DUP1 DUP4 MSTORE SWAP1 SWAP3 DUP4 SWAP2 SWAP1 DUP4 ADD DUP3 DUP3 DUP1 ISZERO PUSH2 0x52F JUMPI DUP1 PUSH1 0x1F LT PUSH2 0x504 JUMPI PUSH2 0x100 DUP1 DUP4 SLOAD DIV MUL DUP4 MSTORE SWAP2 PUSH1 0x20 ADD SWAP2 PUSH2 0x52F JUMP JUMPDEST DUP3 ADD SWAP2 SWAP1 PUSH1 0x0 MSTORE PUSH1 0x20 PUSH1 0x0 KECCAK256 SWAP1 JUMPDEST DUP2 SLOAD DUP2 MSTORE SWAP1 PUSH1 0x1 ADD SWAP1 PUSH1 0x20 ADD DUP1 DUP4 GT PUSH2 0x512 JUMPI DUP3 SWAP1 SUB PUSH1 0x1F AND DUP3 ADD SWAP2 JUMPDEST POP POP POP POP POP SWAP1 DUP1 PUSH1 0x1 ADD DUP1 SLOAD PUSH1 0x1 DUP2 PUSH1 0x1 AND ISZERO PUSH2 0x100 MUL SUB AND PUSH1 0x2 SWAP1 DIV DUP1 PUSH1 0x1F ADD PUSH1 0x20 DUP1 SWAP2 DIV MUL PUSH1 0x20 ADD PUSH1 0x40 MLOAD SWAP1 DUP2 ADD PUSH1 0x40 MSTORE DUP1 SWAP3 SWAP2 SWAP1 DUP2 DUP2 MSTORE PUSH1 0x20 ADD DUP3 DUP1 SLOAD PUSH1 0x1 DUP2 PUSH1 0x1 AND ISZERO PUSH2 0x100 MUL SUB AND PUSH1 0x2 SWAP1 DIV DUP1 ISZERO PUSH2 0x5CD JUMPI DUP1 PUSH1 0x1F LT PUSH2 0x5A2 JUMPI PUSH2 0x100 DUP1 DUP4 SLOAD DIV MUL DUP4 MSTORE SWAP2 PUSH1 0x20 ADD SWAP2 PUSH2 0x5CD JUMP JUMPDEST DUP3 ADD SWAP2 SWAP1 PUSH1 0x0 MSTORE PUSH1 0x20 PUSH1 0x0 KECCAK256 SWAP1 JUMPDEST DUP2 SLOAD DUP2 MSTORE SWAP1 PUSH1 0x1 ADD SWAP1 PUSH1 0x20 ADD DUP1 DUP4 GT PUSH2 0x5B0 JUMPI DUP3 SWAP1 SUB PUSH1 0x1F AND DUP3 ADD SWAP2 JUMPDEST POP POP POP PUSH1 0x2 DUP5 ADD SLOAD PUSH1 0x3 SWAP1 SWAP5 ADD SLOAD SWAP3 SWAP4 PUSH2 0xFFFF DUP1 DUP3 AND SWAP5 PUSH4 0xFFFFFFFF PUSH3 0x10000 DUP5 DIV AND SWAP5 POP PUSH1 0x1 PUSH1 0x30 SHL SWAP1 SWAP3 DIV AND SWAP2 POP DUP7 JUMP JUMPDEST PUSH1 0x1 SLOAD PUSH1 0x1 PUSH1 0x1 PUSH1 0xA0 SHL SUB AND DUP2 JUMP JUMPDEST PUSH1 0x5 SLOAD PUSH1 0x1 PUSH1 0x1 PUSH1 0xA0 SHL SUB AND DUP2 JUMP JUMPDEST PUSH1 0x6 DUP1 SLOAD PUSH1 0x1 PUSH1 0x1 PUSH1 0xA0 SHL SUB NOT AND CALLER OR SWAP1 SSTORE JUMP JUMPDEST PUSH2 0x63A PUSH2 0x879 JUMP JUMPDEST PUSH1 0x0 DUP3 DUP2 MSTORE PUSH1 0x20 DUP2 DUP2 MSTORE PUSH1 0x40 SWAP2 DUP3 SWAP1 KECCAK256 DUP3 MLOAD DUP2 SLOAD PUSH1 0x2 PUSH1 0x1 DUP3 AND ISZERO PUSH2 0x100 MUL PUSH1 0x0 NOT ADD SWAP1 SWAP2 AND DIV PUSH1 0x1F DUP2 ADD DUP5 SWAP1 DIV SWAP1 SWAP4 MUL DUP2 ADD PUSH1 0xE0 SWAP1 DUP2 ADD SWAP1 SWAP5 MSTORE PUSH1 0xC0 DUP2 ADD DUP4 DUP2 MSTORE SWAP1 SWAP4 SWAP2 SWAP3 DUP5 SWAP3 DUP5 SWAP2 SWAP1 DUP5 ADD DUP3 DUP3 DUP1 ISZERO PUSH2 0x6D6 JUMPI DUP1 PUSH1 0x1F LT PUSH2 0x6AB JUMPI PUSH2 0x100 DUP1 DUP4 SLOAD DIV MUL DUP4 MSTORE SWAP2 PUSH1 0x20 ADD SWAP2 PUSH2 0x6D6 JUMP JUMPDEST DUP3 ADD SWAP2 SWAP1 PUSH1 0x0 MSTORE PUSH1 0x20 PUSH1 0x0 KECCAK256 SWAP1 JUMPDEST DUP2 SLOAD DUP2 MSTORE SWAP1 PUSH1 0x1 ADD SWAP1 PUSH1 0x20 ADD DUP1 DUP4 GT PUSH2 0x6B9 JUMPI DUP3 SWAP1 SUB PUSH1 0x1F AND DUP3 ADD SWAP2 JUMPDEST POP POP POP POP POP DUP2 MSTORE PUSH1 0x20 ADD PUSH1 0x1 DUP3 ADD DUP1 SLOAD PUSH1 0x1 DUP2 PUSH1 0x1 AND ISZERO PUSH2 0x100 MUL SUB AND PUSH1 0x2 SWAP1 DIV DUP1 PUSH1 0x1F ADD PUSH1 0x20 DUP1 SWAP2 DIV MUL PUSH1 0x20 ADD PUSH1 0x40 MLOAD SWAP1 DUP2 ADD PUSH1 0x40 MSTORE DUP1 SWAP3 SWAP2 SWAP1 DUP2 DUP2 MSTORE PUSH1 0x20 ADD DUP3 DUP1 SLOAD PUSH1 0x1 DUP2 PUSH1 0x1 AND ISZERO PUSH2 0x100 MUL SUB AND PUSH1 0x2 SWAP1 DIV DUP1 ISZERO PUSH2 0x778 JUMPI DUP1 PUSH1 0x1F LT PUSH2 0x74D JUMPI PUSH2 0x100 DUP1 DUP4 SLOAD DIV MUL DUP4 MSTORE SWAP2 PUSH1 0x20 ADD SWAP2 PUSH2 0x778 JUMP JUMPDEST DUP3 ADD SWAP2 SWAP1 PUSH1 0x0 MSTORE PUSH1 0x20 PUSH1 0x0 KECCAK256 SWAP1 JUMPDEST DUP2 SLOAD DUP2 MSTORE SWAP1 PUSH1 0x1 ADD SWAP1 PUSH1 0x20 ADD DUP1 DUP4 GT PUSH2 0x75B JUMPI DUP3 SWAP1 SUB PUSH1 0x1F AND DUP3 ADD SWAP2 JUMPDEST POP POP POP SWAP2 DUP4 MSTORE POP POP PUSH1 0x2 DUP3 ADD SLOAD PUSH2 0xFFFF DUP1 DUP3 AND PUSH1 0x20 DUP5 ADD MSTORE PUSH3 0x10000 DUP3 DIV PUSH4 0xFFFFFFFF AND PUSH1 0x40 DUP5 ADD MSTORE PUSH1 0x1 PUSH1 0x30 SHL SWAP1 SWAP2 DIV AND PUSH1 0x60 DUP3 ADD MSTORE PUSH1 0x3 SWAP1 SWAP2 ADD SLOAD PUSH1 0x80 SWAP1 SWAP2 ADD MSTORE SWAP3 SWAP2 POP POP JUMP JUMPDEST PUSH8 0x16345785D8A0000 SWAP1 JUMP JUMPDEST PUSH1 0x40 DUP1 MLOAD PUSH1 0xA0 DUP2 ADD DUP3 MSTORE PUSH1 0x60 DUP1 DUP3 MSTORE PUSH1 0x20 DUP3 ADD DUP2 SWAP1 MSTORE PUSH1 0x0 SWAP3 DUP3 ADD DUP4 SWAP1 MSTORE DUP2 ADD DUP3 SWAP1 MSTORE PUSH1 0x80 DUP2 ADD SWAP2 SWAP1 SWAP2 MSTORE SWAP1 JUMP JUMPDEST DUP3 DUP1 SLOAD PUSH1 0x1 DUP2 PUSH1 0x1 AND ISZERO PUSH2 0x100 MUL SUB AND PUSH1 0x2 SWAP1 DIV SWAP1 PUSH1 0x0 MSTORE PUSH1 0x20 PUSH1 0x0 KECCAK256 SWAP1 PUSH1 0x1F ADD PUSH1 0x20 SWAP1 DIV DUP2 ADD SWAP3 DUP3 PUSH1 0x1F LT PUSH2 0x83C JUMPI DUP1 MLOAD PUSH1 0xFF NOT AND DUP4 DUP1 ADD OR DUP6 SSTORE PUSH2 0x869 JUMP JUMPDEST DUP3 DUP1 ADD PUSH1 0x1 ADD DUP6 SSTORE DUP3 ISZERO PUSH2 0x869 JUMPI SWAP2 DUP3 ADD JUMPDEST DUP3 DUP2 GT ISZERO PUSH2 0x869 JUMPI DUP3 MLOAD DUP3 SSTORE SWAP2 PUSH1 0x20 ADD SWAP2 SWAP1 PUSH1 0x1 ADD SWAP1 PUSH2 0x84E JUMP JUMPDEST POP PUSH2 0x875 SWAP3 SWAP2 POP PUSH2 0x8BD JUMP JUMPDEST POP SWAP1 JUMP JUMPDEST PUSH1 0x40 MLOAD DUP1 PUSH1 0xC0 ADD PUSH1 0x40 MSTORE DUP1 PUSH1 0x60 DUP2 MSTORE PUSH1 0x20 ADD PUSH1 0x60 DUP2 MSTORE PUSH1 0x20 ADD PUSH1 0x0 PUSH2 0xFFFF AND DUP2 MSTORE PUSH1 0x20 ADD PUSH1 0x0 PUSH4 0xFFFFFFFF AND DUP2 MSTORE PUSH1 0x20 ADD PUSH1 0x0 PUSH2 0xFFFF AND DUP2 MSTORE PUSH1 0x20 ADD PUSH1 0x0 DUP2 MSTORE POP SWAP1 JUMP JUMPDEST PUSH2 0x270 SWAP2 SWAP1 JUMPDEST DUP1 DUP3 GT ISZERO PUSH2 0x875 JUMPI PUSH1 0x0 DUP2 SSTORE PUSH1 0x1 ADD PUSH2 0x8C3 JUMP JUMPDEST PUSH1 0x0 DUP3 PUSH1 0x1F DUP4 ADD SLT PUSH2 0x8E7 JUMPI DUP1 DUP2 REVERT JUMPDEST DUP2 CALLDATALOAD PUSH2 0x8FA PUSH2 0x8F5 DUP3 PUSH2 0xD23 JUMP JUMPDEST PUSH2 0xCFC JUMP JUMPDEST SWAP2 POP DUP1 DUP3 MSTORE DUP4 PUSH1 0x20 DUP3 DUP6 ADD ADD GT ISZERO PUSH2 0x911 JUMPI PUSH1 0x0 DUP1 REVERT JUMPDEST DUP1 PUSH1 0x20 DUP5 ADD PUSH1 0x20 DUP5 ADD CALLDATACOPY PUSH1 0x0 SWAP1 DUP3 ADD PUSH1 0x20 ADD MSTORE SWAP3 SWAP2 POP POP JUMP JUMPDEST PUSH1 0x0 DUP3 PUSH1 0x1F DUP4 ADD SLT PUSH2 0x93A JUMPI DUP1 DUP2 REVERT JUMPDEST DUP2 MLOAD PUSH2 0x948 PUSH2 0x8F5 DUP3 PUSH2 0xD23 JUMP JUMPDEST SWAP2 POP DUP1 DUP3 MSTORE DUP4 PUSH1 0x20 DUP3 DUP6 ADD ADD GT ISZERO PUSH2 0x95F JUMPI PUSH1 0x0 DUP1 REVERT JUMPDEST PUSH2 0x970 DUP2 PUSH1 0x20 DUP5 ADD PUSH1 0x20 DUP7 ADD PUSH2 0xD47 JUMP JUMPDEST POP SWAP3 SWAP2 POP POP JUMP JUMPDEST DUP1 MLOAD PUSH2 0x982 DUP2 PUSH2 0xD77 JUMP JUMPDEST SWAP3 SWAP2 POP POP JUMP JUMPDEST DUP1 MLOAD PUSH2 0x982 DUP2 PUSH2 0xD8A JUMP JUMPDEST PUSH1 0x0 PUSH1 0x20 DUP3 DUP5 SUB SLT ISZERO PUSH2 0x9A4 JUMPI DUP1 DUP2 REVERT JUMPDEST DUP2 MLOAD PUSH1 0x1 PUSH1 0x1 PUSH1 0xA0 SHL SUB DUP2 AND DUP2 EQ PUSH2 0x9BA JUMPI DUP2 DUP3 REVERT JUMPDEST SWAP4 SWAP3 POP POP POP JUMP JUMPDEST PUSH1 0x0 PUSH1 0x20 DUP3 DUP5 SUB SLT ISZERO PUSH2 0x9D2 JUMPI DUP1 DUP2 REVERT JUMPDEST DUP2 MLOAD PUSH8 0xFFFFFFFFFFFFFFFF DUP1 DUP3 GT ISZERO PUSH2 0x9E9 JUMPI DUP3 DUP4 REVERT JUMPDEST DUP2 DUP5 ADD PUSH1 0xA0 DUP2 DUP8 SUB SLT ISZERO PUSH2 0x9FB JUMPI DUP4 DUP5 REVERT JUMPDEST PUSH2 0xA05 PUSH1 0xA0 PUSH2 0xCFC JUMP JUMPDEST SWAP3 POP DUP1 MLOAD DUP3 DUP2 GT ISZERO PUSH2 0xA15 JUMPI DUP5 DUP6 REVERT JUMPDEST PUSH2 0xA21 DUP8 DUP3 DUP5 ADD PUSH2 0x92A JUMP JUMPDEST DUP5 MSTORE POP PUSH1 0x20 DUP2 ADD MLOAD DUP3 DUP2 GT ISZERO PUSH2 0xA35 JUMPI DUP5 DUP6 REVERT JUMPDEST PUSH2 0xA41 DUP8 DUP3 DUP5 ADD PUSH2 0x92A JUMP JUMPDEST PUSH1 0x20 DUP6 ADD MSTORE POP PUSH1 0x40 DUP2 ADD MLOAD SWAP2 POP PUSH2 0xA57 DUP3 PUSH2 0xD77 JUMP JUMPDEST DUP2 PUSH1 0x40 DUP5 ADD MSTORE PUSH2 0xA6A DUP7 PUSH1 0x60 DUP4 ADD PUSH2 0x988 JUMP JUMPDEST PUSH1 0x60 DUP5 ADD MSTORE PUSH2 0xA7C DUP7 PUSH1 0x80 DUP4 ADD PUSH2 0x977 JUMP JUMPDEST PUSH1 0x80 DUP5 ADD MSTORE POP SWAP1 SWAP5 SWAP4 POP POP POP POP JUMP JUMPDEST PUSH1 0x0 PUSH1 0x20 DUP3 DUP5 SUB SLT ISZERO PUSH2 0xA9C JUMPI DUP1 DUP2 REVERT JUMPDEST POP CALLDATALOAD SWAP2 SWAP1 POP JUMP JUMPDEST PUSH1 0x0 PUSH1 0x20 DUP3 DUP5 SUB SLT ISZERO PUSH2 0xAB4 JUMPI DUP1 DUP2 REVERT JUMPDEST POP MLOAD SWAP2 SWAP1 POP JUMP JUMPDEST PUSH1 0x0 DUP1 PUSH1 0x0 DUP1 PUSH1 0x0 DUP1 PUSH1 0xC0 DUP8 DUP10 SUB SLT ISZERO PUSH2 0xAD3 JUMPI DUP2 DUP3 REVERT JUMPDEST DUP7 CALLDATALOAD SWAP6 POP PUSH1 0x20 DUP8 ADD CALLDATALOAD PUSH8 0xFFFFFFFFFFFFFFFF DUP1 DUP3 GT ISZERO PUSH2 0xAF1 JUMPI DUP4 DUP5 REVERT JUMPDEST PUSH2 0xAFD DUP11 DUP4 DUP12 ADD PUSH2 0x8D7 JUMP JUMPDEST SWAP7 POP PUSH1 0x40 DUP10 ADD CALLDATALOAD SWAP2 POP DUP1 DUP3 GT ISZERO PUSH2 0xB12 JUMPI DUP4 DUP5 REVERT JUMPDEST POP PUSH2 0xB1F DUP10 DUP3 DUP11 ADD PUSH2 0x8D7 JUMP JUMPDEST SWAP5 POP POP PUSH1 0x60 DUP8 ADD CALLDATALOAD PUSH2 0xB30 DUP2 PUSH2 0xD77 JUMP JUMPDEST SWAP3 POP PUSH1 0x80 DUP8 ADD CALLDATALOAD PUSH2 0xB40 DUP2 PUSH2 0xD8A JUMP JUMPDEST SWAP2 POP PUSH1 0xA0 DUP8 ADD CALLDATALOAD PUSH2 0xB50 DUP2 PUSH2 0xD77 JUMP JUMPDEST DUP1 SWAP2 POP POP SWAP3 SWAP6 POP SWAP3 SWAP6 POP SWAP3 SWAP6 JUMP JUMPDEST PUSH1 0x0 DUP2 MLOAD DUP1 DUP5 MSTORE PUSH2 0xB76 DUP2 PUSH1 0x20 DUP7 ADD PUSH1 0x20 DUP7 ADD PUSH2 0xD47 JUMP JUMPDEST PUSH1 0x1F ADD PUSH1 0x1F NOT AND SWAP3 SWAP1 SWAP3 ADD PUSH1 0x20 ADD SWAP3 SWAP2 POP POP JUMP JUMPDEST SWAP1 ISZERO ISZERO DUP2 MSTORE PUSH1 0x20 ADD SWAP1 JUMP JUMPDEST PUSH1 0x1 PUSH1 0x1 PUSH1 0xA0 SHL SUB SWAP2 SWAP1 SWAP2 AND DUP2 MSTORE PUSH1 0x20 ADD SWAP1 JUMP JUMPDEST PUSH1 0x0 PUSH1 0xC0 DUP3 MSTORE PUSH2 0xBBC PUSH1 0xC0 DUP4 ADD DUP10 PUSH2 0xB5E JUMP JUMPDEST DUP3 DUP2 SUB PUSH1 0x20 DUP5 ADD MSTORE PUSH2 0xBCE DUP2 DUP10 PUSH2 0xB5E JUMP JUMPDEST PUSH2 0xFFFF SWAP8 DUP9 AND PUSH1 0x40 DUP6 ADD MSTORE PUSH4 0xFFFFFFFF SWAP7 SWAP1 SWAP7 AND PUSH1 0x60 DUP5 ADD MSTORE POP POP SWAP2 SWAP1 SWAP4 AND PUSH1 0x80 DUP3 ADD MSTORE PUSH1 0xA0 ADD SWAP2 SWAP1 SWAP2 MSTORE SWAP3 SWAP2 POP POP JUMP JUMPDEST PUSH1 0x0 PUSH1 0x20 DUP3 MSTORE DUP3 MLOAD PUSH1 0xA0 PUSH1 0x20 DUP5 ADD MSTORE PUSH2 0xC1B PUSH1 0xC0 DUP5 ADD DUP3 PUSH2 0xB5E JUMP JUMPDEST PUSH1 0x20 DUP6 ADD MLOAD DUP5 DUP3 SUB PUSH1 0x1F NOT ADD PUSH1 0x40 DUP7 ADD MSTORE SWAP2 POP PUSH2 0xC38 DUP2 DUP4 PUSH2 0xB5E JUMP JUMPDEST PUSH1 0x40 DUP7 ADD MLOAD SWAP3 POP PUSH2 0xFFFF SWAP2 POP DUP2 DUP4 AND PUSH1 0x60 DUP7 ADD MSTORE PUSH4 0xFFFFFFFF PUSH1 0x60 DUP8 ADD MLOAD AND PUSH1 0x80 DUP7 ADD MSTORE DUP2 PUSH1 0x80 DUP8 ADD MLOAD AND PUSH1 0xA0 DUP7 ADD MSTORE DUP1 SWAP4 POP POP POP POP SWAP3 SWAP2 POP POP JUMP JUMPDEST PUSH1 0x0 PUSH1 0x20 DUP3 MSTORE DUP3 MLOAD PUSH1 0xC0 PUSH1 0x20 DUP5 ADD MSTORE PUSH2 0xC90 PUSH1 0xE0 DUP5 ADD DUP3 PUSH2 0xB5E JUMP JUMPDEST PUSH1 0x20 DUP6 ADD MLOAD DUP5 DUP3 SUB PUSH1 0x1F NOT ADD PUSH1 0x40 DUP7 ADD MSTORE SWAP2 POP PUSH2 0xCAD DUP2 DUP4 PUSH2 0xB5E JUMP JUMPDEST PUSH1 0x40 DUP7 ADD MLOAD SWAP3 POP PUSH2 0xFFFF SWAP2 POP DUP2 DUP4 AND PUSH1 0x60 DUP7 ADD MSTORE PUSH4 0xFFFFFFFF PUSH1 0x60 DUP8 ADD MLOAD AND PUSH1 0x80 DUP7 ADD MSTORE DUP2 PUSH1 0x80 DUP8 ADD MLOAD AND PUSH1 0xA0 DUP7 ADD MSTORE PUSH1 0xA0 DUP7 ADD MLOAD PUSH1 0xC0 DUP7 ADD MSTORE DUP1 SWAP4 POP POP POP POP SWAP3 SWAP2 POP POP JUMP JUMPDEST SWAP1 DUP2 MSTORE PUSH1 0x20 ADD SWAP1 JUMP JUMPDEST PUSH1 0x40 MLOAD DUP2 DUP2 ADD PUSH8 0xFFFFFFFFFFFFFFFF DUP2 GT DUP3 DUP3 LT OR ISZERO PUSH2 0xD1B JUMPI PUSH1 0x0 DUP1 REVERT JUMPDEST PUSH1 0x40 MSTORE SWAP2 SWAP1 POP JUMP JUMPDEST PUSH1 0x0 PUSH8 0xFFFFFFFFFFFFFFFF DUP3 GT ISZERO PUSH2 0xD39 JUMPI DUP1 DUP2 REVERT JUMPDEST POP PUSH1 0x1F ADD PUSH1 0x1F NOT AND PUSH1 0x20 ADD SWAP1 JUMP JUMPDEST PUSH1 0x0 JUMPDEST DUP4 DUP2 LT ISZERO PUSH2 0xD62 JUMPI DUP2 DUP2 ADD MLOAD DUP4 DUP3 ADD MSTORE PUSH1 0x20 ADD PUSH2 0xD4A JUMP JUMPDEST DUP4 DUP2 GT ISZERO PUSH2 0xD71 JUMPI PUSH1 0x0 DUP5 DUP5 ADD MSTORE JUMPDEST POP POP POP POP JUMP JUMPDEST PUSH2 0xFFFF DUP2 AND DUP2 EQ PUSH2 0xD87 JUMPI PUSH1 0x0 DUP1 REVERT JUMPDEST POP JUMP JUMPDEST PUSH4 0xFFFFFFFF DUP2 AND DUP2 EQ PUSH2 0xD87 JUMPI PUSH1 0x0 DUP1 REVERT INVALID LOG2 PUSH5 0x6970667358 0x22 SLT KECCAK256 0xAA SWAP13 MSTORE PUSH19 0xAD9B712FE4B79E11BBCDEB3505D38214F5CAD1 CALLVALUE 0xE0 0xB8 XOR 0xD0 0x5E 0xB6 CODESIZE 0xC9 PUSH5 0x736F6C6343 STOP MOD MOD STOP CALLER ","sha1":"978620e8b363c97f363e137343184991f251d214","source":"pragma solidity 0.6.6;\npragma experimental ABIEncoderV2;\n\ninterface CarCollectible{\n    struct Attr {\n        string brand;\n        string model;\n        uint16 year;\n        uint32 price;\n        uint16 iot_account;\n    }\n    function check_ownership(uint256 tokenId) external view returns (address);\n    function get_attributes(uint256 tokenId) external view returns(Attr memory attr);\n}\n\ninterface APIConsumer{\n    function code() external view returns (uint256);\n}\n\ncontract Insurance{\n\n    mapping(uint256 => Policy) public policy;\n\n    struct Policy {\n        string brand;\n        string model;\n        uint16 year;\n        uint32 price;\n        uint16 iot_account;\n        uint256 purchase;\n\n    }\n\n    CarCollectible public cc_address;\n    CarCollectible.Attr attr;\n\n    APIConsumer public chainlink;\n\n    address sender;\n\n    constructor () public\n    {\n        cc_address = CarCollectible(0x2f7eD018Da8D9643634E2EE65B455D990ad6D3Ba);\n        chainlink = APIConsumer(0x2997f7DACe6f383841798B1a087D4424459AD02b);\n    }\n\n    function set_sender() external\n    {\n        sender = msg.sender;\n    }\n\n     function check_ownership(uint256 tokenId) external view returns (bool)\n     {\n        address owner = cc_address.check_ownership(tokenId);\n        if(owner==sender) {\n            return true; \n        } else {\n            return false;\n        }\n        //return sender;\n     }\n    \n    function get_metadata(uint256 tokenId) external view returns (CarCollectible.Attr memory attr)\n    {\n        return cc_address.get_attributes(tokenId);\n    }\n\n    function get_weather() external view returns (uint256) {\n        return chainlink.code();\n    }\n\n    function get_premium() external view returns (uint256) {\n        return 100000000000000000;\n    }\n\n    function write_policy(uint256 _tokenID, string memory _brand, string memory _model, uint16 _year, uint32 _price, uint16 _iot) public payable {\n        policy[_tokenID] = Policy(_brand,_model, _year, _price, _iot, block.timestamp);\n    }\n\n    function get_policy(uint256 tokenID) external view returns(Policy memory pol) {\n        return policy[tokenID];\n    }\n        \n}","sourcePath":"contracts/Insurance.sol","type":"contract","deployment":{"address":"0x20c2D48c8C8AC7E54A84C33f48f91459E2b3594f","chainid":"42","blockHeight":31118918}}