{"abi":[{"inputs":[],"stateMutability":"nonpayable","type":"constructor","name":"constructor"},{"inputs":[],"name":"cc_address","outputs":[{"internalType":"contract CarCollectible","name":"","type":"address"}],"stateMutability":"view","type":"function"},{"inputs":[],"name":"chainlink","outputs":[{"internalType":"contract APIConsumer","name":"","type":"address"}],"stateMutability":"view","type":"function"},{"inputs":[{"internalType":"uint256","name":"tokenId","type":"uint256"}],"name":"check_ownership","outputs":[{"internalType":"bool","name":"","type":"bool"}],"stateMutability":"view","type":"function"},{"inputs":[{"internalType":"uint256","name":"tokenId","type":"uint256"}],"name":"get_metadata","outputs":[{"components":[{"internalType":"string","name":"brand","type":"string"},{"internalType":"string","name":"model","type":"string"},{"internalType":"uint16","name":"year","type":"uint16"},{"internalType":"uint32","name":"price","type":"uint32"},{"internalType":"uint16","name":"iot_account","type":"uint16"}],"internalType":"struct CarCollectible.Attr","name":"attr","type":"tuple"}],"stateMutability":"view","type":"function"},{"inputs":[],"name":"get_premium","outputs":[{"internalType":"uint256","name":"","type":"uint256"}],"stateMutability":"view","type":"function"},{"inputs":[],"name":"get_weather","outputs":[{"internalType":"uint256","name":"","type":"uint256"}],"stateMutability":"view","type":"function"},{"inputs":[],"name":"set_sender","outputs":[],"stateMutability":"nonpayable","type":"function"}],"bytecode":"608060405234801561001057600080fd5b50600080546001600160a01b0319908116732f7ed018da8d9643634e2ee65b455d990ad6d3ba1790915560048054909116732997f7dace6f383841798b1a087d4424459ad02b17905561066f806100686000396000f3fe608060405234801561001057600080fd5b506004361061007d5760003560e01c8063449097951161005b57806344909795146100e05780639c3feeb7146100f5578063bb02b363146100fd578063f58ec93f146101075761007d565b806316a30e691461008257806319267df0146100a057806325756588146100c0575b600080fd5b61008a61010f565b60405161009791906105c6565b60405180910390f35b6100b36100ae3660046104d6565b61019c565b6040516100979190610551565b6100d36100ce3660046104d6565b610230565b6040516100979190610532565b6100e86102de565b604051610097919061053d565b6100e86102ed565b6101056102fc565b005b61008a610310565b6000600460009054906101000a90046001600160a01b03166001600160a01b03166324c12bf66040518163ffffffff1660e01b815260040160206040518083038186803b15801561015f57600080fd5b505afa158015610173573d6000803e3d6000fd5b505050506040513d601f19601f8201168201806040525081019061019791906104ee565b905090565b6101a461031c565b600054604051633762777760e01b81526001600160a01b03909116906337627777906101d49085906004016105c6565b60006040518083038186803b1580156101ec57600080fd5b505afa158015610200573d6000803e3d6000fd5b505050506040513d6000823e601f3d908101601f19168201604052610228919081019061040c565b90505b919050565b600080546040516304aeacb160e31b815282916001600160a01b0316906325756588906102619086906004016105c6565b60206040518083038186803b15801561027957600080fd5b505afa15801561028d573d6000803e3d6000fd5b505050506040513d601f19601f820116820180604052508101906102b191906103de565b6005549091506001600160a01b03808316911614156102d457600191505061022b565b600091505061022b565b6000546001600160a01b031681565b6004546001600160a01b031681565b600580546001600160a01b03191633179055565b670429d069189e000090565b6040805160a08101825260608082526020820181905260009282018390528101829052608081019190915290565b600082601f83011261035a578081fd5b815167ffffffffffffffff811115610370578182fd5b610383601f8201601f19166020016105cf565b915080825283602082850101111561039a57600080fd5b6103ab8160208401602086016105f6565b5092915050565b805161ffff811681146103c457600080fd5b92915050565b805163ffffffff811681146103c457600080fd5b6000602082840312156103ef578081fd5b81516001600160a01b0381168114610405578182fd5b9392505050565b60006020828403121561041d578081fd5b815167ffffffffffffffff80821115610434578283fd5b81840160a08187031215610446578384fd5b61045060a06105cf565b9250805182811115610460578485fd5b61046c8782840161034a565b845250602081015182811115610480578485fd5b61048c8782840161034a565b602085015250604081015191506104a282610626565b8160408401526104b586606083016103ca565b60608401526104c786608083016103b2565b60808401525090949350505050565b6000602082840312156104e7578081fd5b5035919050565b6000602082840312156104ff578081fd5b5051919050565b6000815180845261051e8160208601602086016105f6565b601f01601f19169290920160200192915050565b901515815260200190565b6001600160a01b0391909116815260200190565b600060208252825160a0602084015261056d60c0840182610506565b6020850151848203601f19016040860152915061058a8183610506565b6040860151925061ffff9150818316606086015263ffffffff60608701511660808601528160808701511660a086015280935050505092915050565b90815260200190565b60405181810167ffffffffffffffff811182821017156105ee57600080fd5b604052919050565b60005b838110156106115781810151838201526020016105f9565b83811115610620576000848401525b50505050565b61ffff8116811461063657600080fd5b5056fea26469706673582212201abdc22350d535b441065addc7a9e3e9ac500314667ec1daf7195d17143e421b64736f6c63430006060033","bytecodeSha1":"e81004b4e9ba402d1e4198e64b66ceae73c44073","compiler":{"evm_version":"istanbul","optimizer":{"enabled":true,"runs":200},"version":"0.6.6+commit.6c089d02"},"contractName":"Insurance","language":"Solidity","natspec":{"methods":{}},"opcodes":"PUSH1 0x80 PUSH1 0x40 MSTORE CALLVALUE DUP1 ISZERO PUSH2 0x10 JUMPI PUSH1 0x0 DUP1 REVERT JUMPDEST POP PUSH1 0x4 CALLDATASIZE LT PUSH2 0x7D JUMPI PUSH1 0x0 CALLDATALOAD PUSH1 0xE0 SHR DUP1 PUSH4 0x44909795 GT PUSH2 0x5B JUMPI DUP1 PUSH4 0x44909795 EQ PUSH2 0xE0 JUMPI DUP1 PUSH4 0x9C3FEEB7 EQ PUSH2 0xF5 JUMPI DUP1 PUSH4 0xBB02B363 EQ PUSH2 0xFD JUMPI DUP1 PUSH4 0xF58EC93F EQ PUSH2 0x107 JUMPI PUSH2 0x7D JUMP JUMPDEST DUP1 PUSH4 0x16A30E69 EQ PUSH2 0x82 JUMPI DUP1 PUSH4 0x19267DF0 EQ PUSH2 0xA0 JUMPI DUP1 PUSH4 0x25756588 EQ PUSH2 0xC0 JUMPI JUMPDEST PUSH1 0x0 DUP1 REVERT JUMPDEST PUSH2 0x8A PUSH2 0x10F JUMP JUMPDEST PUSH1 0x40 MLOAD PUSH2 0x97 SWAP2 SWAP1 PUSH2 0x5C6 JUMP JUMPDEST PUSH1 0x40 MLOAD DUP1 SWAP2 SUB SWAP1 RETURN JUMPDEST PUSH2 0xB3 PUSH2 0xAE CALLDATASIZE PUSH1 0x4 PUSH2 0x4D6 JUMP JUMPDEST PUSH2 0x19C JUMP JUMPDEST PUSH1 0x40 MLOAD PUSH2 0x97 SWAP2 SWAP1 PUSH2 0x551 JUMP JUMPDEST PUSH2 0xD3 PUSH2 0xCE CALLDATASIZE PUSH1 0x4 PUSH2 0x4D6 JUMP JUMPDEST PUSH2 0x230 JUMP JUMPDEST PUSH1 0x40 MLOAD PUSH2 0x97 SWAP2 SWAP1 PUSH2 0x532 JUMP JUMPDEST PUSH2 0xE8 PUSH2 0x2DE JUMP JUMPDEST PUSH1 0x40 MLOAD PUSH2 0x97 SWAP2 SWAP1 PUSH2 0x53D JUMP JUMPDEST PUSH2 0xE8 PUSH2 0x2ED JUMP JUMPDEST PUSH2 0x105 PUSH2 0x2FC JUMP JUMPDEST STOP JUMPDEST PUSH2 0x8A PUSH2 0x310 JUMP JUMPDEST PUSH1 0x0 PUSH1 0x4 PUSH1 0x0 SWAP1 SLOAD SWAP1 PUSH2 0x100 EXP SWAP1 DIV PUSH1 0x1 PUSH1 0x1 PUSH1 0xA0 SHL SUB AND PUSH1 0x1 PUSH1 0x1 PUSH1 0xA0 SHL SUB AND PUSH4 0x24C12BF6 PUSH1 0x40 MLOAD DUP2 PUSH4 0xFFFFFFFF AND PUSH1 0xE0 SHL DUP2 MSTORE PUSH1 0x4 ADD PUSH1 0x20 PUSH1 0x40 MLOAD DUP1 DUP4 SUB DUP2 DUP7 DUP1 EXTCODESIZE ISZERO DUP1 ISZERO PUSH2 0x15F JUMPI PUSH1 0x0 DUP1 REVERT JUMPDEST POP GAS STATICCALL ISZERO DUP1 ISZERO PUSH2 0x173 JUMPI RETURNDATASIZE PUSH1 0x0 DUP1 RETURNDATACOPY RETURNDATASIZE PUSH1 0x0 REVERT JUMPDEST POP POP POP POP PUSH1 0x40 MLOAD RETURNDATASIZE PUSH1 0x1F NOT PUSH1 0x1F DUP3 ADD AND DUP3 ADD DUP1 PUSH1 0x40 MSTORE POP DUP2 ADD SWAP1 PUSH2 0x197 SWAP2 SWAP1 PUSH2 0x4EE JUMP JUMPDEST SWAP1 POP SWAP1 JUMP JUMPDEST PUSH2 0x1A4 PUSH2 0x31C JUMP JUMPDEST PUSH1 0x0 SLOAD PUSH1 0x40 MLOAD PUSH4 0x37627777 PUSH1 0xE0 SHL DUP2 MSTORE PUSH1 0x1 PUSH1 0x1 PUSH1 0xA0 SHL SUB SWAP1 SWAP2 AND SWAP1 PUSH4 0x37627777 SWAP1 PUSH2 0x1D4 SWAP1 DUP6 SWAP1 PUSH1 0x4 ADD PUSH2 0x5C6 JUMP JUMPDEST PUSH1 0x0 PUSH1 0x40 MLOAD DUP1 DUP4 SUB DUP2 DUP7 DUP1 EXTCODESIZE ISZERO DUP1 ISZERO PUSH2 0x1EC JUMPI PUSH1 0x0 DUP1 REVERT JUMPDEST POP GAS STATICCALL ISZERO DUP1 ISZERO PUSH2 0x200 JUMPI RETURNDATASIZE PUSH1 0x0 DUP1 RETURNDATACOPY RETURNDATASIZE PUSH1 0x0 REVERT JUMPDEST POP POP POP POP PUSH1 0x40 MLOAD RETURNDATASIZE PUSH1 0x0 DUP3 RETURNDATACOPY PUSH1 0x1F RETURNDATASIZE SWAP1 DUP2 ADD PUSH1 0x1F NOT AND DUP3 ADD PUSH1 0x40 MSTORE PUSH2 0x228 SWAP2 SWAP1 DUP2 ADD SWAP1 PUSH2 0x40C JUMP JUMPDEST SWAP1 POP JUMPDEST SWAP2 SWAP1 POP JUMP JUMPDEST PUSH1 0x0 DUP1 SLOAD PUSH1 0x40 MLOAD PUSH4 0x4AEACB1 PUSH1 0xE3 SHL DUP2 MSTORE DUP3 SWAP2 PUSH1 0x1 PUSH1 0x1 PUSH1 0xA0 SHL SUB AND SWAP1 PUSH4 0x25756588 SWAP1 PUSH2 0x261 SWAP1 DUP7 SWAP1 PUSH1 0x4 ADD PUSH2 0x5C6 JUMP JUMPDEST PUSH1 0x20 PUSH1 0x40 MLOAD DUP1 DUP4 SUB DUP2 DUP7 DUP1 EXTCODESIZE ISZERO DUP1 ISZERO PUSH2 0x279 JUMPI PUSH1 0x0 DUP1 REVERT JUMPDEST POP GAS STATICCALL ISZERO DUP1 ISZERO PUSH2 0x28D JUMPI RETURNDATASIZE PUSH1 0x0 DUP1 RETURNDATACOPY RETURNDATASIZE PUSH1 0x0 REVERT JUMPDEST POP POP POP POP PUSH1 0x40 MLOAD RETURNDATASIZE PUSH1 0x1F NOT PUSH1 0x1F DUP3 ADD AND DUP3 ADD DUP1 PUSH1 0x40 MSTORE POP DUP2 ADD SWAP1 PUSH2 0x2B1 SWAP2 SWAP1 PUSH2 0x3DE JUMP JUMPDEST PUSH1 0x5 SLOAD SWAP1 SWAP2 POP PUSH1 0x1 PUSH1 0x1 PUSH1 0xA0 SHL SUB DUP1 DUP4 AND SWAP2 AND EQ ISZERO PUSH2 0x2D4 JUMPI PUSH1 0x1 SWAP2 POP POP PUSH2 0x22B JUMP JUMPDEST PUSH1 0x0 SWAP2 POP POP PUSH2 0x22B JUMP JUMPDEST PUSH1 0x0 SLOAD PUSH1 0x1 PUSH1 0x1 PUSH1 0xA0 SHL SUB AND DUP2 JUMP JUMPDEST PUSH1 0x4 SLOAD PUSH1 0x1 PUSH1 0x1 PUSH1 0xA0 SHL SUB AND DUP2 JUMP JUMPDEST PUSH1 0x5 DUP1 SLOAD PUSH1 0x1 PUSH1 0x1 PUSH1 0xA0 SHL SUB NOT AND CALLER OR SWAP1 SSTORE JUMP JUMPDEST PUSH8 0x429D069189E0000 SWAP1 JUMP JUMPDEST PUSH1 0x40 DUP1 MLOAD PUSH1 0xA0 DUP2 ADD DUP3 MSTORE PUSH1 0x60 DUP1 DUP3 MSTORE PUSH1 0x20 DUP3 ADD DUP2 SWAP1 MSTORE PUSH1 0x0 SWAP3 DUP3 ADD DUP4 SWAP1 MSTORE DUP2 ADD DUP3 SWAP1 MSTORE PUSH1 0x80 DUP2 ADD SWAP2 SWAP1 SWAP2 MSTORE SWAP1 JUMP JUMPDEST PUSH1 0x0 DUP3 PUSH1 0x1F DUP4 ADD SLT PUSH2 0x35A JUMPI DUP1 DUP2 REVERT JUMPDEST DUP2 MLOAD PUSH8 0xFFFFFFFFFFFFFFFF DUP2 GT ISZERO PUSH2 0x370 JUMPI DUP2 DUP3 REVERT JUMPDEST PUSH2 0x383 PUSH1 0x1F DUP3 ADD PUSH1 0x1F NOT AND PUSH1 0x20 ADD PUSH2 0x5CF JUMP JUMPDEST SWAP2 POP DUP1 DUP3 MSTORE DUP4 PUSH1 0x20 DUP3 DUP6 ADD ADD GT ISZERO PUSH2 0x39A JUMPI PUSH1 0x0 DUP1 REVERT JUMPDEST PUSH2 0x3AB DUP2 PUSH1 0x20 DUP5 ADD PUSH1 0x20 DUP7 ADD PUSH2 0x5F6 JUMP JUMPDEST POP SWAP3 SWAP2 POP POP JUMP JUMPDEST DUP1 MLOAD PUSH2 0xFFFF DUP2 AND DUP2 EQ PUSH2 0x3C4 JUMPI PUSH1 0x0 DUP1 REVERT JUMPDEST SWAP3 SWAP2 POP POP JUMP JUMPDEST DUP1 MLOAD PUSH4 0xFFFFFFFF DUP2 AND DUP2 EQ PUSH2 0x3C4 JUMPI PUSH1 0x0 DUP1 REVERT JUMPDEST PUSH1 0x0 PUSH1 0x20 DUP3 DUP5 SUB SLT ISZERO PUSH2 0x3EF JUMPI DUP1 DUP2 REVERT JUMPDEST DUP2 MLOAD PUSH1 0x1 PUSH1 0x1 PUSH1 0xA0 SHL SUB DUP2 AND DUP2 EQ PUSH2 0x405 JUMPI DUP2 DUP3 REVERT JUMPDEST SWAP4 SWAP3 POP POP POP JUMP JUMPDEST PUSH1 0x0 PUSH1 0x20 DUP3 DUP5 SUB SLT ISZERO PUSH2 0x41D JUMPI DUP1 DUP2 REVERT JUMPDEST DUP2 MLOAD PUSH8 0xFFFFFFFFFFFFFFFF DUP1 DUP3 GT ISZERO PUSH2 0x434 JUMPI DUP3 DUP4 REVERT JUMPDEST DUP2 DUP5 ADD PUSH1 0xA0 DUP2 DUP8 SUB SLT ISZERO PUSH2 0x446 JUMPI DUP4 DUP5 REVERT JUMPDEST PUSH2 0x450 PUSH1 0xA0 PUSH2 0x5CF JUMP JUMPDEST SWAP3 POP DUP1 MLOAD DUP3 DUP2 GT ISZERO PUSH2 0x460 JUMPI DUP5 DUP6 REVERT JUMPDEST PUSH2 0x46C DUP8 DUP3 DUP5 ADD PUSH2 0x34A JUMP JUMPDEST DUP5 MSTORE POP PUSH1 0x20 DUP2 ADD MLOAD DUP3 DUP2 GT ISZERO PUSH2 0x480 JUMPI DUP5 DUP6 REVERT JUMPDEST PUSH2 0x48C DUP8 DUP3 DUP5 ADD PUSH2 0x34A JUMP JUMPDEST PUSH1 0x20 DUP6 ADD MSTORE POP PUSH1 0x40 DUP2 ADD MLOAD SWAP2 POP PUSH2 0x4A2 DUP3 PUSH2 0x626 JUMP JUMPDEST DUP2 PUSH1 0x40 DUP5 ADD MSTORE PUSH2 0x4B5 DUP7 PUSH1 0x60 DUP4 ADD PUSH2 0x3CA JUMP JUMPDEST PUSH1 0x60 DUP5 ADD MSTORE PUSH2 0x4C7 DUP7 PUSH1 0x80 DUP4 ADD PUSH2 0x3B2 JUMP JUMPDEST PUSH1 0x80 DUP5 ADD MSTORE POP SWAP1 SWAP5 SWAP4 POP POP POP POP JUMP JUMPDEST PUSH1 0x0 PUSH1 0x20 DUP3 DUP5 SUB SLT ISZERO PUSH2 0x4E7 JUMPI DUP1 DUP2 REVERT JUMPDEST POP CALLDATALOAD SWAP2 SWAP1 POP JUMP JUMPDEST PUSH1 0x0 PUSH1 0x20 DUP3 DUP5 SUB SLT ISZERO PUSH2 0x4FF JUMPI DUP1 DUP2 REVERT JUMPDEST POP MLOAD SWAP2 SWAP1 POP JUMP JUMPDEST PUSH1 0x0 DUP2 MLOAD DUP1 DUP5 MSTORE PUSH2 0x51E DUP2 PUSH1 0x20 DUP7 ADD PUSH1 0x20 DUP7 ADD PUSH2 0x5F6 JUMP JUMPDEST PUSH1 0x1F ADD PUSH1 0x1F NOT AND SWAP3 SWAP1 SWAP3 ADD PUSH1 0x20 ADD SWAP3 SWAP2 POP POP JUMP JUMPDEST SWAP1 ISZERO ISZERO DUP2 MSTORE PUSH1 0x20 ADD SWAP1 JUMP JUMPDEST PUSH1 0x1 PUSH1 0x1 PUSH1 0xA0 SHL SUB SWAP2 SWAP1 SWAP2 AND DUP2 MSTORE PUSH1 0x20 ADD SWAP1 JUMP JUMPDEST PUSH1 0x0 PUSH1 0x20 DUP3 MSTORE DUP3 MLOAD PUSH1 0xA0 PUSH1 0x20 DUP5 ADD MSTORE PUSH2 0x56D PUSH1 0xC0 DUP5 ADD DUP3 PUSH2 0x506 JUMP JUMPDEST PUSH1 0x20 DUP6 ADD MLOAD DUP5 DUP3 SUB PUSH1 0x1F NOT ADD PUSH1 0x40 DUP7 ADD MSTORE SWAP2 POP PUSH2 0x58A DUP2 DUP4 PUSH2 0x506 JUMP JUMPDEST PUSH1 0x40 DUP7 ADD MLOAD SWAP3 POP PUSH2 0xFFFF SWAP2 POP DUP2 DUP4 AND PUSH1 0x60 DUP7 ADD MSTORE PUSH4 0xFFFFFFFF PUSH1 0x60 DUP8 ADD MLOAD AND PUSH1 0x80 DUP7 ADD MSTORE DUP2 PUSH1 0x80 DUP8 ADD MLOAD AND PUSH1 0xA0 DUP7 ADD MSTORE DUP1 SWAP4 POP POP POP POP SWAP3 SWAP2 POP POP JUMP JUMPDEST SWAP1 DUP2 MSTORE PUSH1 0x20 ADD SWAP1 JUMP JUMPDEST PUSH1 0x40 MLOAD DUP2 DUP2 ADD PUSH8 0xFFFFFFFFFFFFFFFF DUP2 GT DUP3 DUP3 LT OR ISZERO PUSH2 0x5EE JUMPI PUSH1 0x0 DUP1 REVERT JUMPDEST PUSH1 0x40 MSTORE SWAP2 SWAP1 POP JUMP JUMPDEST PUSH1 0x0 JUMPDEST DUP4 DUP2 LT ISZERO PUSH2 0x611 JUMPI DUP2 DUP2 ADD MLOAD DUP4 DUP3 ADD MSTORE PUSH1 0x20 ADD PUSH2 0x5F9 JUMP JUMPDEST DUP4 DUP2 GT ISZERO PUSH2 0x620 JUMPI PUSH1 0x0 DUP5 DUP5 ADD MSTORE JUMPDEST POP POP POP POP JUMP JUMPDEST PUSH2 0xFFFF DUP2 AND DUP2 EQ PUSH2 0x636 JUMPI PUSH1 0x0 DUP1 REVERT JUMPDEST POP JUMP INVALID LOG2 PUSH5 0x6970667358 0x22 SLT KECCAK256 BYTE 0xBD 0xC2 0x23 POP 0xD5 CALLDATALOAD 0xB4 COINBASE MOD GAS 0xDD 0xC7 0xA9 0xE3 0xE9 0xAC POP SUB EQ PUSH7 0x7EC1DAF7195D17 EQ RETURNDATACOPY TIMESTAMP SHL PUSH5 0x736F6C6343 STOP MOD MOD STOP CALLER ","sha1":"6064ed47dbea98ec5e1f8368828d16f5d25fbebe","source":"pragma solidity 0.6.6;\npragma experimental ABIEncoderV2;\n\ninterface CarCollectible{\n    struct Attr {\n        string brand;\n        string model;\n        uint16 year;\n        uint32 price;\n        uint16 iot_account;\n    }\n    function check_ownership(uint256 tokenId) external view returns (address);\n    function get_attributes(uint256 tokenId) external view returns(Attr memory attr);\n}\n\ninterface APIConsumer{\n    function code() external view returns (uint256);\n}\n\ncontract Insurance{\n\n    struct Policy {\n        uint256 tokenID;\n        string brand;\n        string model;\n        uint16 year;\n        uint32 price;\n        uint16 iot_account;\n        uint256 purchase;\n\n    }\n\n    CarCollectible public cc_address;\n    CarCollectible.Attr attr;\n\n    APIConsumer public chainlink;\n\n    address sender;\n\n    constructor () public\n    {\n        cc_address = CarCollectible(0x2f7eD018Da8D9643634E2EE65B455D990ad6D3Ba);\n        chainlink = APIConsumer(0x2997f7DACe6f383841798B1a087D4424459AD02b);\n    }\n\n    function set_sender() external\n    {\n        sender = msg.sender;\n    }\n\n     function check_ownership(uint256 tokenId) external view returns (bool)\n     {\n        address owner = cc_address.check_ownership(tokenId);\n        if(owner==sender) {\n            return true; \n        } else {\n            return false;\n        }\n        //return sender;\n     }\n    \n    function get_metadata(uint256 tokenId) external view returns (CarCollectible.Attr memory attr)\n    {\n        return cc_address.get_attributes(tokenId);\n    }\n\n    function get_weather() external view returns (uint256) {\n        return chainlink.code();\n    }\n\n    function get_premium() external view returns (uint256) {\n        return 300000000000000000;\n    }\n        \n}","sourcePath":"contracts/Insurance.sol","type":"contract","deployment":{"address":"0x35a0F4B6e3Eff1b559409a98AAe978139ba3Df67","chainid":"42","blockHeight":31117071}}