{"bytecode":"608060405234801561001057600080fd5b50600080546001600160a01b0319908116732f7ed018da8d9643634e2ee65b455d990ad6d3ba1790915560048054909116732997f7dace6f383841798b1a087d4424459ad02b179055610640806100686000396000f3fe608060405234801561001057600080fd5b50600436106100625760003560e01c806316a30e691461006757806319267df01461008557806325756588146100a557806344909795146100c55780639c3feeb7146100da578063bb02b363146100e2575b600080fd5b61006f6100ec565b60405161007c9190610597565b60405180910390f35b6100986100933660046104a7565b610179565b60405161007c9190610522565b6100b86100b33660046104a7565b61020d565b60405161007c9190610503565b6100cd6102bb565b60405161007c919061050e565b6100cd6102ca565b6100ea6102d9565b005b6000600460009054906101000a90046001600160a01b03166001600160a01b03166324c12bf66040518163ffffffff1660e01b815260040160206040518083038186803b15801561013c57600080fd5b505afa158015610150573d6000803e3d6000fd5b505050506040513d601f19601f8201168201806040525081019061017491906104bf565b905090565b6101816102ed565b600054604051633762777760e01b81526001600160a01b03909116906337627777906101b1908590600401610597565b60006040518083038186803b1580156101c957600080fd5b505afa1580156101dd573d6000803e3d6000fd5b505050506040513d6000823e601f3d908101601f1916820160405261020591908101906103dd565b90505b919050565b600080546040516304aeacb160e31b815282916001600160a01b03169063257565889061023e908690600401610597565b60206040518083038186803b15801561025657600080fd5b505afa15801561026a573d6000803e3d6000fd5b505050506040513d601f19601f8201168201806040525081019061028e91906103af565b6005549091506001600160a01b03808316911614156102b1576001915050610208565b6000915050610208565b6000546001600160a01b031681565b6004546001600160a01b031681565b600580546001600160a01b03191633179055565b6040805160a08101825260608082526020820181905260009282018390528101829052608081019190915290565b600082601f83011261032b578081fd5b815167ffffffffffffffff811115610341578182fd5b610354601f8201601f19166020016105a0565b915080825283602082850101111561036b57600080fd5b61037c8160208401602086016105c7565b5092915050565b805161ffff8116811461039557600080fd5b92915050565b805163ffffffff8116811461039557600080fd5b6000602082840312156103c0578081fd5b81516001600160a01b03811681146103d6578182fd5b9392505050565b6000602082840312156103ee578081fd5b815167ffffffffffffffff80821115610405578283fd5b81840160a08187031215610417578384fd5b61042160a06105a0565b9250805182811115610431578485fd5b61043d8782840161031b565b845250602081015182811115610451578485fd5b61045d8782840161031b565b60208501525060408101519150610473826105f7565b816040840152610486866060830161039b565b60608401526104988660808301610383565b60808401525090949350505050565b6000602082840312156104b8578081fd5b5035919050565b6000602082840312156104d0578081fd5b5051919050565b600081518084526104ef8160208601602086016105c7565b601f01601f19169290920160200192915050565b901515815260200190565b6001600160a01b0391909116815260200190565b600060208252825160a0602084015261053e60c08401826104d7565b6020850151848203601f19016040860152915061055b81836104d7565b6040860151925061ffff9150818316606086015263ffffffff60608701511660808601528160808701511660a086015280935050505092915050565b90815260200190565b60405181810167ffffffffffffffff811182821017156105bf57600080fd5b604052919050565b60005b838110156105e25781810151838201526020016105ca565b838111156105f1576000848401525b50505050565b61ffff8116811461060757600080fd5b5056fea2646970667358221220a095ba509edc595e101b1282074bca86f58c7edb6a3cb0f68a48ae6598d4a0e664736f6c63430006060033","bytecodeSha1":"a69668e4a877e4f0b8bddc22119e5b50ca816730","type":"contract","abi":[{"inputs":[],"stateMutability":"nonpayable","type":"constructor","name":"constructor"},{"inputs":[],"name":"cc_address","outputs":[{"internalType":"contract CarCollectible","name":"","type":"address"}],"stateMutability":"view","type":"function"},{"inputs":[],"name":"chainlink","outputs":[{"internalType":"contract APIConsumer","name":"","type":"address"}],"stateMutability":"view","type":"function"},{"inputs":[{"internalType":"uint256","name":"tokenId","type":"uint256"}],"name":"check_ownership","outputs":[{"internalType":"bool","name":"","type":"bool"}],"stateMutability":"view","type":"function"},{"inputs":[{"internalType":"uint256","name":"tokenId","type":"uint256"}],"name":"get_metadata","outputs":[{"components":[{"internalType":"string","name":"brand","type":"string"},{"internalType":"string","name":"model","type":"string"},{"internalType":"uint16","name":"year","type":"uint16"},{"internalType":"uint32","name":"price","type":"uint32"},{"internalType":"uint16","name":"iot_account","type":"uint16"}],"internalType":"struct CarCollectible.Attr","name":"attr","type":"tuple"}],"stateMutability":"view","type":"function"},{"inputs":[],"name":"get_weather","outputs":[{"internalType":"uint256","name":"","type":"uint256"}],"stateMutability":"view","type":"function"},{"inputs":[],"name":"set_sender","outputs":[],"stateMutability":"nonpayable","type":"function"}],"compiler":{"version":"0.6.6+commit.6c089d02","evm_version":"istanbul","optimizer":{"enabled":true,"runs":200}},"contractName":"Insurance","language":"Solidity","natspec":{"methods":{}},"opcodes":"PUSH1 0x80 PUSH1 0x40 MSTORE CALLVALUE DUP1 ISZERO PUSH2 0x10 JUMPI PUSH1 0x0 DUP1 REVERT JUMPDEST POP PUSH1 0x4 CALLDATASIZE LT PUSH2 0x62 JUMPI PUSH1 0x0 CALLDATALOAD PUSH1 0xE0 SHR DUP1 PUSH4 0x16A30E69 EQ PUSH2 0x67 JUMPI DUP1 PUSH4 0x19267DF0 EQ PUSH2 0x85 JUMPI DUP1 PUSH4 0x25756588 EQ PUSH2 0xA5 JUMPI DUP1 PUSH4 0x44909795 EQ PUSH2 0xC5 JUMPI DUP1 PUSH4 0x9C3FEEB7 EQ PUSH2 0xDA JUMPI DUP1 PUSH4 0xBB02B363 EQ PUSH2 0xE2 JUMPI JUMPDEST PUSH1 0x0 DUP1 REVERT JUMPDEST PUSH2 0x6F PUSH2 0xEC JUMP JUMPDEST PUSH1 0x40 MLOAD PUSH2 0x7C SWAP2 SWAP1 PUSH2 0x597 JUMP JUMPDEST PUSH1 0x40 MLOAD DUP1 SWAP2 SUB SWAP1 RETURN JUMPDEST PUSH2 0x98 PUSH2 0x93 CALLDATASIZE PUSH1 0x4 PUSH2 0x4A7 JUMP JUMPDEST PUSH2 0x179 JUMP JUMPDEST PUSH1 0x40 MLOAD PUSH2 0x7C SWAP2 SWAP1 PUSH2 0x522 JUMP JUMPDEST PUSH2 0xB8 PUSH2 0xB3 CALLDATASIZE PUSH1 0x4 PUSH2 0x4A7 JUMP JUMPDEST PUSH2 0x20D JUMP JUMPDEST PUSH1 0x40 MLOAD PUSH2 0x7C SWAP2 SWAP1 PUSH2 0x503 JUMP JUMPDEST PUSH2 0xCD PUSH2 0x2BB JUMP JUMPDEST PUSH1 0x40 MLOAD PUSH2 0x7C SWAP2 SWAP1 PUSH2 0x50E JUMP JUMPDEST PUSH2 0xCD PUSH2 0x2CA JUMP JUMPDEST PUSH2 0xEA PUSH2 0x2D9 JUMP JUMPDEST STOP JUMPDEST PUSH1 0x0 PUSH1 0x4 PUSH1 0x0 SWAP1 SLOAD SWAP1 PUSH2 0x100 EXP SWAP1 DIV PUSH1 0x1 PUSH1 0x1 PUSH1 0xA0 SHL SUB AND PUSH1 0x1 PUSH1 0x1 PUSH1 0xA0 SHL SUB AND PUSH4 0x24C12BF6 PUSH1 0x40 MLOAD DUP2 PUSH4 0xFFFFFFFF AND PUSH1 0xE0 SHL DUP2 MSTORE PUSH1 0x4 ADD PUSH1 0x20 PUSH1 0x40 MLOAD DUP1 DUP4 SUB DUP2 DUP7 DUP1 EXTCODESIZE ISZERO DUP1 ISZERO PUSH2 0x13C JUMPI PUSH1 0x0 DUP1 REVERT JUMPDEST POP GAS STATICCALL ISZERO DUP1 ISZERO PUSH2 0x150 JUMPI RETURNDATASIZE PUSH1 0x0 DUP1 RETURNDATACOPY RETURNDATASIZE PUSH1 0x0 REVERT JUMPDEST POP POP POP POP PUSH1 0x40 MLOAD RETURNDATASIZE PUSH1 0x1F NOT PUSH1 0x1F DUP3 ADD AND DUP3 ADD DUP1 PUSH1 0x40 MSTORE POP DUP2 ADD SWAP1 PUSH2 0x174 SWAP2 SWAP1 PUSH2 0x4BF JUMP JUMPDEST SWAP1 POP SWAP1 JUMP JUMPDEST PUSH2 0x181 PUSH2 0x2ED JUMP JUMPDEST PUSH1 0x0 SLOAD PUSH1 0x40 MLOAD PUSH4 0x37627777 PUSH1 0xE0 SHL DUP2 MSTORE PUSH1 0x1 PUSH1 0x1 PUSH1 0xA0 SHL SUB SWAP1 SWAP2 AND SWAP1 PUSH4 0x37627777 SWAP1 PUSH2 0x1B1 SWAP1 DUP6 SWAP1 PUSH1 0x4 ADD PUSH2 0x597 JUMP JUMPDEST PUSH1 0x0 PUSH1 0x40 MLOAD DUP1 DUP4 SUB DUP2 DUP7 DUP1 EXTCODESIZE ISZERO DUP1 ISZERO PUSH2 0x1C9 JUMPI PUSH1 0x0 DUP1 REVERT JUMPDEST POP GAS STATICCALL ISZERO DUP1 ISZERO PUSH2 0x1DD JUMPI RETURNDATASIZE PUSH1 0x0 DUP1 RETURNDATACOPY RETURNDATASIZE PUSH1 0x0 REVERT JUMPDEST POP POP POP POP PUSH1 0x40 MLOAD RETURNDATASIZE PUSH1 0x0 DUP3 RETURNDATACOPY PUSH1 0x1F RETURNDATASIZE SWAP1 DUP2 ADD PUSH1 0x1F NOT AND DUP3 ADD PUSH1 0x40 MSTORE PUSH2 0x205 SWAP2 SWAP1 DUP2 ADD SWAP1 PUSH2 0x3DD JUMP JUMPDEST SWAP1 POP JUMPDEST SWAP2 SWAP1 POP JUMP JUMPDEST PUSH1 0x0 DUP1 SLOAD PUSH1 0x40 MLOAD PUSH4 0x4AEACB1 PUSH1 0xE3 SHL DUP2 MSTORE DUP3 SWAP2 PUSH1 0x1 PUSH1 0x1 PUSH1 0xA0 SHL SUB AND SWAP1 PUSH4 0x25756588 SWAP1 PUSH2 0x23E SWAP1 DUP7 SWAP1 PUSH1 0x4 ADD PUSH2 0x597 JUMP JUMPDEST PUSH1 0x20 PUSH1 0x40 MLOAD DUP1 DUP4 SUB DUP2 DUP7 DUP1 EXTCODESIZE ISZERO DUP1 ISZERO PUSH2 0x256 JUMPI PUSH1 0x0 DUP1 REVERT JUMPDEST POP GAS STATICCALL ISZERO DUP1 ISZERO PUSH2 0x26A JUMPI RETURNDATASIZE PUSH1 0x0 DUP1 RETURNDATACOPY RETURNDATASIZE PUSH1 0x0 REVERT JUMPDEST POP POP POP POP PUSH1 0x40 MLOAD RETURNDATASIZE PUSH1 0x1F NOT PUSH1 0x1F DUP3 ADD AND DUP3 ADD DUP1 PUSH1 0x40 MSTORE POP DUP2 ADD SWAP1 PUSH2 0x28E SWAP2 SWAP1 PUSH2 0x3AF JUMP JUMPDEST PUSH1 0x5 SLOAD SWAP1 SWAP2 POP PUSH1 0x1 PUSH1 0x1 PUSH1 0xA0 SHL SUB DUP1 DUP4 AND SWAP2 AND EQ ISZERO PUSH2 0x2B1 JUMPI PUSH1 0x1 SWAP2 POP POP PUSH2 0x208 JUMP JUMPDEST PUSH1 0x0 SWAP2 POP POP PUSH2 0x208 JUMP JUMPDEST PUSH1 0x0 SLOAD PUSH1 0x1 PUSH1 0x1 PUSH1 0xA0 SHL SUB AND DUP2 JUMP JUMPDEST PUSH1 0x4 SLOAD PUSH1 0x1 PUSH1 0x1 PUSH1 0xA0 SHL SUB AND DUP2 JUMP JUMPDEST PUSH1 0x5 DUP1 SLOAD PUSH1 0x1 PUSH1 0x1 PUSH1 0xA0 SHL SUB NOT AND CALLER OR SWAP1 SSTORE JUMP JUMPDEST PUSH1 0x40 DUP1 MLOAD PUSH1 0xA0 DUP2 ADD DUP3 MSTORE PUSH1 0x60 DUP1 DUP3 MSTORE PUSH1 0x20 DUP3 ADD DUP2 SWAP1 MSTORE PUSH1 0x0 SWAP3 DUP3 ADD DUP4 SWAP1 MSTORE DUP2 ADD DUP3 SWAP1 MSTORE PUSH1 0x80 DUP2 ADD SWAP2 SWAP1 SWAP2 MSTORE SWAP1 JUMP JUMPDEST PUSH1 0x0 DUP3 PUSH1 0x1F DUP4 ADD SLT PUSH2 0x32B JUMPI DUP1 DUP2 REVERT JUMPDEST DUP2 MLOAD PUSH8 0xFFFFFFFFFFFFFFFF DUP2 GT ISZERO PUSH2 0x341 JUMPI DUP2 DUP3 REVERT JUMPDEST PUSH2 0x354 PUSH1 0x1F DUP3 ADD PUSH1 0x1F NOT AND PUSH1 0x20 ADD PUSH2 0x5A0 JUMP JUMPDEST SWAP2 POP DUP1 DUP3 MSTORE DUP4 PUSH1 0x20 DUP3 DUP6 ADD ADD GT ISZERO PUSH2 0x36B JUMPI PUSH1 0x0 DUP1 REVERT JUMPDEST PUSH2 0x37C DUP2 PUSH1 0x20 DUP5 ADD PUSH1 0x20 DUP7 ADD PUSH2 0x5C7 JUMP JUMPDEST POP SWAP3 SWAP2 POP POP JUMP JUMPDEST DUP1 MLOAD PUSH2 0xFFFF DUP2 AND DUP2 EQ PUSH2 0x395 JUMPI PUSH1 0x0 DUP1 REVERT JUMPDEST SWAP3 SWAP2 POP POP JUMP JUMPDEST DUP1 MLOAD PUSH4 0xFFFFFFFF DUP2 AND DUP2 EQ PUSH2 0x395 JUMPI PUSH1 0x0 DUP1 REVERT JUMPDEST PUSH1 0x0 PUSH1 0x20 DUP3 DUP5 SUB SLT ISZERO PUSH2 0x3C0 JUMPI DUP1 DUP2 REVERT JUMPDEST DUP2 MLOAD PUSH1 0x1 PUSH1 0x1 PUSH1 0xA0 SHL SUB DUP2 AND DUP2 EQ PUSH2 0x3D6 JUMPI DUP2 DUP3 REVERT JUMPDEST SWAP4 SWAP3 POP POP POP JUMP JUMPDEST PUSH1 0x0 PUSH1 0x20 DUP3 DUP5 SUB SLT ISZERO PUSH2 0x3EE JUMPI DUP1 DUP2 REVERT JUMPDEST DUP2 MLOAD PUSH8 0xFFFFFFFFFFFFFFFF DUP1 DUP3 GT ISZERO PUSH2 0x405 JUMPI DUP3 DUP4 REVERT JUMPDEST DUP2 DUP5 ADD PUSH1 0xA0 DUP2 DUP8 SUB SLT ISZERO PUSH2 0x417 JUMPI DUP4 DUP5 REVERT JUMPDEST PUSH2 0x421 PUSH1 0xA0 PUSH2 0x5A0 JUMP JUMPDEST SWAP3 POP DUP1 MLOAD DUP3 DUP2 GT ISZERO PUSH2 0x431 JUMPI DUP5 DUP6 REVERT JUMPDEST PUSH2 0x43D DUP8 DUP3 DUP5 ADD PUSH2 0x31B JUMP JUMPDEST DUP5 MSTORE POP PUSH1 0x20 DUP2 ADD MLOAD DUP3 DUP2 GT ISZERO PUSH2 0x451 JUMPI DUP5 DUP6 REVERT JUMPDEST PUSH2 0x45D DUP8 DUP3 DUP5 ADD PUSH2 0x31B JUMP JUMPDEST PUSH1 0x20 DUP6 ADD MSTORE POP PUSH1 0x40 DUP2 ADD MLOAD SWAP2 POP PUSH2 0x473 DUP3 PUSH2 0x5F7 JUMP JUMPDEST DUP2 PUSH1 0x40 DUP5 ADD MSTORE PUSH2 0x486 DUP7 PUSH1 0x60 DUP4 ADD PUSH2 0x39B JUMP JUMPDEST PUSH1 0x60 DUP5 ADD MSTORE PUSH2 0x498 DUP7 PUSH1 0x80 DUP4 ADD PUSH2 0x383 JUMP JUMPDEST PUSH1 0x80 DUP5 ADD MSTORE POP SWAP1 SWAP5 SWAP4 POP POP POP POP JUMP JUMPDEST PUSH1 0x0 PUSH1 0x20 DUP3 DUP5 SUB SLT ISZERO PUSH2 0x4B8 JUMPI DUP1 DUP2 REVERT JUMPDEST POP CALLDATALOAD SWAP2 SWAP1 POP JUMP JUMPDEST PUSH1 0x0 PUSH1 0x20 DUP3 DUP5 SUB SLT ISZERO PUSH2 0x4D0 JUMPI DUP1 DUP2 REVERT JUMPDEST POP MLOAD SWAP2 SWAP1 POP JUMP JUMPDEST PUSH1 0x0 DUP2 MLOAD DUP1 DUP5 MSTORE PUSH2 0x4EF DUP2 PUSH1 0x20 DUP7 ADD PUSH1 0x20 DUP7 ADD PUSH2 0x5C7 JUMP JUMPDEST PUSH1 0x1F ADD PUSH1 0x1F NOT AND SWAP3 SWAP1 SWAP3 ADD PUSH1 0x20 ADD SWAP3 SWAP2 POP POP JUMP JUMPDEST SWAP1 ISZERO ISZERO DUP2 MSTORE PUSH1 0x20 ADD SWAP1 JUMP JUMPDEST PUSH1 0x1 PUSH1 0x1 PUSH1 0xA0 SHL SUB SWAP2 SWAP1 SWAP2 AND DUP2 MSTORE PUSH1 0x20 ADD SWAP1 JUMP JUMPDEST PUSH1 0x0 PUSH1 0x20 DUP3 MSTORE DUP3 MLOAD PUSH1 0xA0 PUSH1 0x20 DUP5 ADD MSTORE PUSH2 0x53E PUSH1 0xC0 DUP5 ADD DUP3 PUSH2 0x4D7 JUMP JUMPDEST PUSH1 0x20 DUP6 ADD MLOAD DUP5 DUP3 SUB PUSH1 0x1F NOT ADD PUSH1 0x40 DUP7 ADD MSTORE SWAP2 POP PUSH2 0x55B DUP2 DUP4 PUSH2 0x4D7 JUMP JUMPDEST PUSH1 0x40 DUP7 ADD MLOAD SWAP3 POP PUSH2 0xFFFF SWAP2 POP DUP2 DUP4 AND PUSH1 0x60 DUP7 ADD MSTORE PUSH4 0xFFFFFFFF PUSH1 0x60 DUP8 ADD MLOAD AND PUSH1 0x80 DUP7 ADD MSTORE DUP2 PUSH1 0x80 DUP8 ADD MLOAD AND PUSH1 0xA0 DUP7 ADD MSTORE DUP1 SWAP4 POP POP POP POP SWAP3 SWAP2 POP POP JUMP JUMPDEST SWAP1 DUP2 MSTORE PUSH1 0x20 ADD SWAP1 JUMP JUMPDEST PUSH1 0x40 MLOAD DUP2 DUP2 ADD PUSH8 0xFFFFFFFFFFFFFFFF DUP2 GT DUP3 DUP3 LT OR ISZERO PUSH2 0x5BF JUMPI PUSH1 0x0 DUP1 REVERT JUMPDEST PUSH1 0x40 MSTORE SWAP2 SWAP1 POP JUMP JUMPDEST PUSH1 0x0 JUMPDEST DUP4 DUP2 LT ISZERO PUSH2 0x5E2 JUMPI DUP2 DUP2 ADD MLOAD DUP4 DUP3 ADD MSTORE PUSH1 0x20 ADD PUSH2 0x5CA JUMP JUMPDEST DUP4 DUP2 GT ISZERO PUSH2 0x5F1 JUMPI PUSH1 0x0 DUP5 DUP5 ADD MSTORE JUMPDEST POP POP POP POP JUMP JUMPDEST PUSH2 0xFFFF DUP2 AND DUP2 EQ PUSH2 0x607 JUMPI PUSH1 0x0 DUP1 REVERT JUMPDEST POP JUMP INVALID LOG2 PUSH5 0x6970667358 0x22 SLT KECCAK256 LOG0 SWAP6 0xBA POP SWAP15 0xDC MSIZE 0x5E LT SHL SLT DUP3 SMOD 0x4B 0xCA DUP7 CREATE2 DUP13 PUSH31 0xDB6A3CB0F68A48AE6598D4A0E664736F6C6343000606003300000000000000 ","sha1":"addce87320a8064e9da1b8908bdc91db83d8bb8f","source":"pragma solidity 0.6.6;\npragma experimental ABIEncoderV2;\n\ninterface CarCollectible{\n    struct Attr {\n        string brand;\n        string model;\n        uint16 year;\n        uint32 price;\n        uint16 iot_account;\n    }\n    function check_ownership(uint256 tokenId) external view returns (address);\n    function get_attributes(uint256 tokenId) external view returns(Attr memory attr);\n}\n\ninterface APIConsumer{\n    function code() external view returns (uint256);\n}\n\ncontract Insurance{\n\n    CarCollectible public cc_address;\n    CarCollectible.Attr attr;\n\n    APIConsumer public chainlink;\n\n    address sender;\n\n    constructor () public\n    {\n        cc_address = CarCollectible(0x2f7eD018Da8D9643634E2EE65B455D990ad6D3Ba);\n        chainlink = APIConsumer(0x2997f7DACe6f383841798B1a087D4424459AD02b);\n    }\n\n    function set_sender() external\n    {\n        sender = msg.sender;\n    }\n\n     function check_ownership(uint256 tokenId) external view returns (bool)\n     {\n        address owner = cc_address.check_ownership(tokenId);\n        if(owner==sender) {\n            return true; \n        } else {\n            return false;\n        }\n        //return sender;\n     }\n    \n    function get_metadata(uint256 tokenId) external view returns (CarCollectible.Attr memory attr)\n    {\n        return cc_address.get_attributes(tokenId);\n    }\n\n    function get_weather() external view returns (uint256) {\n        return chainlink.code();\n    }\n}","sourcePath":"contracts/Insurance.sol","deployment":{"address":"0xE37D568448C503E9f48974C2C9A754e22fc5c587","chainid":"42","blockHeight":31113324}}